{
  "contractName": "AccessControl",
  "abi": [
    {
      "inputs": [
        {
          "internalType": "address",
          "name": "_mc",
          "type": "address"
        },
        {
          "internalType": "address",
          "name": "_rc",
          "type": "address"
        },
        {
          "internalType": "address",
          "name": "_manager",
          "type": "address"
        }
      ],
      "stateMutability": "nonpayable",
      "type": "constructor"
    },
    {
      "anonymous": false,
      "inputs": [
        {
          "indexed": true,
          "internalType": "address",
          "name": "from",
          "type": "address"
        },
        {
          "indexed": false,
          "internalType": "bool",
          "name": "result",
          "type": "bool"
        },
        {
          "indexed": false,
          "internalType": "string",
          "name": "msg",
          "type": "string"
        },
        {
          "indexed": false,
          "internalType": "uint256",
          "name": "time",
          "type": "uint256"
        }
      ],
      "name": "ReturnAccessResult",
      "type": "event"
    },
    {
      "inputs": [],
      "name": "evAttr",
      "outputs": [
        {
          "internalType": "uint256",
          "name": "minInterval",
          "type": "uint256"
        },
        {
          "internalType": "uint256",
          "name": "threshold",
          "type": "uint256"
        },
        {
          "internalType": "string",
          "name": "algorithm",
          "type": "string"
        }
      ],
      "stateMutability": "view",
      "type": "function",
      "constant": true
    },
    {
      "inputs": [],
      "name": "manager",
      "outputs": [
        {
          "internalType": "address",
          "name": "",
          "type": "address"
        }
      ],
      "stateMutability": "view",
      "type": "function",
      "constant": true
    },
    {
      "inputs": [],
      "name": "mc",
      "outputs": [
        {
          "internalType": "contract ManagementA",
          "name": "",
          "type": "address"
        }
      ],
      "stateMutability": "view",
      "type": "function",
      "constant": true
    },
    {
      "inputs": [],
      "name": "rc",
      "outputs": [
        {
          "internalType": "contract ReputationA",
          "name": "",
          "type": "address"
        }
      ],
      "stateMutability": "view",
      "type": "function",
      "constant": true
    },
    {
      "inputs": [
        {
          "internalType": "uint256",
          "name": "_minInterval",
          "type": "uint256"
        },
        {
          "internalType": "uint256",
          "name": "_threshold",
          "type": "uint256"
        },
        {
          "internalType": "string",
          "name": "_algorithm",
          "type": "string"
        }
      ],
      "name": "updateEnviroment",
      "outputs": [],
      "stateMutability": "nonpayable",
      "type": "function"
    },
    {
      "inputs": [
        {
          "internalType": "string",
          "name": "scType",
          "type": "string"
        },
        {
          "internalType": "address",
          "name": "_scAddress",
          "type": "address"
        }
      ],
      "name": "updateSCAddr",
      "outputs": [],
      "stateMutability": "nonpayable",
      "type": "function"
    },
    {
      "inputs": [
        {
          "internalType": "address",
          "name": "_manager",
          "type": "address"
        }
      ],
      "name": "updateManager",
      "outputs": [],
      "stateMutability": "nonpayable",
      "type": "function"
    },
    {
      "inputs": [
        {
          "internalType": "string",
          "name": "_resource",
          "type": "string"
        },
        {
          "internalType": "string",
          "name": "_attrName",
          "type": "string"
        },
        {
          "internalType": "string",
          "name": "_attrValue",
          "type": "string"
        }
      ],
      "name": "addResourceAttr",
      "outputs": [],
      "stateMutability": "nonpayable",
      "type": "function"
    },
    {
      "inputs": [
        {
          "internalType": "string",
          "name": "_resource",
          "type": "string"
        },
        {
          "internalType": "string",
          "name": "_attrName",
          "type": "string"
        },
        {
          "internalType": "string",
          "name": "_attrValue",
          "type": "string"
        }
      ],
      "name": "updateResourceAttr",
      "outputs": [],
      "stateMutability": "nonpayable",
      "type": "function"
    },
    {
      "inputs": [
        {
          "internalType": "string",
          "name": "_resource",
          "type": "string"
        },
        {
          "internalType": "string",
          "name": "_attrName",
          "type": "string"
        }
      ],
      "name": "getResourceAttr",
      "outputs": [
        {
          "internalType": "string",
          "name": "_attrValue",
          "type": "string"
        }
      ],
      "stateMutability": "view",
      "type": "function",
      "constant": true
    },
    {
      "inputs": [
        {
          "internalType": "string",
          "name": "_resource",
          "type": "string"
        },
        {
          "internalType": "string",
          "name": "_attrName",
          "type": "string"
        }
      ],
      "name": "deleteResourceAttr",
      "outputs": [],
      "stateMutability": "nonpayable",
      "type": "function"
    },
    {
      "inputs": [
        {
          "internalType": "string",
          "name": "_resource",
          "type": "string"
        },
        {
          "internalType": "string",
          "name": "_action",
          "type": "string"
        },
        {
          "internalType": "string",
          "name": "_attrOwner",
          "type": "string"
        },
        {
          "internalType": "string",
          "name": "_attrName",
          "type": "string"
        },
        {
          "internalType": "string",
          "name": "_operator",
          "type": "string"
        },
        {
          "internalType": "string",
          "name": "_attrValue",
          "type": "string"
        },
        {
          "internalType": "uint256",
          "name": "_importance",
          "type": "uint256"
        }
      ],
      "name": "addPolicy",
      "outputs": [],
      "stateMutability": "nonpayable",
      "type": "function"
    },
    {
      "inputs": [
        {
          "internalType": "string",
          "name": "_resource",
          "type": "string"
        },
        {
          "internalType": "string",
          "name": "_action",
          "type": "string"
        }
      ],
      "name": "getPolicy",
      "outputs": [
        {
          "components": [
            {
              "internalType": "string",
              "name": "attrOwner",
              "type": "string"
            },
            {
              "internalType": "string",
              "name": "attrName",
              "type": "string"
            },
            {
              "internalType": "string",
              "name": "operator",
              "type": "string"
            },
            {
              "internalType": "string",
              "name": "attrValue",
              "type": "string"
            },
            {
              "internalType": "uint256",
              "name": "importance",
              "type": "uint256"
            }
          ],
          "internalType": "struct AccessControl.PolicyItem[]",
          "name": "",
          "type": "tuple[]"
        }
      ],
      "stateMutability": "view",
      "type": "function",
      "constant": true
    },
    {
      "inputs": [
        {
          "internalType": "string",
          "name": "_resource",
          "type": "string"
        },
        {
          "internalType": "string",
          "name": "_action",
          "type": "string"
        },
        {
          "internalType": "string",
          "name": "_attrName",
          "type": "string"
        }
      ],
      "name": "getPolicyItem",
      "outputs": [
        {
          "components": [
            {
              "internalType": "string",
              "name": "attrOwner",
              "type": "string"
            },
            {
              "internalType": "string",
              "name": "attrName",
              "type": "string"
            },
            {
              "internalType": "string",
              "name": "operator",
              "type": "string"
            },
            {
              "internalType": "string",
              "name": "attrValue",
              "type": "string"
            },
            {
              "internalType": "uint256",
              "name": "importance",
              "type": "uint256"
            }
          ],
          "internalType": "struct AccessControl.PolicyItem[]",
          "name": "",
          "type": "tuple[]"
        }
      ],
      "stateMutability": "view",
      "type": "function",
      "constant": true
    },
    {
      "inputs": [
        {
          "internalType": "string",
          "name": "_resource",
          "type": "string"
        },
        {
          "internalType": "string",
          "name": "_action",
          "type": "string"
        }
      ],
      "name": "deletePolicy",
      "outputs": [],
      "stateMutability": "nonpayable",
      "type": "function"
    },
    {
      "inputs": [
        {
          "internalType": "string",
          "name": "_resource",
          "type": "string"
        },
        {
          "internalType": "string",
          "name": "_action",
          "type": "string"
        },
        {
          "internalType": "string",
          "name": "_attrName",
          "type": "string"
        }
      ],
      "name": "deletePolicyItem",
      "outputs": [],
      "stateMutability": "nonpayable",
      "type": "function"
    },
    {
      "inputs": [
        {
          "internalType": "string",
          "name": "s",
          "type": "string"
        }
      ],
      "name": "stringToUint",
      "outputs": [
        {
          "internalType": "uint256",
          "name": "result",
          "type": "uint256"
        }
      ],
      "stateMutability": "pure",
      "type": "function",
      "constant": true
    },
    {
      "inputs": [
        {
          "internalType": "string",
          "name": "_resource",
          "type": "string"
        },
        {
          "internalType": "string",
          "name": "_action",
          "type": "string"
        }
      ],
      "name": "accessControl",
      "outputs": [
        {
          "internalType": "string",
          "name": "",
          "type": "string"
        }
      ],
      "stateMutability": "nonpayable",
      "type": "function"
    },
    {
      "inputs": [],
      "name": "deleteACC",
      "outputs": [],
      "stateMutability": "nonpayable",
      "type": "function"
    }
  ],
  "bytecode": "0x60646080818152600260a0819052610120604052600c60e08181527f64656e796f76657272696573000000000000000000000000000000000000000061010090815260c09190915260039485556004929092559192916200006391600591620000d7565b5050503480156200007357600080fd5b5060405162004b4c38038062004b4c833981016040819052620000969162000173565b60008054600160a060020a0319908116600160a060020a039384161790915560028054821694831694909417909355600180549093169116179055620001df565b828054600181600116156101000203166002900490600052602060002090601f016020900481019282601f106200011a57805160ff19168380011785556200014a565b828001600101855582156200014a579182015b828111156200014a5782518255916020019190600101906200012d565b50620001589291506200015c565b5090565b5b808211156200015857600081556001016200015d565b60008060006060848603121562000188578283fd5b83516200019581620001c6565b6020850151909350620001a881620001c6565b6040850151909250620001bb81620001c6565b809150509250925092565b600160a060020a0381168114620001dc57600080fd5b50565b61495d80620001ef6000396000f3fe608060405234801561001057600080fd5b50600436106101255760003560e060020a9004806370ec67ee116100b1578063b0038bad11610075578063b0038bad1461025d578063b80ff07114610270578063cb7956b014610283578063d3b334b81461028b578063f04b99e51461029357610125565b806370ec67ee146101fe578063798d85421461021157806384ae0aa314610224578063a1c2712114610237578063aa1054721461024a57610125565b806343c653ce116100f857806343c653ce146101a8578063481c6a75146101bd57806358aba00f146101c5578063590e28e4146101d85780636f6086a2146101eb57610125565b80631073d7c11461012a57806312f77332146101535780631bd95155146101685780632e06aac614610188575b600080fd5b61013d610138366004613288565b6102aa565b60405161014a9190613bcb565b60405180910390f35b61015b611570565b60405161014a91906136a3565b61017b61017636600461318d565b61157f565b60405161014a919061485c565b61019b610196366004613288565b6115f2565b60405161014a9190613a76565b6101bb6101b63660046132e9565b611b54565b005b61015b611e17565b6101bb6101d336600461314b565b611e26565b61019b6101e63660046132e9565b611ee3565b6101bb6101f936600461336d565b612448565b6101bb61020c36600461347e565b6125d3565b6101bb61021f3660046132e9565b612623565b61013d610232366004613288565b61273b565b6101bb610245366004613288565b612868565b6101bb61025836600461323b565b6129b8565b6101bb61026b3660046132e9565b612c07565b6101bb61027e366004613288565b612d68565b61015b612e71565b6101bb612e80565b61029b612eb0565b60405161014a93929190614865565b6002546040517f4c59173000000000000000000000000000000000000000000000000000000000815260609133914291600160a060020a031690634c591730906102f89085906004016136a3565b602060405180830381600087803b15801561031257600080fd5b505af1158015610326573d6000803e3d6000fd5b505050506040513d601f19601f8201168201806040525081019061034a9190613466565b10156103745760405160e560020a62461bcd02815260040161036b90614353565b60405180910390fd5b61037c612f4b565b6060600080600061038b612f7a565b600354600160a060020a0388166000908152600660205260409020546060914291909103116103ec57600160a060020a03881660009081526006602052604090206001908101805490910190819055600454116103e757600193505b610409565b600160a060020a0388166000908152600660205260408120600101555b60005b60088c60405161041c9190613687565b90815260200160405180910390208b6040516104389190613687565b90815260405190819003602001902054811015610fa05760088c60405161045f9190613687565b90815260200160405180910390208b60405161047b9190613687565b9081526020016040518091039020818154811061049457fe5b6000918252602091829020600590910201805460408051601f60026000196101006001871615020190941693909304928301859004850281018501909152818152928301828280156105275780601f106104fc57610100808354040283529160200191610527565b820191906000526020600020905b81548152906001019060200180831161050a57829003601f168201915b505050918a525050604051600890610540908e90613687565b90815260200160405180910390208b60405161055c9190613687565b9081526020016040518091039020818154811061057557fe5b90600052602060002090600502016001018054600181600116156101000203166002900480601f01602080910402602001604051908101604052809291908181526020018280546001816001161561010002031660029004801561061a5780601f106105ef5761010080835404028352916020019161061a565b820191906000526020600020905b8154815290600101906020018083116105fd57829003601f168201915b5050505050886020018190525060088c6040516106379190613687565b90815260200160405180910390208b6040516106539190613687565b9081526020016040518091039020818154811061066c57fe5b600091825260209182902060026005909202018101805460408051601f6000196101006001861615020190931694909404918201859004850284018501905280835291929091908301828280156107045780601f106106d957610100808354040283529160200191610704565b820191906000526020600020905b8154815290600101906020018083116106e757829003601f168201915b5050505050886040018190525060088c6040516107219190613687565b90815260200160405180910390208b60405161073d9190613687565b9081526020016040518091039020818154811061075657fe5b6000918252602091829020600360059092020101805460408051601f60026000196101006001871615020190941693909304928301859004850281018501909152818152928301828280156107ec5780601f106107c1576101008083540402835291602001916107ec565b820191906000526020600020905b8154815290600101906020018083116107cf57829003601f168201915b50505050506060890152875160405160e060020a6360353db902815273__Utils_________________________________916360353db9916108319190600401613c03565b60206040518083038186803b15801561084957600080fd5b505af415801561085d573d6000803e3d6000fd5b505050506040513d601f19601f82011682018060405250810190610881919061316d565b15610b9657602088015160405160e060020a6360353db902815273__Utils_________________________________916360353db9916108c49190600401613d4b565b60206040518083038186803b1580156108dc57600080fd5b505af41580156108f0573d6000803e3d6000fd5b505050506040513d601f19601f82011682018060405250810190610914919061316d565b806109a85750602088015160405160e060020a6360353db902815273__Utils_________________________________916360353db9916109589190600401613c55565b60206040518083038186803b15801561097057600080fd5b505af4158015610984573d6000803e3d6000fd5b505050506040513d601f19601f820116820180604052508101906109a8919061316d565b80610a3c5750602088015160405160e060020a6360353db902815273__Utils_________________________________916360353db9916109ec9190600401613ca7565b60206040518083038186803b158015610a0457600080fd5b505af4158015610a18573d6000803e3d6000fd5b505050506040513d601f19601f82011682018060405250810190610a3c919061316d565b15610aeb5760025460208901516040517f41cb8597000000000000000000000000000000000000000000000000000000008152600160a060020a03909216916341cb859791610a90918d9190600401613a54565b60006040518083038186803b158015610aa857600080fd5b505afa158015610abc573d6000803e3d6000fd5b505050506040513d6000823e601f3d908101601f19168201604052610ae491908101906131c8565b9650610b91565b60025460208901516040517fe335a68a000000000000000000000000000000000000000000000000000000008152600160a060020a039092169163e335a68a91610b3a918d9190600401613a54565b60006040518083038186803b158015610b5257600080fd5b505afa158015610b66573d6000803e3d6000fd5b505050506040513d6000823e601f3d908101601f19168201604052610b8e91908101906131c8565b96505b610c62565b60078c604051610ba69190613687565b90815260200160405180910390208860200151604051610bc69190613687565b90815260408051602092819003830181206001908101805460029281161561010002600019011691909104601f81018590048502830185019093528282529092909190830182828015610c5a5780601f10610c2f57610100808354040283529160200191610c5a565b820191906000526020600020905b815481529060010190602001808311610c3d57829003601f168201915b505050505096505b604080890151905160e060020a6360353db902815273__Utils_________________________________916360353db991610ca09190600401613def565b60206040518083038186803b158015610cb857600080fd5b505af4158015610ccc573d6000803e3d6000fd5b505050506040513d601f19601f82011682018060405250810190610cf0919061316d565b8015610d105750610d04886060015161157f565b610d0d8861157f565b11155b15610d215760016020840152610d26565b600183525b604080890151905160e060020a6360353db902815273__Utils_________________________________916360353db991610d649190600401613cf9565b60206040518083038186803b158015610d7c57600080fd5b505af4158015610d90573d6000803e3d6000fd5b505050506040513d601f19601f82011682018060405250810190610db4919061316d565b8015610dd45750610dc8886060015161157f565b610dd18861157f565b10155b15610de55760016020840152610dea565b600183525b604080890151905160e060020a6360353db902815273__Utils_________________________________916360353db991610e289190600401613e93565b60206040518083038186803b158015610e4057600080fd5b505af4158015610e54573d6000803e3d6000fd5b505050506040513d601f19601f82011682018060405250810190610e78919061316d565b8015610f105750606088015160405160e060020a6360353db902815273__Utils_________________________________916360353db991610ebe918b91600401613bde565b60206040518083038186803b158015610ed657600080fd5b505af4158015610eea573d6000803e3d6000fd5b505050506040513d601f19601f82011682018060405250810190610f0e919061316d565b155b15610f215760016020840152610f26565b600183525b60208301518015610f8e575060088c604051610f429190613687565b90815260200160405180910390208b604051610f5e9190613687565b90815260200160405180910390208181548110610f7757fe5b906000526020600020906005020160040154600014155b15610f9857600493505b60010161040c565b5060405160e060020a6360353db902815273__Utils_________________________________906360353db990610fdc90600590600401613f4a565b60206040518083038186803b158015610ff457600080fd5b505af4158015611008573d6000803e3d6000fd5b505050506040513d601f19601f8201168201806040525081019061102c919061316d565b8015611039575060208201515b1561104357600194505b60405160e060020a6360353db902815273__Utils_________________________________906360353db99061107e90600590600401613ef8565b60206040518083038186803b15801561109657600080fd5b505af41580156110aa573d6000803e3d6000fd5b505050506040513d601f19601f820116820180604052508101906110ce919061316d565b80156110d8575081515b156110e257600094505b8480156110ed575083155b80156110fa575060ff8316155b1561110457600192505b8415801561110f5750835b1561111957600292505b8480156111235750835b1561112d57600392505b600160a060020a038816600090815260066020526040902042905584806111515750835b15611190575060408051808201909152600481527f64656e79000000000000000000000000000000000000000000000000000000006020820152611213565b81518061119e575060208201515b156111dd575060408051808201909152600581527f616c6c6f770000000000000000000000000000000000000000000000000000006020820152611213565b5060408051808201909152600981527f4e6f74446566696e65000000000000000000000000000000000000000000000060208201525b60ff83166112ba5760015460405160e160020a634f8e671f028152600160a060020a0390911690639f1cce3e90611255908b9060009060049042908201613a22565b600060405180830381600087803b15801561126f57600080fd5b505af1158015611283573d6000803e3d6000fd5b5050505087600160a060020a03166000805160206149088339815191526001426040516112b1929190613b63565b60405180910390a25b8260ff1660011415611363576001805460405160e160020a634f8e671f028152600160a060020a0390911691639f1cce3e916112fe918c9181904290600401613949565b600060405180830381600087803b15801561131857600080fd5b505af115801561132c573d6000803e3d6000fd5b5050505087600160a060020a031660008051602061490883398151915260004260405161135a929190613bb1565b60405180910390a25b8260ff166002141561140d576001805460405160e160020a634f8e671f028152600160a060020a0390911691639f1cce3e916113a8918c91600290429060040161398c565b600060405180830381600087803b1580156113c257600080fd5b505af11580156113d6573d6000803e3d6000fd5b5050505087600160a060020a0316600080516020614908833981519152600042604051611404929190613b7d565b60405180910390a25b8260ff16600314156114b7576001805460405160e160020a634f8e671f028152600160a060020a0390911691639f1cce3e91611452918c9160039042906004016139be565b600060405180830381600087803b15801561146c57600080fd5b505af1158015611480573d6000803e3d6000fd5b5050505087600160a060020a03166000805160206149088339815191526000426040516114ae929190613b97565b60405180910390a25b8260ff1660041415611560576001805460405160e160020a634f8e671f028152600160a060020a0390911691639f1cce3e916114fb918c91600490429082016139f0565b600060405180830381600087803b15801561151557600080fd5b505af1158015611529573d6000803e3d6000fd5b5050505087600160a060020a0316600080516020614908833981519152600042604051611557929190613b3a565b60405180910390a25b9750505050505050505b92915050565b600154600160a060020a031681565b600081815b81518110156115eb57600082828151811061159b57fe5b602001015160f860020a900460f860020a0260f860020a9004905060308160ff16101580156115ce575060398160ff1611155b156115e2576030810360ff1684600a020193505b50600101611584565b5050919050565b60606008836040516116049190613687565b9081526020016040518091039020826040516116209190613687565b9081526040519081900360200190205461164f5760405160e560020a62461bcd02815260040161036b906147d9565b60606008846040516116619190613687565b90815260200160405180910390208360405161167d9190613687565b9081526040519081900360200190205467ffffffffffffffff811180156116a357600080fd5b506040519080825280602002602001820160405280156116dd57816020015b6116ca612f4b565b8152602001906001900390816116c25790505b50905060005b6008856040516116f39190613687565b90815260200160405180910390208460405161170f9190613687565b90815260405190819003602001902054811015611b4c576040518060a001604052806008876040516117419190613687565b90815260200160405180910390208660405161175d9190613687565b9081526020016040518091039020838154811061177657fe5b6000918252602091829020600590910201805460408051601f60026000196101006001871615020190941693909304928301859004850281018501909152818152928301828280156118095780601f106117de57610100808354040283529160200191611809565b820191906000526020600020905b8154815290600101906020018083116117ec57829003601f168201915b505050505081526020016008876040516118239190613687565b90815260200160405180910390208660405161183f9190613687565b9081526020016040518091039020838154811061185857fe5b90600052602060002090600502016001018054600181600116156101000203166002900480601f0160208091040260200160405190810160405280929190818152602001828054600181600116156101000203166002900480156118fd5780601f106118d2576101008083540402835291602001916118fd565b820191906000526020600020905b8154815290600101906020018083116118e057829003601f168201915b505050505081526020016008876040516119179190613687565b9081526020016040518091039020866040516119339190613687565b9081526020016040518091039020838154811061194c57fe5b600091825260209182902060026005909202018101805460408051601f6000196101006001861615020190931694909404918201859004850284018501905280835291929091908301828280156119e45780601f106119b9576101008083540402835291602001916119e4565b820191906000526020600020905b8154815290600101906020018083116119c757829003601f168201915b505050505081526020016008876040516119fe9190613687565b908152602001604051809103902086604051611a1a9190613687565b90815260200160405180910390208381548110611a3357fe5b6000918252602091829020600360059092020101805460408051601f6002600019610100600187161502019094169390930492830185900485028101850190915281815292830182828015611ac95780601f10611a9e57610100808354040283529160200191611ac9565b820191906000526020600020905b815481529060010190602001808311611aac57829003601f168201915b50505050508152602001600887604051611ae39190613687565b908152602001604051809103902086604051611aff9190613687565b90815260200160405180910390208381548110611b1857fe5b906000526020600020906005020160040154815250828281518110611b3957fe5b60209081029190910101526001016116e3565b509392505050565b600054600160a060020a03163314611b815760405160e560020a62461bcd02815260040161036b90614676565b600883604051611b919190613687565b908152602001604051809103902082604051611bad9190613687565b90815260405190819003602001902054611bdc5760405160e560020a62461bcd02815260040161036b906140b3565b60005b600884604051611bef9190613687565b908152602001604051809103902083604051611c0b9190613687565b90815260405190819003602001902054811015611da45773__Utils_________________________________6360353db9600886604051611c4c9190613687565b908152602001604051809103902085604051611c689190613687565b90815260200160405180910390208381548110611c8157fe5b9060005260206000209060050201600101846040518363ffffffff1660e060020a028152600401611cb3929190613ee5565b60206040518083038186803b158015611ccb57600080fd5b505af4158015611cdf573d6000803e3d6000fd5b505050506040513d601f19601f82011682018060405250810190611d03919061316d565b15611d9c57600884604051611d189190613687565b908152602001604051809103902083604051611d349190613687565b90815260200160405180910390208181548110611d4d57fe5b60009182526020822060059091020190611d678282612f98565b611d75600183016000612f98565b611d83600283016000612f98565b611d91600383016000612f98565b600482016000905550505b600101611bdf565b5060015460405160e160020a634f8e671f028152600160a060020a0390911690639f1cce3e90611de0903390600090600390429060040161382f565b600060405180830381600087803b158015611dfa57600080fd5b505af1158015611e0e573d6000803e3d6000fd5b50505050505050565b600054600160a060020a031681565b600054600160a060020a03163314611e535760405160e560020a62461bcd02815260040161036b906141f0565b6000805473ffffffffffffffffffffffffffffffffffffffff1916600160a060020a0383811691909117825560015460405160e160020a634f8e671f028152911691639f1cce3e91611eae91339160029042906004016137d1565b600060405180830381600087803b158015611ec857600080fd5b505af1158015611edc573d6000803e3d6000fd5b5050505050565b6060600884604051611ef59190613687565b908152602001604051809103902083604051611f119190613687565b90815260405190819003602001902054611f405760405160e560020a62461bcd02815260040161036b906142d0565b6060600885604051611f529190613687565b908152602001604051809103902084604051611f6e9190613687565b9081526040519081900360200190205467ffffffffffffffff81118015611f9457600080fd5b50604051908082528060200260200182016040528015611fce57816020015b611fbb612f4b565b815260200190600190039081611fb35790505b5090506000805b600887604051611fe59190613687565b9081526020016040518091039020866040516120019190613687565b9081526040519081900360200190205481101561243d5773__Utils_________________________________6360353db96008896040516120429190613687565b90815260200160405180910390208860405161205e9190613687565b9081526020016040518091039020838154811061207757fe5b9060005260206000209060050201600101876040518363ffffffff1660e060020a0281526004016120a9929190613ee5565b60206040518083038186803b1580156120c157600080fd5b505af41580156120d5573d6000803e3d6000fd5b505050506040513d601f19601f820116820180604052508101906120f9919061316d565b15612435576040518060a001604052806008896040516121199190613687565b9081526020016040518091039020886040516121359190613687565b9081526020016040518091039020838154811061214e57fe5b6000918252602091829020600590910201805460408051601f60026000196101006001871615020190941693909304928301859004850281018501909152818152928301828280156121e15780601f106121b6576101008083540402835291602001916121e1565b820191906000526020600020905b8154815290600101906020018083116121c457829003601f168201915b505050505081526020018681526020016008896040516122019190613687565b90815260200160405180910390208860405161221d9190613687565b9081526020016040518091039020838154811061223657fe5b600091825260209182902060026005909202018101805460408051601f6000196101006001861615020190931694909404918201859004850284018501905280835291929091908301828280156122ce5780601f106122a3576101008083540402835291602001916122ce565b820191906000526020600020905b8154815290600101906020018083116122b157829003601f168201915b505050505081526020016008896040516122e89190613687565b9081526020016040518091039020886040516123049190613687565b9081526020016040518091039020838154811061231d57fe5b6000918252602091829020600360059092020101805460408051601f60026000196101006001871615020190941693909304928301859004850281018501909152818152928301828280156123b35780601f10612388576101008083540402835291602001916123b3565b820191906000526020600020905b81548152906001019060200180831161239657829003601f168201915b505050505081526020016008896040516123cd9190613687565b9081526020016040518091039020886040516123e99190613687565b9081526020016040518091039020838154811061240257fe5b90600052602060002090600502016004015481525083838151811061242357fe5b60209081029190910101526001909101905b600101611fd5565b509095945050505050565b600054600160a060020a031633146124755760405160e560020a62461bcd02815260040161036b90613ff9565b6008876040516124859190613687565b9081526020016040518091039020866040516124a19190613687565b90815260408051918290036020908101832060a08401835288845283820188905291830186905260608301859052608083018490528154600181018355600092835291819020835180516005909402909101926125019284920190612fdf565b50602082810151805161251a9260018501920190612fdf565b5060408201518051612536916002840191602090910190612fdf565b5060608201518051612552916003840191602090910190612fdf565b50608091909101516004918201556001805460405160e160020a634f8e671f028152600160a060020a0390911692639f1cce3e9261259892339260009291429101613715565b600060405180830381600087803b1580156125b257600080fd5b505af11580156125c6573d6000803e3d6000fd5b5050505050505050505050565b600054600160a060020a031633146126005760405160e560020a62461bcd02815260040161036b90614756565b60038390556004829055805161261d906005906020840190612fdf565b50505050565b600054600160a060020a031633146126505760405160e560020a62461bcd02815260040161036b90614273565b6007836040516126609190613687565b90815260200160405180910390208260405161267c9190613687565b9081526040519081900360200190205460ff166126ae5760405160e560020a62461bcd02815260040161036b90614570565b806007846040516126bf9190613687565b9081526020016040518091039020836040516126db9190613687565b908152602001604051809103902060010190805190602001906126ff929190612fdf565b5060015460405160e160020a634f8e671f028152600160a060020a0390911690639f1cce3e90611de09033906000906002904290600401613773565b606060078360405161274d9190613687565b9081526020016040518091039020826040516127699190613687565b9081526040519081900360200190205460ff1661279b5760405160e560020a62461bcd02815260040161036b90614056565b6007836040516127ab9190613687565b9081526020016040518091039020826040516127c79190613687565b90815260408051602092819003830181206001908101805460029281161561010002600019011691909104601f8101859004850283018501909352828252909290919083018282801561285b5780601f106128305761010080835404028352916020019161285b565b820191906000526020600020905b81548152906001019060200180831161283e57829003601f168201915b5050505050905092915050565b600054600160a060020a031633146128955760405160e560020a62461bcd02815260040161036b90613f9c565b6007826040516128a59190613687565b9081526020016040518091039020816040516128c19190613687565b9081526040519081900360200190205460ff166128f35760405160e560020a62461bcd02815260040161036b906143b0565b6007826040516129039190613687565b90815260200160405180910390208160405161291f9190613687565b908152604051908190036020019020805460ff1916815560006129456001830182612f98565b505060015460405160e160020a634f8e671f028152600160a060020a0390911690639f1cce3e9061298290339060009060039042906004016138eb565b600060405180830381600087803b15801561299c57600080fd5b505af11580156129b0573d6000803e3d6000fd5b505050505050565b600054600160a060020a031633146129e55760405160e560020a62461bcd02815260040161036b9061446a565b60405160e060020a6360353db902815273__Utils_________________________________906360353db990612a1f908590600401613e41565b60206040518083038186803b158015612a3757600080fd5b505af4158015612a4b573d6000803e3d6000fd5b505050506040513d601f19601f82011682018060405250810190612a6f919061316d565b80612aff575060405160e060020a6360353db902815273__Utils_________________________________906360353db990612aaf908590600401613d9d565b60206040518083038186803b158015612ac757600080fd5b505af4158015612adb573d6000803e3d6000fd5b505050506040513d601f19601f82011682018060405250810190612aff919061316d565b612b1e5760405160e560020a62461bcd02815260040161036b906146d3565b60405160e060020a6360353db902815273__Utils_________________________________906360353db990612b58908590600401613e41565b60206040518083038186803b158015612b7057600080fd5b505af4158015612b84573d6000803e3d6000fd5b505050506040513d601f19601f82011682018060405250810190612ba8919061316d565b15612bda576002805473ffffffffffffffffffffffffffffffffffffffff1916600160a060020a038316179055612c03565b6001805473ffffffffffffffffffffffffffffffffffffffff1916600160a060020a0383161790555b5050565b600054600160a060020a03163314612c345760405160e560020a62461bcd02815260040161036b90614136565b600783604051612c449190613687565b908152602001604051809103902082604051612c609190613687565b9081526040519081900360200190205460ff1615612c935760405160e560020a62461bcd02815260040161036b906144ed565b80600784604051612ca49190613687565b908152602001604051809103902083604051612cc09190613687565b90815260200160405180910390206001019080519060200190612ce4929190612fdf565b506001600784604051612cf79190613687565b908152602001604051809103902083604051612d139190613687565b908152604051908190036020018120805492151560ff19909316929092179091556001805460e160020a634f8e671f028352600160a060020a031691639f1cce3e91611de091339160009142906004016136b7565b600054600160a060020a03163314612d955760405160e560020a62461bcd02815260040161036b90614193565b600882604051612da59190613687565b908152602001604051809103902081604051612dc19190613687565b90815260405190819003602001902054612df05760405160e560020a62461bcd02815260040161036b906145f3565b600882604051612e009190613687565b908152602001604051809103902081604051612e1c9190613687565b90815260200160405180910390206000612e36919061305d565b60015460405160e160020a634f8e671f028152600160a060020a0390911690639f1cce3e90612982903390600090600390429060040161388d565b600254600160a060020a031681565b600054600160a060020a03163314612ead5760405160e560020a62461bcd02815260040161036b90614433565b33ff5b600380546004546005805460408051602060026001851615610100026000190190941693909304601f8101849004840282018401909252818152949593949291830182828015612f415780601f10612f1657610100808354040283529160200191612f41565b820191906000526020600020905b815481529060010190602001808311612f2457829003601f168201915b5050505050905083565b6040518060a0016040528060608152602001606081526020016060815260200160608152602001600081525090565b60405180604001604052806002906020820280368337509192915050565b50805460018160011615610100020316600290046000825580601f10612fbe5750612fdc565b601f016020900490600052602060002090810190612fdc919061307e565b50565b828054600181600116156101000203166002900490600052602060002090601f016020900481019282601f1061302057805160ff191683800117855561304d565b8280016001018555821561304d579182015b8281111561304d578251825591602001919060010190613032565b5061305992915061307e565b5090565b5080546000825560050290600052602060002090810190612fdc9190613093565b5b80821115613059576000815560010161307f565b808211156130595760006130a78282612f98565b6130b5600183016000612f98565b6130c3600283016000612f98565b6130d1600383016000612f98565b5060006004820155600501613093565b8035600160a060020a038116811461156a57600080fd5b600082601f830112613108578081fd5b813561311b613116826148ab565b614884565b915080825283602082850101111561313257600080fd5b8060208401602084013760009082016020015292915050565b60006020828403121561315c578081fd5b61316683836130e1565b9392505050565b60006020828403121561317e578081fd5b81518015158114613166578182fd5b60006020828403121561319e578081fd5b813567ffffffffffffffff8111156131b4578182fd5b6131c0848285016130f8565b949350505050565b6000602082840312156131d9578081fd5b815167ffffffffffffffff8111156131ef578182fd5b8201601f810184136131ff578182fd5b805161320d613116826148ab565b818152856020838501011115613221578384fd5b6132328260208301602086016148db565b95945050505050565b6000806040838503121561324d578081fd5b823567ffffffffffffffff811115613263578182fd5b61326f858286016130f8565b92505061327f84602085016130e1565b90509250929050565b6000806040838503121561329a578182fd5b823567ffffffffffffffff808211156132b1578384fd5b6132bd868387016130f8565b935060208501359150808211156132d2578283fd5b506132df858286016130f8565b9150509250929050565b6000806000606084860312156132fd578081fd5b833567ffffffffffffffff80821115613314578283fd5b613320878388016130f8565b94506020860135915080821115613335578283fd5b613341878388016130f8565b93506040860135915080821115613356578283fd5b50613363868287016130f8565b9150509250925092565b600080600080600080600060e0888a031215613387578283fd5b873567ffffffffffffffff8082111561339e578485fd5b6133aa8b838c016130f8565b985060208a01359150808211156133bf578485fd5b6133cb8b838c016130f8565b975060408a01359150808211156133e0578485fd5b6133ec8b838c016130f8565b965060608a0135915080821115613401578485fd5b61340d8b838c016130f8565b955060808a0135915080821115613422578485fd5b61342e8b838c016130f8565b945060a08a0135915080821115613443578384fd5b506134508a828b016130f8565b92505060c0880135905092959891949750929550565b600060208284031215613477578081fd5b5051919050565b600080600060608486031215613492578283fd5b8335925060208401359150604084013567ffffffffffffffff8111156134b6578182fd5b613363868287016130f8565b600081518084526134da8160208601602086016148db565b601f01601f19169290920160200192915050565b6000815460018082166000811461350c576001811461352a57613568565b60028304607f16865260ff1983166020870152604086019350613568565b6002830480875261353a866148cf565b60005b8281101561355e5781546020828b010152848201915060208101905061353d565b8801602001955050505b50505092915050565b601781527f496d706f7274616e636520636865636b206661696c6564000000000000000000602082015260400190565b601181527f41636365737320617574686f72697a6564000000000000000000000000000000602082015260400190565b601381527f506f6c69637920636865636b206661696c656400000000000000000000000000602082015260400190565b602b81527f506f6c69637920636865636b206661696c656420616e6420546f6f206672657160208201527f75656e7420616363657373000000000000000000000000000000000000000000604082015260600190565b601381527f546f6f206672657175656e742061636365737300000000000000000000000000602082015260400190565b600082516136998184602087016148db565b9190910192915050565b600160a060020a0391909116815260200190565b600160a060020a03949094168452911515602084015260ff16604083015260a0606083018190526016908301527f5265736f7572636520617474726962757465206164640000000000000000000060c0830152608082015260e00190565b600160a060020a03949094168452911515602084015260ff16604083015260a060608301819052600a908301527f506f6c696379206164640000000000000000000000000000000000000000000060c0830152608082015260e00190565b600160a060020a03949094168452911515602084015260ff16604083015260a0606083018190526019908301527f5265736f7572636520617474726962757465207570646174650000000000000060c0830152608082015260e00190565b600160a060020a03949094168452911515602084015260ff16604083015260a0606083018190526015908301527f446576696365206d616e6167657220757064617465000000000000000000000060c0830152608082015260e00190565b600160a060020a03949094168452911515602084015260ff16604083015260a0606083018190526012908301527f506f6c696379206974656d2064656c657465000000000000000000000000000060c0830152608082015260e00190565b600160a060020a03949094168452911515602084015260ff16604083015260a060608301819052600d908301527f506f6c6963792064656c6574650000000000000000000000000000000000000060c0830152608082015260e00190565b600160a060020a03949094168452911515602084015260ff16604083015260a0606083018190526019908301527f5265736f75726365206174747269627574652064656c6574650000000000000060c0830152608082015260e00190565b6000600160a060020a0386168252841515602083015260ff8416604083015260a0606083015261397b60a08301613657565b905082608083015295945050505050565b6000600160a060020a0386168252841515602083015260ff8416604083015260a0606083015261397b60a083016135d1565b6000600160a060020a0386168252841515602083015260ff8416604083015260a0606083015261397b60a08301613601565b6000600160a060020a0386168252841515602083015260ff8416604083015260a0606083015261397b60a08301613571565b6000600160a060020a0386168252841515602083015260ff8416604083015260a0606083015261397b60a083016135a1565b6000600160a060020a0384168252604060208301526131c060408301846134c2565b60208082528251828201819052600091906040908185019080840286018301878501865b83811015613b2c57603f19898403018552815160a08151818652613ac0828701826134c2565b915050888201518582038a870152613ad882826134c2565b9150508782015185820389870152613af082826134c2565b91505060608083015186830382880152613b0a83826134c2565b6080948501519790940196909652505094870194925090860190600101613a9a565b509098975050505050505050565b6000831515825260606020830152613b5460608301613571565b90508260408301529392505050565b6000831515825260606020830152613b54606083016135a1565b6000831515825260606020830152613b54606083016135d1565b6000831515825260606020830152613b5460608301613601565b6000831515825260606020830152613b5460608301613657565b60006020825261316660208301846134c2565b600060408252613bf160408301856134c2565b828103602084015261323281856134c2565b600060408252613c1660408301846134c2565b8281036020840152600781527f7375626a6563740000000000000000000000000000000000000000000000000060208201526040810191505092915050565b600060408252613c6860408301846134c2565b8281036020840152600a81527f646576696365547970650000000000000000000000000000000000000000000060208201526040810191505092915050565b600060408252613cba60408301846134c2565b8281036020840152600a81527f646576696365526f6c650000000000000000000000000000000000000000000060208201526040810191505092915050565b600060408252613d0c60408301846134c2565b8281036020840152600181527f3c0000000000000000000000000000000000000000000000000000000000000060208201526040810191505092915050565b600060408252613d5e60408301846134c2565b8281036020840152600881527f646576696365494400000000000000000000000000000000000000000000000060208201526040810191505092915050565b600060408252613db060408301846134c2565b8281036020840152600281527f726300000000000000000000000000000000000000000000000000000000000060208201526040810191505092915050565b600060408252613e0260408301846134c2565b8281036020840152600181527f3e0000000000000000000000000000000000000000000000000000000000000060208201526040810191505092915050565b600060408252613e5460408301846134c2565b8281036020840152600281527f6d6300000000000000000000000000000000000000000000000000000000000060208201526040810191505092915050565b600060408252613ea660408301846134c2565b8281036020840152600181527f3d0000000000000000000000000000000000000000000000000000000000000060208201526040810191505092915050565b600060408252613bf160408301856134ee565b600060408252613f0b60408301846134ee565b8281036020840152600e81527f616c6c6f776f766572726964657300000000000000000000000000000000000060208201526040810191505092915050565b600060408252613f5d60408301846134ee565b8281036020840152600d81527f64656e796f76657272696465730000000000000000000000000000000000000060208201526040810191505092915050565b60208082526030908201527f64656c6574655265736f7572636541747472206572726f723a2043616c6c657260408201527f206973206e6f74206d616e616765722100000000000000000000000000000000606082015260800190565b60208082526027908201527f616464506f6c696379206572726f723a2043616c6c6572206973206e6f74206d60408201527f616e616765722100000000000000000000000000000000000000000000000000606082015260800190565b60208082526034908201527f6765745265736f7572636541747472206572726f723a205265736f757263652060408201527f617474726962757465206e6f7420657869737421000000000000000000000000606082015260800190565b60208082526055908201527f64656c657465506f6c6963794974656d206572726f723a20546865726520697360408201527f206e6f20706f6c69637920666f722074686973207265736f7572636520616e6460608201527f20616374696f6e20617420746869732074696d65210000000000000000000000608082015260a00190565b6020808252602d908201527f6164645265736f7572636541747472206572726f723a2043616c6c657220697360408201527f206e6f74206d616e616765722100000000000000000000000000000000000000606082015260800190565b6020808252602a908201527f64656c657465506f6c696379206572726f723a2043616c6c6572206973206e6f60408201527f74206d616e616765722100000000000000000000000000000000000000000000606082015260800190565b60208082526049908201527f7570646174654d616e61676572206572726f723a204f6e6c79206d616e61676560408201527f6d656e7420636f6e74726163742063616e20757064617465206d616e6167657260608201527f2061646472657373210000000000000000000000000000000000000000000000608082015260a00190565b60208082526030908201527f7570646174655265736f7572636541747472206572726f723a2043616c6c657260408201527f206973206e6f74206d616e616765722100000000000000000000000000000000606082015260800190565b60208082526052908201527f676574506f6c6963794974656d206572726f723a205468657265206973206e6f60408201527f20706f6c69637920666f722074686973207265736f7572636520616e6420616360608201527f74696f6e20617420746869732074696d65210000000000000000000000000000608082015260a00190565b60208082526026908201527f616363657373206572726f723a20446576696365206973207374696c6c20626c60408201527f6f636b6564210000000000000000000000000000000000000000000000000000606082015260800190565b6020808252604a908201527f64656c6574655265736f7572636541747472206572726f723a205265736f757260408201527f636520617474726962757465206e6f742065786973742c20646f6e2774206e6560608201527f65642064656c6574652100000000000000000000000000000000000000000000608082015260a00190565b60208082526016908201527f43616c6c6572206973206e6f74206d616e616765722100000000000000000000604082015260600190565b60208082526041908201527f757064617465534341646472206572726f723a204f6e6c7920616363206d616e60408201527f616765722063616e20757064617465206d63206f72207263206164647265737360608201527f2100000000000000000000000000000000000000000000000000000000000000608082015260a00190565b6020808252605b908201527f6164645265736f7572636541747472206572726f723a205265736f757263652060408201527f61747472696275746520686164206265656e207365747465642c20706c65617360608201527f65642063616c6c207265736f7572636541747472557064617465210000000000608082015260a00190565b6020808252605b908201527f7570646174655265736f7572636541747472206572726f723a205265736f757260408201527f636520617474726962757465206e6f742065786973742c20706c65617365642060608201527f66697273742063616c6c206164645265736f7572636541747472210000000000608082015260a00190565b60208082526051908201527f64656c657465506f6c696379206572726f723a205468657265206973206e6f2060408201527f706f6c69637920666f722074686973207265736f7572636520616e642061637460608201527f696f6e20617420746869732074696d6521000000000000000000000000000000608082015260a00190565b6020808252602e908201527f64656c657465506f6c6963794974656d206572726f723a2043616c6c6572206960408201527f73206e6f74206d616e6167657221000000000000000000000000000000000000606082015260800190565b60208082526041908201527f757064617465534341646472206572726f723a20557064617461626c6520636f60408201527f6e747261637420747970652063616e206f6e6c79206265207263206f72206d6360608201527f2100000000000000000000000000000000000000000000000000000000000000608082015260a00190565b60208082526046908201527f757064617465456e7669726f6d656e74206572726f723a204f6e6c792061636360408201527f206d616e616765722063616e2075706461746520656e7669726f6e6d656e742060608201527f76616c7565210000000000000000000000000000000000000000000000000000608082015260a00190565b6020808252604e908201527f676574506f6c696379206572726f723a205468657265206973206e6f20706f6c60408201527f69637920666f722074686973207265736f7572636520616e6420616374696f6e60608201527f20617420746869732074696d6521000000000000000000000000000000000000608082015260a00190565b90815260200190565b60008482528360208301526060604083015261323260608301846134c2565b60405181810167ffffffffffffffff811182821017156148a357600080fd5b604052919050565b600067ffffffffffffffff8211156148c1578081fd5b50601f01601f191660200190565b60009081526020902090565b60005b838110156148f65781810151838201526020016148de565b8381111561261d575050600091015256fe83345c30e18141e5b7d85d60d4442171b0d570072ecc4113925ccd38ada36d6aa2646970667358221220713c076692609e59d531583a62ff7161f9b045b9841ff89b75cfe443fc60c56064736f6c63430007000033",
  "immutableReferences": {},
  "source": "// SPDX-License-Identifier:MIT\npragma solidity >0.6.0 <0.8.0;\npragma experimental ABIEncoderV2;\n\nimport \"./Utils.sol\";\n\ncontract AccessControl {\n    address public manager;\n    ReputationA public rc;\n    ManagementA public mc;\n\n    event ReturnAccessResult (\n        address indexed from,\n        bool result,\n        string msg,\n        uint256 time\n    );\n\n    struct AttriValue {\n        bool isValued;\n        string value;\n    }\n\n    struct PolicyItem {\n        //for one (resource, action) pair;\n        string attrOwner; // attribute of this policyItem belong to, subject or resources\n        string attrName; // attribute name\n        string operator; // Conditions operator that policyItem used\n        string attrValue; // Conditions that policyItem should meet\n        uint importance; // Importance of this policy item, it will be submit to rc for calculating reputation hhen it is not 0\n    }\n    \n    struct Environment {\n        uint256 minInterval; // minimum allowable interval (in seconds) between two successive requests\n        uint256 threshold; // threshold on NoFR, above which a misbehavior is suspected\n        string algorithm; // determine the result when rules conflict, denyoverries and allowoverrides\n    }\n   \n    struct BehaviorItem {\n        uint256 ToLR; //Time of Last Request\n        uint256 NoFR; //Number of frequent Requests in a short period of time\n    }\n\n    Environment public evAttr = Environment(100, 2, \"denyoverries\");\n\n    // mapping subjcetAddress => BehaviorCriteria for behavior check\n    mapping(address => BehaviorItem) internal behaviors;\n    \n    // mapping (resource, attributeName) => attributeValue for define and search resource attribute\n    mapping(string => mapping(string => AttriValue)) internal resources;\n    // mapping (resource, action) =>PolicyCriteria for policy check\n    mapping(string => mapping(string => PolicyItem[])) internal policies;\n\n    /// @dev Set contract deployer as manager, set management and reputation contract address\n    constructor(address _mc, address _rc, address _manager) {\n        manager = _manager;\n        mc = ManagementA(_mc);\n        rc = ReputationA(_rc);\n    }\n    \n    function updateEnviroment(uint256 _minInterval, uint256 _threshold, string memory _algorithm) public {\n        require(\n            msg.sender == manager,\n            \"updateEnviroment error: Only acc manager can update environment value!\"\n        );\n        evAttr.minInterval = _minInterval;\n        evAttr.threshold = _threshold;\n        evAttr.algorithm = _algorithm;\n    }\n    \n    /// @dev updateSCAddr update management contract or reputation contract address\n    function updateSCAddr(string memory scType, address _scAddress) public {\n        require(\n            msg.sender == manager,\n            \"updateSCAddr error: Only acc manager can update mc or rc address!\"\n        );\n        require(\n            Utils.stringCompare(scType, \"mc\") || Utils.stringCompare(scType, \"rc\"),\n            \"updateSCAddr error: Updatable contract type can only be rc or mc!\"\n        );\n        if (Utils.stringCompare(scType, \"mc\")) {\n            mc = ManagementA(_scAddress);\n        } else {\n            rc = ReputationA(_scAddress);\n        }\n    }\n    \n    /// @dev updateManager update device manager, after that only new manager can operate this access control contract\n    function updateManager(address _manager) public {\n        require(\n            msg.sender == manager,\n            \"updateManager error: Only management contract can update manager address!\"\n        );\n        manager = _manager;\n        rc.reputationCompute(msg.sender, false, 2, \"Device manager update\", block.timestamp);\n    }\n    \n\n    /// @dev addResourceAttr add resource attribute\n    function addResourceAttr(\n        string memory _resource,\n        string memory _attrName,\n        string memory _attrValue\n    ) \n        public \n    {\n        require(msg.sender == manager, \"addResourceAttr error: Caller is not manager!\");\n        require(\n            !resources[_resource][_attrName].isValued,\n            \"addResourceAttr error: Resource attribute had been setted, pleased call resourceAttrUpdate!\"\n        );\n        resources[_resource][_attrName].value = _attrValue;\n        resources[_resource][_attrName].isValued = true;\n        rc.reputationCompute(msg.sender, false, 1, \"Resource attribute add\", block.timestamp);\n    }\n\n    /// @dev updateResourceAttr update resource attribute\n    function updateResourceAttr(\n        string memory _resource,\n        string memory _attrName,\n        string memory _attrValue\n    ) \n        public \n    {\n        require(msg.sender == manager, \"updateResourceAttr error: Caller is not manager!\");\n        require(\n            resources[_resource][_attrName].isValued,\n            \"updateResourceAttr error: Resource attribute not exist, pleased first call addResourceAttr!\"\n        );\n        resources[_resource][_attrName].value = _attrValue;\n        rc.reputationCompute(msg.sender, false, 2, \"Resource attribute update\", block.timestamp);\n    }\n\n    /// @dev getResourceAttr get resource attribute\n    function getResourceAttr(\n        string memory _resource, \n        string memory _attrName\n    )\n        public\n        view\n        returns (\n            string memory _attrValue\n        ) \n    {\n        require(\n            resources[_resource][_attrName].isValued,\n            \"getResourceAttr error: Resource attribute not exist!\"\n        );\n        _attrValue = resources[_resource][_attrName].value;\n    }\n\n    /// @dev deleteResourceAttr delete the resource attribute\n    function deleteResourceAttr(\n        string memory _resource,\n        string memory _attrName\n    ) \n        public \n    {\n        require(msg.sender == manager, \"deleteResourceAttr error: Caller is not manager!\");\n        require(\n            resources[_resource][_attrName].isValued,\n            \"deleteResourceAttr error: Resource attribute not exist, don't need delete!\"\n        );\n        delete resources[_resource][_attrName];\n        rc.reputationCompute(msg.sender, false, 3, \"Resource attribute delete\", block.timestamp);\n    }\n\n    /// @dev addPolicy add a policy\n    ///   @notice We can't judge whether the added policy is unique, so there are security risks here\n    function addPolicy(\n        string memory _resource,\n        string memory _action,\n        string memory _attrOwner,\n        string memory _attrName,\n        string memory _operator,\n        string memory _attrValue,\n        uint _importance\n    ) \n        public \n    {\n        require(msg.sender == manager, \"addPolicy error: Caller is not manager!\");\n        policies[_resource][_action].push(\n            PolicyItem(_attrOwner, _attrName, _operator, _attrValue, _importance)\n        );\n        rc.reputationCompute(msg.sender, false, 1, \"Policy add\", block.timestamp);\n    }\n\n    /// @dev getPolicy get the policy associate with specified resource and action\n    function getPolicy(\n        string memory _resource,\n        string memory _action\n    ) \n        public \n        view \n        returns (\n            PolicyItem[] memory\n        ) \n    {\n        require(\n            policies[_resource][_action].length != 0, \n            \"getPolicy error: There is no policy for this resource and action at this time!\"\n        );\n        PolicyItem[] memory result = new PolicyItem[](policies[_resource][_action].length);\n        for (uint256 i = 0; i < policies[_resource][_action].length; i++) {\n            result[i] = PolicyItem(\n                policies[_resource][_action][i].attrOwner,\n                policies[_resource][_action][i].attrName,\n                policies[_resource][_action][i].operator,\n                policies[_resource][_action][i].attrValue,\n                policies[_resource][_action][i].importance\n            );\n        }\n        return result;\n    }\n    \n    /// @dev getPolicyItem get the policy item associate with specified attribute name\n    function getPolicyItem(\n        string memory _resource,\n        string memory _action,\n        string memory _attrName\n    ) \n        public \n        view \n        returns (\n            PolicyItem[] memory\n        ) \n    {\n        require(\n            policies[_resource][_action].length != 0, \n            \"getPolicyItem error: There is no policy for this resource and action at this time!\"\n        );\n        PolicyItem[] memory result = new PolicyItem[](policies[_resource][_action].length);\n        uint num = 0;\n        for (uint256 i = 0; i < policies[_resource][_action].length; i++) {\n            if (Utils.stringCompare(policies[_resource][_action][i].attrName, _attrName)) {\n                result[num] = PolicyItem(\n                    policies[_resource][_action][i].attrOwner,\n                    _attrName,\n                    policies[_resource][_action][i].operator,\n                    policies[_resource][_action][i].attrValue,\n                    policies[_resource][_action][i].importance\n                );\n                num++;\n            }\n        }\n        return result;\n    }\n    \n    /// @dev deletePolicy delete the policy associate with resource and specified action\n    function deletePolicy(string memory _resource, string memory _action) public {\n        require(msg.sender == manager, \"deletePolicy error: Caller is not manager!\");\n        require(\n            policies[_resource][_action].length != 0, \n            \"deletePolicy error: There is no policy for this resource and action at this time!\"\n        );\n        delete policies[_resource][_action];\n        rc.reputationCompute(msg.sender, false, 3, \"Policy delete\", block.timestamp);\n    }\n    \n    /// @dev deletePolicyItem delete the policy item associate with specified attribute name\n    function deletePolicyItem(string memory _resource, string memory _action, string memory _attrName) public {\n        require(msg.sender == manager, \"deletePolicyItem error: Caller is not manager!\");\n        require(\n            policies[_resource][_action].length != 0, \n            \"deletePolicyItem error: There is no policy for this resource and action at this time!\"\n        );\n        for (uint256 i = 0; i < policies[_resource][_action].length; i++) {\n            if (Utils.stringCompare(policies[_resource][_action][i].attrName, _attrName)) {\n                delete policies[_resource][_action][i];\n            }\n        }\n        rc.reputationCompute(msg.sender, false, 3, \"Policy item delete\", block.timestamp);\n    }\n\n    /// @dev stringToUint is a utility fucntion used for convert number string to uint\n    function stringToUint(string memory s) public pure returns (uint256 result) {\n        bytes memory b = bytes(s);\n        uint256 i;\n        result = 0;\n        for (i = 0; i < b.length; i++) {\n            uint8 c = uint8(b[i]);\n            if (c >= 48 && c <= 57) {\n                result = result * 10 + (c - 48);\n            }\n        }\n    }\n\n    /// @dev accessControl is core fucntion\n    function accessControl(string memory _resource, string memory _action) public returns (string memory) {\n        address subject = msg.sender;\n        require (\n            mc.getTimeofUnblock(subject) >= block.timestamp,\n            \"access error: Device is still blocked!\"\n        );\n        \n        PolicyItem memory current;\n        string memory _attrValue; \n        \n        bool policycheck;\n        bool behaviorcheck;\n        uint8 errcode;\n        bool[2] memory result; // result[0] record if a rule in policy match, result[1] record if a rule not match\n        string memory finalResult;\n        \n        // unblocked state\n        if ((block.timestamp - behaviors[subject].ToLR) <= evAttr.minInterval) {\n            behaviors[subject].NoFR++;\n            if (behaviors[subject].NoFR >= evAttr.threshold) {\n                behaviorcheck = true;\n            }\n        } else {\n            behaviors[subject].NoFR = 0;\n        } \n\n        // check policies\n        for (uint256 i = 0; i < policies[_resource][_action].length; i++) {\n            current.attrOwner = policies[_resource][_action][i].attrOwner;\n            current.attrName = policies[_resource][_action][i].attrName;\n            current.operator = policies[_resource][_action][i].operator;\n            current.attrValue = policies[_resource][_action][i].attrValue;\n\n            if (Utils.stringCompare(current.attrOwner,\"subject\")) {\n                if (Utils.stringCompare(current.attrName, \"deviceID\") || Utils.stringCompare(current.attrName, \"deviceType\") || Utils.stringCompare(current.attrName, \"deviceRole\")) {\n                    _attrValue = mc.getFixedAttribute(subject, current.attrName);\n                } else {\n                    _attrValue = mc.getCustomedAttribute(subject, current.attrName);\n                }\n            } else {\n                _attrValue = resources[_resource][current.attrName].value;\n            }\n\n            if (Utils.stringCompare(current.operator,\">\") && (stringToUint(_attrValue) <= stringToUint(current.attrValue))) {\n                result[1] = true;\n            } else {\n                result[0] = true;\n            }\n            if (Utils.stringCompare(current.operator,\"<\") && (stringToUint(_attrValue) >= stringToUint(current.attrValue))) {\n                result[1] = true;\n            } else {\n                result[0] = true;\n            }\n            if (Utils.stringCompare(current.operator,\"=\") && (!Utils.stringCompare(_attrValue,current.attrValue))) {\n                result[1] = true;\n            } else {\n                result[0] = true;\n            }\n            \n            if (result[1] && policies[_resource][_action][i].importance != 0) {\n                errcode = 4;\n            }\n        }\n\n        // determine policy check result when rules conflict\n        if (Utils.stringCompare(evAttr.algorithm, \"denyoverrides\") && result[1]) {\n            policycheck = true;\n        }\n        if (Utils.stringCompare(evAttr.algorithm, \"allowoverrides\") && result[0]) {\n            policycheck = false;\n        }\n        \n        if (policycheck && !behaviorcheck && errcode == 0) errcode = 1; // Static check failed!\n        if (!policycheck && behaviorcheck) errcode = 2; // Misbehavior detected!\n        if (policycheck && behaviorcheck) errcode = 3; // Static check failed and Misbehavior detected\n        \n        behaviors[subject].ToLR = block.timestamp;\n        // determine final result\n        if (policycheck || behaviorcheck) {\n            finalResult = \"deny\";\n        } else if (result[0] || result[1]) {\n            finalResult = \"allow\";\n        } else {\n            finalResult = \"NotDefine\";\n        }\n        \n        if (errcode == 0) {\n            rc.reputationCompute(subject, false, 4, \"Access authorized\", block.timestamp);\n            emit ReturnAccessResult(subject, true, \"Access authorized\", block.timestamp);\n        }\n        \n        if (errcode == 1) {\n            rc.reputationCompute(subject, true, 1, \"Too frequent access\", block.timestamp);\n            emit ReturnAccessResult(subject, false, \"Too frequent access\", block.timestamp);\n        }\n        \n        if (errcode == 2) {\n            rc.reputationCompute(subject, true, 2, \"Policy check failed\", block.timestamp);\n            emit ReturnAccessResult(subject, false, \"Policy check failed\", block.timestamp);\n        }\n        \n        if (errcode == 3) {\n            rc.reputationCompute(subject, true, 3, \"Policy check failed and Too frequent access\", block.timestamp);\n            emit ReturnAccessResult(subject, false, \"Policy check failed and Too frequent access\", block.timestamp);\n        }\n        if (errcode == 4) {\n            rc.reputationCompute(subject, true, 4, \"Importance check failed\", block.timestamp);\n            emit ReturnAccessResult(subject, false, \"Importance check failed\", block.timestamp);\n        }\n        return finalResult;\n    }\n\n    function deleteACC() public {\n        require(msg.sender == manager, \"Caller is not manager!\");\n        selfdestruct(msg.sender);\n    }\n}\n\n\nabstract contract ReputationA {\n    function reputationCompute(\n        address _subject, \n        bool _ismisbehavior,\n        uint8 _behaviorID,\n        string memory _behavior,\n        uint256  _time\n    ) virtual public;\n}\n\n\nabstract contract ManagementA {\n    function getTimeofUnblock(address _device)  public virtual returns (uint256);\n\n    function getFixedAttribute (\n        address _device, \n        string memory _attrName\n    ) public view virtual returns (string memory _attrValue);\n    \n    function getCustomedAttribute(\n        address _device, \n        string memory _attrName\n    ) public view virtual returns (string memory _attrValue);\n}\n",
  "sourcePath": "/home/shuzang/BBRAC-dev/contracts/AccessControl.sol",
  "compiler": {
    "name": "solc",
    "version": "0.7.0+commit.9e61f92b.Emscripten.clang"
  },
  "schemaVersion": "3.3.1",
  "updatedAt": "2020-11-02T10:07:40.381Z",
  "networkType": "ethereum",
  "devdoc": {
    "kind": "dev",
    "methods": {
      "accessControl(string,string)": {
        "details": "accessControl is core fucntion"
      },
      "addPolicy(string,string,string,string,string,string,uint256)": {
        "details": "addPolicy add a policy"
      },
      "addResourceAttr(string,string,string)": {
        "details": "addResourceAttr add resource attribute"
      },
      "constructor": {
        "details": "Set contract deployer as manager, set management and reputation contract address"
      },
      "deletePolicy(string,string)": {
        "details": "deletePolicy delete the policy associate with resource and specified action"
      },
      "deletePolicyItem(string,string,string)": {
        "details": "deletePolicyItem delete the policy item associate with specified attribute name"
      },
      "deleteResourceAttr(string,string)": {
        "details": "deleteResourceAttr delete the resource attribute"
      },
      "getPolicy(string,string)": {
        "details": "getPolicy get the policy associate with specified resource and action"
      },
      "getPolicyItem(string,string,string)": {
        "details": "getPolicyItem get the policy item associate with specified attribute name"
      },
      "getResourceAttr(string,string)": {
        "details": "getResourceAttr get resource attribute"
      },
      "stringToUint(string)": {
        "details": "stringToUint is a utility fucntion used for convert number string to uint"
      },
      "updateManager(address)": {
        "details": "updateManager update device manager, after that only new manager can operate this access control contract"
      },
      "updateResourceAttr(string,string,string)": {
        "details": "updateResourceAttr update resource attribute"
      },
      "updateSCAddr(string,address)": {
        "details": "updateSCAddr update management contract or reputation contract address"
      }
    },
    "version": 1
  },
  "userdoc": {
    "kind": "user",
    "methods": {
      "addPolicy(string,string,string,string,string,string,uint256)": {
        "notice": "We can't judge whether the added policy is unique, so there are security risks here"
      }
    },
    "version": 1
  }
}