{
  "contractName": "AccessControlMethod",
  "abi": [
    {
      "inputs": [
        {
          "internalType": "address",
          "name": "_subject",
          "type": "address"
        }
      ],
      "stateMutability": "nonpayable",
      "type": "constructor"
    },
    {
      "anonymous": false,
      "inputs": [
        {
          "indexed": true,
          "internalType": "address",
          "name": "_from",
          "type": "address"
        },
        {
          "indexed": false,
          "internalType": "string",
          "name": "_errmsg",
          "type": "string"
        },
        {
          "indexed": false,
          "internalType": "bool",
          "name": "_result",
          "type": "bool"
        },
        {
          "indexed": false,
          "internalType": "uint256",
          "name": "_time",
          "type": "uint256"
        },
        {
          "indexed": false,
          "internalType": "uint256",
          "name": "_penalty",
          "type": "uint256"
        }
      ],
      "name": "ReturnAccessResult",
      "type": "event"
    },
    {
      "inputs": [],
      "name": "jc",
      "outputs": [
        {
          "internalType": "contract JudgeA",
          "name": "",
          "type": "address"
        }
      ],
      "stateMutability": "view",
      "type": "function",
      "constant": true
    },
    {
      "inputs": [],
      "name": "object",
      "outputs": [
        {
          "internalType": "address",
          "name": "",
          "type": "address"
        }
      ],
      "stateMutability": "view",
      "type": "function",
      "constant": true
    },
    {
      "inputs": [],
      "name": "owner",
      "outputs": [
        {
          "internalType": "address",
          "name": "",
          "type": "address"
        }
      ],
      "stateMutability": "view",
      "type": "function",
      "constant": true
    },
    {
      "inputs": [],
      "name": "subject",
      "outputs": [
        {
          "internalType": "address",
          "name": "",
          "type": "address"
        }
      ],
      "stateMutability": "view",
      "type": "function",
      "constant": true
    },
    {
      "inputs": [
        {
          "internalType": "address",
          "name": "_jc",
          "type": "address"
        }
      ],
      "name": "setJC",
      "outputs": [],
      "stateMutability": "nonpayable",
      "type": "function"
    },
    {
      "inputs": [
        {
          "internalType": "bytes32",
          "name": "_resource",
          "type": "bytes32"
        },
        {
          "internalType": "bytes32",
          "name": "_action",
          "type": "bytes32"
        },
        {
          "internalType": "bytes32",
          "name": "_permission",
          "type": "bytes32"
        },
        {
          "internalType": "uint256",
          "name": "_minInterval",
          "type": "uint256"
        },
        {
          "internalType": "uint256",
          "name": "_threshold",
          "type": "uint256"
        }
      ],
      "name": "policyAdd",
      "outputs": [],
      "stateMutability": "nonpayable",
      "type": "function"
    },
    {
      "inputs": [
        {
          "internalType": "bytes32",
          "name": "_resource",
          "type": "bytes32"
        },
        {
          "internalType": "bytes32",
          "name": "_action",
          "type": "bytes32"
        }
      ],
      "name": "getPolicy",
      "outputs": [
        {
          "internalType": "bytes32",
          "name": "_permission",
          "type": "bytes32"
        },
        {
          "internalType": "uint256",
          "name": "_minInterval",
          "type": "uint256"
        },
        {
          "internalType": "uint256",
          "name": "_threshold",
          "type": "uint256"
        },
        {
          "internalType": "uint256",
          "name": "_ToLR",
          "type": "uint256"
        },
        {
          "internalType": "uint256",
          "name": "_NoFR",
          "type": "uint256"
        },
        {
          "internalType": "bool",
          "name": "_res",
          "type": "bool"
        },
        {
          "internalType": "uint8",
          "name": "_errcode",
          "type": "uint8"
        }
      ],
      "stateMutability": "view",
      "type": "function",
      "constant": true
    },
    {
      "inputs": [
        {
          "internalType": "bytes32",
          "name": "_resource",
          "type": "bytes32"
        },
        {
          "internalType": "bytes32",
          "name": "_action",
          "type": "bytes32"
        },
        {
          "internalType": "bytes32",
          "name": "_newPermission",
          "type": "bytes32"
        }
      ],
      "name": "policyUpdate",
      "outputs": [],
      "stateMutability": "nonpayable",
      "type": "function"
    },
    {
      "inputs": [
        {
          "internalType": "bytes32",
          "name": "_resource",
          "type": "bytes32"
        },
        {
          "internalType": "bytes32",
          "name": "_action",
          "type": "bytes32"
        },
        {
          "internalType": "uint256",
          "name": "_newMinInterval",
          "type": "uint256"
        }
      ],
      "name": "minIntervalUpdate",
      "outputs": [],
      "stateMutability": "nonpayable",
      "type": "function"
    },
    {
      "inputs": [
        {
          "internalType": "bytes32",
          "name": "_resource",
          "type": "bytes32"
        },
        {
          "internalType": "bytes32",
          "name": "_action",
          "type": "bytes32"
        },
        {
          "internalType": "uint256",
          "name": "_newThreshold",
          "type": "uint256"
        }
      ],
      "name": "thresholdUpdate",
      "outputs": [],
      "stateMutability": "nonpayable",
      "type": "function"
    },
    {
      "inputs": [
        {
          "internalType": "bytes32",
          "name": "_resource",
          "type": "bytes32"
        },
        {
          "internalType": "bytes32",
          "name": "_action",
          "type": "bytes32"
        }
      ],
      "name": "policyDelete",
      "outputs": [],
      "stateMutability": "nonpayable",
      "type": "function"
    },
    {
      "inputs": [
        {
          "internalType": "bytes32",
          "name": "_resource",
          "type": "bytes32"
        },
        {
          "internalType": "bytes32",
          "name": "_action",
          "type": "bytes32"
        },
        {
          "internalType": "uint256",
          "name": "_time",
          "type": "uint256"
        }
      ],
      "name": "accessControl",
      "outputs": [],
      "stateMutability": "nonpayable",
      "type": "function"
    },
    {
      "inputs": [
        {
          "internalType": "bytes32",
          "name": "_resource",
          "type": "bytes32"
        }
      ],
      "name": "getTimeofUnblock",
      "outputs": [
        {
          "internalType": "uint256",
          "name": "_penalty",
          "type": "uint256"
        },
        {
          "internalType": "uint256",
          "name": "_timeOfUnblock",
          "type": "uint256"
        }
      ],
      "stateMutability": "view",
      "type": "function",
      "constant": true
    },
    {
      "inputs": [],
      "name": "deleteACC",
      "outputs": [],
      "stateMutability": "nonpayable",
      "type": "function"
    }
  ],
  "bytecode": "0x608060405234801561001057600080fd5b506040516111613803806111618339818101604052602081101561003357600080fd5b50516000805433600160a060020a031991821681178355600280548316909117905560018054909116600160a060020a03909316929092179091556110e390819061007e90396000f3fe608060405234801561001057600080fd5b5060043610610107576000357c0100000000000000000000000000000000000000000000000000000000900480636d408f48116100a9578063a1c53b1311610083578063a1c53b131461028d578063d3b334b8146102b0578063f5d9168d146102b8578063f815eec0146102e157610107565b80636d408f481461022757806377c6adda146102505780638da5cb5b1461028557610107565b806328885b60116100e557806328885b601461019857806345a5b82d146101c0578063560a9145146101c85780635da39179146101fe57610107565b80630a59a98c1461010c5780632654083f146101305780632812988f14610190575b600080fd5b61011461030a565b60408051600160a060020a039092168252519081900360200190f35b6101536004803603604081101561014657600080fd5b5080359060200135610319565b6040805197885260208801969096528686019490945260608601929092526080850152151560a084015260ff1660c0830152519081900360e00190f35b6101146103d9565b6101be600480360360208110156101ae57600080fd5b5035600160a060020a03166103e8565b005b610114610463565b6101e5600480360360208110156101de57600080fd5b5035610472565b6040805192835260208301919091528051918290030190f35b6101be6004803603606081101561021457600080fd5b50803590602081013590604001356104b0565b6101be6004803603606081101561023d57600080fd5b508035906020810135906040013561052e565b6101be600480360360a081101561026657600080fd5b5080359060208101359060408101359060608101359060800135610bab565b610114610ce5565b6101be600480360360408110156102a357600080fd5b5080359060200135610cf4565b6101be610e08565b6101be600480360360608110156102ce57600080fd5b5080359060208101359060400135610e6d565b6101be600480360360608110156102f757600080fd5b5080359060208101359060400135610eeb565b600154600160a060020a031681565b600082815260046020908152604080832084845290915281205481908190819081908190819060ff16610384576040805160e560020a62461bcd0281526020600482015260116024820152600080516020611062833981519152604482015290519081900360640190fd5b5050506000958652505060046020818152604080872095875294905292909320600181015460028201546005830154948301546003840154600690940154929791965092935060ff8083169261010090041690565b600254600160a060020a031681565b600054600160a060020a031633146104345760405160e560020a62461bcd02815260040180806020018281038252602381526020018061101f6023913960400191505060405180910390fd5b6003805473ffffffffffffffffffffffffffffffffffffffff1916600160a060020a0392909216919091179055565b600354600160a060020a031681565b60008181526005602052604081208054600182015491600019820182811061049657fe5b906000526020600020906005020160040154925050915091565b600083815260046020908152604080832085845290915290205460ff1661050f576040805160e560020a62461bcd0281526020600482015260116024820152600080516020611062833981519152604482015290519081900360640190fd5b6000928352600460209081526040808520938552929052912060050155565b600180546000919082908190600160a060020a03163314156108ba57600087815260056020526040902060010154851161056b5760019150610896565b600087815260056020526040902060010154156105b457600087815260056020908152604080832060010183905560048083528184208a85529092528220908101829055600301555b60008781526004602090815260408083208984528252918290206001015482518083019190915282518082038301815290830190925281519101207fbcec4be69db00d4d20952ae27cd2494b0e3bf401159e19fb6165a3f0849ef940141561061f5760019350610624565b600093505b60008781526004602090815260408083208984529091529020600281015460039091015486031161083a5760008781526004602081815260408084208a85529091529091209081018054600101908190556005909101541161083557600354600154600254604080517ff995bd7d000000000000000000000000000000000000000000000000000000008152600160a060020a0393841660048201529183166024830152604482018b9052606482018a905260a4820189905260c06084830152601460c48301527f546f6f206672657175656e74206163636573732100000000000000000000000060e483015251919092169163f995bd7d916101048083019260209291908290030181600087803b15801561073f57600080fd5b505af1158015610753573d6000803e3d6000fd5b505050506040513d602081101561076957600080fd5b50516000888152600560208181526040808420603c86028b01600180830191909155825160a0810184528e81528085018e815284518086018652601481527f546f6f206672657175656e74206163636573732100000000000000000000000081880152948201948552606082018e90526080820189905283548084018555938852858820825194909702909601928355945190820155905180519498509495509193919261081d9260028501920190610f69565b50606082015181600301556080820151816004015550505b610856565b60008781526004602081815260408084208a8552909152822001555b831580156108615750825b1561086b57600291505b838015610876575082155b1561088057600391505b8315801561088c575082155b1561089657600491505b600087815260046020908152604080832089845290915290206003018590556108bf565b600591505b8380156108c95750825b60008881526004602090815260408083208a84529091529020600601805460ff19169115159190911761ff00191661010060ff8516908102919091179091556109735760408051600160208201528082018790526060810183905260808082526012908201527f41636365737320617574686f72697a656421000000000000000000000000000060a082015290513391600080516020611042833981519152919081900360c00190a25b8160ff16600114156109e65760408051600060208201528082018790526060810183905260808082526015908201527f52657175657374732061726520626c6f636b656421000000000000000000000060a082015290513391600080516020611042833981519152919081900360c00190a25b8160ff1660021415610a595760408051600060208201528082018790526060810183905260808082526014908201527f53746174696320436865636b206661696c65642100000000000000000000000060a082015290513391600080516020611042833981519152919081900360c00190a25b8160ff1660031415610acc5760408051600060208201528082018790526060810183905260808082526015908201527f4d69736265686176696f7220646574656374656421000000000000000000000060a082015290513391600080516020611042833981519152919081900360c00190a25b8160ff1660041415610b375733600160a060020a031660008051602061104283398151915260008784604051808060200185151581526020018481526020018381526020018281038252602c815260200180611082602c913960400194505050505060405180910390a25b8160ff1660051415610ba25733600160a060020a0316600080516020611042833981519152600087846040518080602001851515815260200184815260200183815260200182810382526022815260200180610ffd6022913960400194505050505060405180910390a25b50505050505050565b600054600160a060020a03163314610c0d576040805160e560020a62461bcd02815260206004820152601a60248201527f4f6e6c79206f776e65722063616e2061646420706f6c69637921000000000000604482015290519081900360640190fd5b600085815260046020908152604080832087845290915290205460ff1615610c7f576040805160e560020a62461bcd02815260206004820152601560248201527f706f6c69637920616c7265616479206578697374210000000000000000000000604482015290519081900360640190fd5b6000858152600460208181526040808420978452968152868320600180820197909755600281019590955560058086019490945560038501839055908401829055835460ff19908116861785556006909401805490941690935594855290529082200155565b600054600160a060020a031681565b600054600160a060020a03163314610d56576040805160e560020a62461bcd02815260206004820152601d60248201527f4f6e6c79206f776e65722063616e2064656c65746520706f6c69637921000000604482015290519081900360640190fd5b600082815260046020908152604080832084845290915290205460ff16610db5576040805160e560020a62461bcd0281526020600482015260116024820152600080516020611062833981519152604482015290519081900360640190fd5b6000918252600460208181526040808520938552929052908220805460ff191681556001810183905560028101839055600381018390559081018290556005810191909155600601805461ffff19169055565b600054600160a060020a03163314610e6a576040805160e560020a62461bcd02815260206004820152601a60248201527f4f6e6c79206f776e65722063616e2064656c6574652041434321000000000000604482015290519081900360640190fd5b33ff5b600083815260046020908152604080832085845290915290205460ff16610ecc576040805160e560020a62461bcd0281526020600482015260116024820152600080516020611062833981519152604482015290519081900360640190fd5b6000928352600460209081526040808520938552929052912060020155565b600083815260046020908152604080832085845290915290205460ff16610f4a576040805160e560020a62461bcd0281526020600482015260116024820152600080516020611062833981519152604482015290519081900360640190fd5b6000928352600460209081526040808520938552929052912060010155565b828054600181600116156101000203166002900490600052602060002090601f016020900481019282601f10610faa57805160ff1916838001178555610fd7565b82800160010185558215610fd7579182015b82811115610fd7578251825591602001919060010190610fbc565b50610fe3929150610fe7565b5090565b5b80821115610fe35760008155600101610fe856fe57726f6e67206f626a656374206f72207375626a65637420737065636966696564214f6e6c79206f776e65722063616e2073657420746865204a4320696e7374616e636521ff92c090738d04f6256126fa734cbbd01d7fd4e82b501873433f2208134a0860706f6c696379206e6f742065786973742100000000000000000000000000000053746174696320636865636b206661696c6564212026204d69736265686176696f7220646574656374656421a2646970667358221220dfd64f3f2ee335517c4401191c7616bf6dcd2f3ab70cff7b28b11df7a6a127d564736f6c63430007000033",
  "immutableReferences": {},
  "source": "// SPDX-License-Identifier:MIT\r\npragma solidity ^0.7.0;\r\n\r\ncontract AccessControlMethod{\r\n    address public owner;\r\n    address public subject;\r\n    address public object;\r\n    JudgeA public jc;\r\n    \r\n    event ReturnAccessResult(\r\n        address indexed _from,\r\n        string _errmsg,\r\n        bool _result,\r\n        uint _time,\r\n        uint _penalty\r\n    );\r\n    \r\n    struct Misbehavior{\r\n        bytes32 res;   //resource on which the misbehavior is conducted\r\n        bytes32 action;   //action (e.g., \"read\", \"write\", \"execute\") of the misbehavior\r\n        string misbehavior;   //misbehavior\r\n        uint time;   //time of the misbehavior occured\r\n        uint penalty;   //penalty opposed to the subject (number of minutes blocked)\r\n    }\r\n    \r\n    struct BehaviorItem{   //for one resource\r\n        Misbehavior []mbs;   //misbehavior list of the subject on a particular resource\r\n        uint TimeofUnblock;   //time when the resource is unblocked (0 if unblocked, otherwise, blocked)\r\n    }\r\n    \r\n    struct PolicyItem{ //for one (resource, action) pair;\r\n        bool isValued; //for duplicate check\r\n        bytes32 permission; //permission: \"allow\" or \"deny\"\r\n        uint minInterval; //minimum allowable interval (in seconds) between two successive requests\r\n        uint ToLR; //Time of Last Request\r\n        uint NoFR; //Number of frequent Requests in a short period of time\r\n        uint threshold; //threshold on NoFR, above which a misbehavior is suspected\r\n        bool result; //last access result\r\n        uint8 err; //last err code\r\n    }\r\n    \r\n    mapping (bytes32 => mapping(bytes32 => PolicyItem)) policies; //mapping (resource, action) =>PolicyCriteria for policy check\r\n    mapping (bytes32 => BehaviorItem) behaviors; //mapping resource => BehaviorCriteria for behavior check\r\n    \r\n    \r\n    constructor (address _subject) {\r\n        owner = msg.sender;\r\n        object = msg.sender;\r\n        subject = _subject;\r\n    }\r\n    \r\n    function setJC(address _jc) public {\r\n        require(\r\n            owner == msg.sender,\r\n            \"Only owner can set the JC instance!\"\r\n        );\r\n        jc = JudgeA(_jc);\r\n    }\r\n    \r\n    function policyAdd(bytes32 _resource, bytes32 _action, bytes32 _permission, uint _minInterval, uint _threshold) public {\r\n        require(\r\n            msg.sender == owner,\r\n            \"Only owner can add policy!\"\r\n        );\r\n        require(\r\n            !policies[_resource][_action].isValued,\r\n            \"policy already exist!\"\r\n        );\r\n\r\n        policies[_resource][_action].permission = _permission;\r\n        policies[_resource][_action].minInterval = _minInterval;\r\n        policies[_resource][_action].threshold = _threshold;\r\n        policies[_resource][_action].ToLR = 0;\r\n        policies[_resource][_action].NoFR = 0;\r\n        policies[_resource][_action].isValued = true;\r\n        policies[_resource][_action].result = false;\r\n        behaviors[_resource].TimeofUnblock = 0;\r\n    }\r\n    \r\n    function getPolicy(bytes32 _resource, bytes32 _action) public view \r\n        returns (bytes32 _permission, uint _minInterval, uint _threshold, uint _ToLR, uint _NoFR, bool _res, uint8 _errcode) \r\n    {\r\n        require(\r\n            policies[_resource][_action].isValued,\r\n            \"policy not exist!\"\r\n        );\r\n        _permission = policies[_resource][_action].permission;\r\n        _minInterval = policies[_resource][_action].minInterval;\r\n        _threshold = policies[_resource][_action].threshold;\r\n        _NoFR = policies[_resource][_action].NoFR;\r\n        _ToLR = policies[_resource][_action].ToLR;\r\n        _res = policies[_resource][_action].result;\r\n        _errcode = policies[_resource][_action].err;\r\n    }\r\n     \r\n    function policyUpdate(bytes32 _resource, bytes32 _action, bytes32 _newPermission) public {\r\n        require(\r\n            policies[_resource][_action].isValued,\r\n            \"policy not exist!\"\r\n        );\r\n        policies[_resource][_action].permission = _newPermission;\r\n    }\r\n     \r\n    function minIntervalUpdate(bytes32 _resource, bytes32 _action, uint _newMinInterval) public {\r\n        require(\r\n            policies[_resource][_action].isValued,\r\n            \"policy not exist!\"\r\n        ); \r\n        policies[_resource][_action].minInterval = _newMinInterval;\r\n    }\r\n     \r\n     function thresholdUpdate(bytes32 _resource, bytes32 _action, uint _newThreshold) public {\r\n        require(\r\n            policies[_resource][_action].isValued,\r\n            \"policy not exist!\"\r\n        ); \r\n        policies[_resource][_action].threshold = _newThreshold;\r\n     }\r\n     \r\n    function policyDelete(bytes32 _resource, bytes32 _action) public {\r\n        require(\r\n            msg.sender == owner,\r\n            \"Only owner can delete policy!\"\r\n        );\r\n        require(\r\n            policies[_resource][_action].isValued,\r\n            \"policy not exist!\"\r\n        );\r\n        delete policies[_resource][_action];\r\n    }\r\n     \r\n    //Use event\r\n    function accessControl(bytes32 _resource, bytes32 _action, uint _time) public {\r\n        bool policycheck = false;\r\n        bool behaviorcheck = true;\r\n        uint8 errcode = 0;\r\n        uint penalty = 0;\r\n         \r\n        if(msg.sender == subject) {\r\n            if(behaviors[_resource].TimeofUnblock >= _time) {//still blocked state\r\n                errcode = 1; //\"Requests are blocked!\"\r\n            }\r\n            else {//unblocked state\r\n                if(behaviors[_resource].TimeofUnblock > 0) {\r\n                    behaviors[_resource].TimeofUnblock = 0;\r\n                    policies[_resource][_action].NoFR = 0;\r\n                    policies[_resource][_action].ToLR = 0;\r\n                }\r\n                //policy check\r\n                if(keccak256(\"allow\") == keccak256(abi.encodePacked(policies[_resource][_action].permission))) {\r\n                    policycheck = true;\r\n                }\r\n                else {\r\n                    policycheck = false;\r\n                }\r\n                //behavior check\r\n                if ((_time - policies[_resource][_action].ToLR) <= policies[_resource][_action].minInterval) {\r\n                    policies[_resource][_action].NoFR++;\r\n                    if(policies[_resource][_action].NoFR >= policies[_resource][_action].threshold){\r\n                        penalty = jc.misbehaviorJudge(subject, object, _resource, _action, \"Too frequent access!\", _time);\r\n                        behaviorcheck = false;\r\n                        behaviors[_resource].TimeofUnblock = _time + penalty * 60;\r\n                        behaviors[_resource].mbs.push(Misbehavior(_resource,_action, \"Too frequent access!\", _time, penalty));\r\n                    }\r\n                }\r\n                else {\r\n                    policies[_resource][_action].NoFR = 0;\r\n                }\r\n                if(!policycheck && behaviorcheck) errcode = 2; //Static check failed!\r\n                if(policycheck && !behaviorcheck) errcode = 3; //Misbehavior detected!\r\n                if(!policycheck && !behaviorcheck) errcode = 4; //Static check failed and Misbehavior detected\r\n            }\r\n            policies[_resource][_action].ToLR = _time;\r\n        }\r\n        else {\r\n            errcode = 5; //Wrong object or subject detected;\r\n        }\r\n        policies[_resource][_action].result = policycheck && behaviorcheck;\r\n        policies[_resource][_action].err = errcode;\r\n        if(0 == errcode) emit ReturnAccessResult(msg.sender, \"Access authorized!\", true, _time, penalty);\r\n        if(1 == errcode) emit ReturnAccessResult(msg.sender, \"Requests are blocked!\", false, _time, penalty);\r\n        if(2 == errcode) emit ReturnAccessResult(msg.sender, \"Static Check failed!\", false, _time, penalty);\r\n        if(3 == errcode) emit ReturnAccessResult(msg.sender, \"Misbehavior detected!\", false, _time, penalty);\r\n        if(4 == errcode) emit ReturnAccessResult(msg.sender, \"Static check failed! & Misbehavior detected!\", false, _time, penalty);\r\n        if(5 == errcode) emit ReturnAccessResult(msg.sender, \"Wrong object or subject specified!\", false, _time, penalty);\r\n     }\r\n     \r\n    function getTimeofUnblock(bytes32 _resource) public view returns (uint _penalty, uint _timeOfUnblock) {\r\n        uint l = behaviors[_resource].mbs.length; \r\n        _timeOfUnblock = behaviors[_resource].TimeofUnblock;\r\n        _penalty = behaviors[_resource].mbs[l-1].penalty;\r\n    }\r\n     \r\n    function deleteACC() public {\r\n        require(\r\n            msg.sender == owner,\r\n            \"Only owner can delete ACC!\"\r\n        );\r\n        selfdestruct(msg.sender);\r\n    }\r\n}\r\n\r\n\r\nabstract contract JudgeA {\r\n    function misbehaviorJudge(address _subject, address _object, bytes32 _res, bytes32 _action, string memory _misbehavior, uint _time) public virtual returns (uint);\r\n}",
  "sourcePath": "/home/shuzang/BBRAC-dev/contracts/ACC.sol",
  "compiler": {
    "name": "solc",
    "version": "0.7.0+commit.9e61f92b.Emscripten.clang"
  },
  "schemaVersion": "3.3.1",
  "updatedAt": "2020-11-03T03:36:56.706Z",
  "networkType": "ethereum",
  "devdoc": {
    "kind": "dev",
    "methods": {},
    "version": 1
  },
  "userdoc": {
    "kind": "user",
    "methods": {},
    "version": 1
  }
}