{
  "contractName": "AccessControl",
  "abi": [
    {
      "inputs": [
        {
          "internalType": "address",
          "name": "_sc",
          "type": "address"
        },
        {
          "internalType": "address",
          "name": "_oc",
          "type": "address"
        }
      ],
      "stateMutability": "nonpayable",
      "type": "constructor"
    },
    {
      "anonymous": false,
      "inputs": [
        {
          "indexed": true,
          "internalType": "address",
          "name": "_from",
          "type": "address"
        },
        {
          "indexed": false,
          "internalType": "address",
          "name": "_to",
          "type": "address"
        },
        {
          "indexed": false,
          "internalType": "string",
          "name": "_resource",
          "type": "string"
        },
        {
          "indexed": false,
          "internalType": "string",
          "name": "_action",
          "type": "string"
        },
        {
          "indexed": false,
          "internalType": "uint256",
          "name": "_time",
          "type": "uint256"
        },
        {
          "indexed": false,
          "internalType": "string",
          "name": "_result",
          "type": "string"
        }
      ],
      "name": "ReturnAccessResult",
      "type": "event"
    },
    {
      "inputs": [],
      "name": "EA",
      "outputs": [
        {
          "internalType": "string",
          "name": "",
          "type": "string"
        }
      ],
      "stateMutability": "view",
      "type": "function",
      "constant": true
    },
    {
      "inputs": [
        {
          "internalType": "address",
          "name": "",
          "type": "address"
        }
      ],
      "name": "deviceToPC",
      "outputs": [
        {
          "internalType": "address",
          "name": "",
          "type": "address"
        }
      ],
      "stateMutability": "view",
      "type": "function",
      "constant": true
    },
    {
      "inputs": [],
      "name": "oc",
      "outputs": [
        {
          "internalType": "contract ObjectA",
          "name": "",
          "type": "address"
        }
      ],
      "stateMutability": "view",
      "type": "function",
      "constant": true
    },
    {
      "inputs": [],
      "name": "owner",
      "outputs": [
        {
          "internalType": "address",
          "name": "",
          "type": "address"
        }
      ],
      "stateMutability": "view",
      "type": "function",
      "constant": true
    },
    {
      "inputs": [],
      "name": "pc",
      "outputs": [
        {
          "internalType": "contract PolicyA",
          "name": "",
          "type": "address"
        }
      ],
      "stateMutability": "view",
      "type": "function",
      "constant": true
    },
    {
      "inputs": [],
      "name": "sc",
      "outputs": [
        {
          "internalType": "contract SubjectA",
          "name": "",
          "type": "address"
        }
      ],
      "stateMutability": "view",
      "type": "function",
      "constant": true
    },
    {
      "inputs": [
        {
          "internalType": "string",
          "name": "_ea",
          "type": "string"
        }
      ],
      "name": "setEA",
      "outputs": [],
      "stateMutability": "nonpayable",
      "type": "function"
    },
    {
      "inputs": [
        {
          "internalType": "address",
          "name": "_device",
          "type": "address"
        },
        {
          "internalType": "address",
          "name": "_pc",
          "type": "address"
        }
      ],
      "name": "setObjectPolicyAddress",
      "outputs": [],
      "stateMutability": "nonpayable",
      "type": "function"
    },
    {
      "inputs": [
        {
          "internalType": "address",
          "name": "_object",
          "type": "address"
        },
        {
          "internalType": "string",
          "name": "_resource",
          "type": "string"
        },
        {
          "internalType": "string",
          "name": "_action",
          "type": "string"
        }
      ],
      "name": "accessControl",
      "outputs": [
        {
          "internalType": "string",
          "name": "",
          "type": "string"
        }
      ],
      "stateMutability": "nonpayable",
      "type": "function"
    },
    {
      "inputs": [
        {
          "internalType": "string",
          "name": "s",
          "type": "string"
        }
      ],
      "name": "stringToUint",
      "outputs": [
        {
          "internalType": "uint256",
          "name": "result",
          "type": "uint256"
        }
      ],
      "stateMutability": "pure",
      "type": "function",
      "constant": true
    },
    {
      "inputs": [
        {
          "internalType": "string",
          "name": "_a",
          "type": "string"
        },
        {
          "internalType": "string",
          "name": "_b",
          "type": "string"
        }
      ],
      "name": "strConcat",
      "outputs": [
        {
          "internalType": "string",
          "name": "",
          "type": "string"
        }
      ],
      "stateMutability": "pure",
      "type": "function",
      "constant": true
    }
  ],
  "bytecode": "0x608060405234801561001057600080fd5b506040516200166e3803806200166e8339810160408190526100319161006d565b60008054600160a060020a0319908116331790915560018054600160a060020a03948516908316179055600280549290931691161790556100be565b6000806040838503121561007f578182fd5b825161008a816100a6565b602084015190925061009b816100a6565b809150509250929050565b600160a060020a03811681146100bb57600080fd5b50565b6115a080620000ce6000396000f3fe608060405234801561001057600080fd5b50600436106100ad5760003560e060020a900480639c783cd0116100755780639c783cd014610120578063cec5837d14610133578063dd0c864314610148578063e69919ae14610150578063e7d3870314610158578063ff74927b1461016b576100ad565b80631bd95155146100b257806326383342146100db57806376a0951d146100f05780638d505420146101105780638da5cb5b14610118575b600080fd5b6100c56100c03660046110b9565b61017e565b6040516100d291906114c6565b60405180910390f35b6100e36101f1565b6040516100d2919061136f565b6101036100fe366004610ff1565b61027f565b6040516100d291906112e7565b61010361029a565b6101036102a9565b6100e361012e366004611047565b6102b8565b610146610141366004611013565b610b5b565b005b610103610be1565b610103610bf0565b6101466101663660046110b9565b610bff565b6100e3610179366004611127565b610c5a565b600081815b81518110156101ea57600082828151811061019a57fe5b602001015160f860020a900460f860020a0260f860020a9004905060308160ff16101580156101cd575060398160ff1611155b156101e1576030810360ff1684600a020193505b50600101610183565b5050919050565b6004805460408051602060026001851615610100026000190190941693909304601f810184900484028201840190925281815292918301828280156102775780601f1061024c57610100808354040283529160200191610277565b820191906000526020600020905b81548152906001019060200180831161025a57829003601f168201915b505050505081565b600560205260009081526040902054600160a060020a031681565b600254600160a060020a031681565b600054600160a060020a031681565b600160a060020a038084166000908152600560205260409020546060918291829182918291166102e6610e4d565b6102ee610e74565b6102f6610e8d565b6001546040517fd13020d3000000000000000000000000000000000000000000000000000000008152606091600160a060020a03169063d13020d3906103409033906004016112e7565b60006040518083038186803b15801561035857600080fd5b505afa15801561036c573d6000803e3d6000fd5b505050506040513d6000823e601f3d908101601f1916820160405261039491908101906110f4565b9850600160009054906101000a9004600160a060020a0316600160a060020a031663c273319e338f6040518363ffffffff1660e060020a0281526004016103dc9291906112fb565b60006040518083038186803b1580156103f457600080fd5b505afa158015610408573d6000803e3d6000fd5b505050506040513d6000823e601f3d908101601f1916820160405261043091908101906110f4565b975061043c8989610c5a565b9650600260009054906101000a9004600160a060020a0316600160a060020a0316638c9a876f8e6040518263ffffffff1660e060020a02815260040161048291906112e7565b60006040518083038186803b15801561049a57600080fd5b505afa1580156104ae573d6000803e3d6000fd5b505050506040513d6000823e601f3d908101601f191682016040526104d691908101906110f4565b6003805473ffffffffffffffffffffffffffffffffffffffff1916600160a060020a0388811691909117918290556040517f2e06aac60000000000000000000000000000000000000000000000000000000081529298501690632e06aac690610545908f908f90600401611382565b60006040518083038186803b15801561055d57600080fd5b505afa158015610571573d6000803e3d6000fd5b505050506040513d6000823e601f3d908101601f191682016040526105999190810190611188565b846000602002018560016020020182905282905250506000600360009054906101000a9004600160a060020a0316600160a060020a031663fb89f2938e8e6040518363ffffffff1660e060020a0281526004016105f7929190611382565b60206040518083038186803b15801561060f57600080fd5b505afa158015610623573d6000803e3d6000fd5b505050506040513d601f19601f820116820180604052508101906106479190611287565b905060005b8181101561089257600360009054906101000a9004600160a060020a0316600160a060020a031663575b65c68f8f846040518463ffffffff1660e060020a02815260040161069c939291906113b0565b60006040518083038186803b1580156106b457600080fd5b505afa1580156106c8573d6000803e3d6000fd5b505050506040513d6000823e601f3d908101601f191682016040526106f091908101906111df565b60608a01526040890152602088015280875261070c908a610d74565b8015610722575060208601516107229089610d74565b80156107c25750604080870151600480548351602060026001841615610100026000190190931692909204601f81018390048302820183019095528481526107c2949092918301828280156107b85780601f1061078d576101008083540402835291602001916107b8565b820191906000526020600020905b81548152906001019060200180831161079b57829003601f168201915b5050505050610d74565b15610852576107f88660035b602002015160405180604001604052806004815260200160e060020a6364656e7902815250610d74565b1561082257604080518082019091526004815260e060020a6364656e79026020820152845261084d565b604080518082019091526005815260008051602061154b833981519152602082015284600160200201525b61088a565b604080518082018252600d81527f4e6f744170706c696361626c65000000000000000000000000000000000000006020820152908501525b60010161064c565b506108d984600160200201516040518060400160405280600d81526020017f64656e796f766572726964657300000000000000000000000000000000000000815250610d74565b156109b3576108e98360006107ce565b156109155760405180604001604052806004815260200160e060020a6364656e790281525091506109b3565b61094a8360015b602002015160405180604001604052806005815260200160008051602061154b833981519152815250610d74565b1561097a5760405180604001604052806005815260200160008051602061154b83398151915281525091506109b3565b6040518060400160405280600d81526020017f4e6f744170706c696361626c650000000000000000000000000000000000000081525091505b6109f984600160200201516040518060400160405280600e81526020017f616c6c6f776f7665727269646573000000000000000000000000000000000000815250610d74565b8015610a0b5750610a0b83600161091c565b15610abb57610a1b83600161091c565b15610a4b5760405180604001604052806005815260200160008051602061154b8339815191528152509150610abb565b610a568360006107ce565b15610a825760405180604001604052806004815260200160e060020a6364656e79028152509150610abb565b6040518060400160405280600d81526020017f4e6f744170706c696361626c650000000000000000000000000000000000000081525091505b835160408051808201909152600681527f7265636f726400000000000000000000000000000000000000000000000000006020820152610afb9190610d74565b15610b4a5733600160a060020a03167fd6776c4c8e52e8a58a52688d813f438e0d5c522a289d85bd1cbe4e62c00e744b8f8f8f4287604051610b41959493929190611315565b60405180910390a25b509c9b505050505050505050505050565b33600160a060020a03831614610ba6576040517f08c379a0000000000000000000000000000000000000000000000000000000008152600401610b9d906113e6565b60405180910390fd5b600160a060020a039182166000908152600560205260409020805473ffffffffffffffffffffffffffffffffffffffff191691909216179055565b600154600160a060020a031681565b600354600160a060020a031681565b600054600160a060020a03163314610c43576040517f08c379a0000000000000000000000000000000000000000000000000000000008152600401610b9d90611469565b8051610c56906004906020840190610ea7565b5050565b805182516060918491849184910167ffffffffffffffff81118015610c7e57600080fd5b506040519080825280601f01601f191660200182016040528015610ca9576020820181803683370190505b509050806000805b8551811015610d0957858181518110610cc657fe5b602001015160f860020a900460f860020a02838380600101945081518110610cea57fe5b6020010190600160f860020a031916908160001a905350600101610cb1565b5060005b8451811015610d6557848181518110610d2257fe5b602001015160f860020a900460f860020a02838380600101945081518110610d4657fe5b6020010190600160f860020a031916908160001a905350600101610d0d565b50919450505050505b92915050565b805182516000918491849114610d8f57600092505050610d6e565b815160011415610df55780600081518110610da657fe5b602001015160f860020a900460f860020a02600160f860020a03191682600081518110610dcf57fe5b602001015160f860020a900460f860020a02600160f860020a0319161492505050610d6e565b83604051602001610e0691906112cb565b6040516020818303038152906040528051906020012085604051602001610e2d91906112cb565b604051602081830303815290604052805190602001201492505050610d6e565b60405180608001604052806004905b6060815260200190600190039081610e5c5790505090565b6040805180820190915260608152600160208201610e5c565b604080516060808201909252908152600260208201610e5c565b828054600181600116156101000203166002900490600052602060002090601f016020900481019282601f10610ee857805160ff1916838001178555610f15565b82800160010185558215610f15579182015b82811115610f15578251825591602001919060010190610efa565b50610f21929150610f25565b5090565b5b80821115610f215760008155600101610f26565b8035600160a060020a0381168114610d6e57600080fd5b600082601f830112610f61578081fd5b8135610f74610f6f826114f6565b6114cf565b9150808252836020828501011115610f8b57600080fd5b8060208401602084013760009082016020015292915050565b600082601f830112610fb4578081fd5b8151610fc2610f6f826114f6565b9150808252836020828501011115610fd957600080fd5b610fea81602084016020860161151a565b5092915050565b600060208284031215611002578081fd5b61100c8383610f3a565b9392505050565b60008060408385031215611025578081fd5b61102f8484610f3a565b915061103e8460208501610f3a565b90509250929050565b60008060006060848603121561105b578081fd5b6110658585610f3a565b9250602084013567ffffffffffffffff80821115611081578283fd5b61108d87838801610f51565b935060408601359150808211156110a2578283fd5b506110af86828701610f51565b9150509250925092565b6000602082840312156110ca578081fd5b813567ffffffffffffffff8111156110e0578182fd5b6110ec84828501610f51565b949350505050565b600060208284031215611105578081fd5b815167ffffffffffffffff81111561111b578182fd5b6110ec84828501610fa4565b60008060408385031215611139578182fd5b823567ffffffffffffffff80821115611150578384fd5b61115c86838701610f51565b93506020850135915080821115611171578283fd5b5061117e85828601610f51565b9150509250929050565b6000806040838503121561119a578182fd5b825167ffffffffffffffff808211156111b1578384fd5b6111bd86838701610fa4565b935060208501519150808211156111d2578283fd5b5061117e85828601610fa4565b600080600080608085870312156111f4578081fd5b845167ffffffffffffffff8082111561120b578283fd5b61121788838901610fa4565b9550602087015191508082111561122c578283fd5b61123888838901610fa4565b9450604087015191508082111561124d578283fd5b61125988838901610fa4565b9350606087015191508082111561126e578283fd5b5061127b87828801610fa4565b91505092959194509250565b600060208284031215611298578081fd5b5051919050565b600081518084526112b781602086016020860161151a565b601f01601f19169290920160200192915050565b600082516112dd81846020870161151a565b9190910192915050565b600160a060020a0391909116815260200190565b600160a060020a0392831681529116602082015260400190565b6000600160a060020a038716825260a0602083015261133760a083018761129f565b8281036040840152611349818761129f565b90508460608401528281036080840152611363818561129f565b98975050505050505050565b60006020825261100c602083018461129f565b600060408252611395604083018561129f565b82810360208401526113a7818561129f565b95945050505050565b6000606082526113c3606083018661129f565b82810360208401526113d5818661129f565b915050826040830152949350505050565b6020808252605b908201527f7365744f626a656374506f6c69637941646472657373206572726f723a204f6e60408201527f6c792064657669636520697473656c662063616e2062696e64696e672064657660608201527f696365206164647265737320616e642070632061646472657373210000000000608082015260a00190565b60208082526027908201527f7365744541206572726f723a204f6e6c7920616363206f776e65722063616e2060408201527f7365742065612100000000000000000000000000000000000000000000000000606082015260800190565b90815260200190565b60405181810167ffffffffffffffff811182821017156114ee57600080fd5b604052919050565b600067ffffffffffffffff82111561150c578081fd5b50601f01601f191660200190565b60005b8381101561153557818101518382015260200161151d565b83811115611544576000848401525b5050505056fe616c6c6f77000000000000000000000000000000000000000000000000000000a2646970667358221220f5bc1f754820c8ddfdc51bf864b537b946a20374314ea91ba53be7c8fe2a8c6f64736f6c63430007000033",
  "immutableReferences": {},
  "source": "// SPDX-License-Identifier:MIT\r\npragma solidity >=0.4.22 <=0.7.0;\r\npragma experimental ABIEncoderV2;\r\n\r\ncontract AccessControl {\r\n    address public owner;\r\n    SubjectA public sc;\r\n    ObjectA public oc;\r\n    PolicyA public pc;\r\n\r\n    event ReturnAccessResult(\r\n        address indexed _from,\r\n        address _to,\r\n        string _resource,\r\n        string _action,\r\n        uint256 _time,\r\n        string _result\r\n    );\r\n\r\n    string public EA;\r\n\r\n    mapping(address => address) public deviceToPC;\r\n\r\n    /**\r\n     * @dev Set contract deployer as manager, set management and reputation contract address\r\n     */\r\n    constructor(address _sc, address _oc) {\r\n        owner = msg.sender;\r\n        sc = SubjectA(_sc);\r\n        oc = ObjectA(_oc);\r\n    }\r\n    \r\n    /* @dev stringCompare determine whether the strings are equal, using length + hash comparson to reduce gas consumption\r\n    */\r\n    function stringCompare(string memory a, string memory b) internal pure returns (bool) {\r\n        bytes memory _a = bytes(a);\r\n        bytes memory _b = bytes(b);\r\n        if (_a.length != _b.length) {\r\n            return false;\r\n        }else{\r\n            if (_a.length == 1) {\r\n                return _a[0] == _b[0];\r\n            }else{\r\n                return keccak256(abi.encodePacked(a)) == keccak256(abi.encodePacked(b));\r\n            }\r\n            \r\n        }\r\n    }\r\n    \r\n    function setEA(string memory _ea) public {\r\n        require(\r\n            msg.sender == owner,\r\n            \"setEA error: Only acc owner can set ea!\"\r\n        );\r\n        EA = _ea;\r\n    }\r\n    \r\n    function setObjectPolicyAddress(address _device, address _pc) public {\r\n        require(\r\n            msg.sender == _device,\r\n            \"setObjectPolicyAddress error: Only device itself can binding device address and pc address!\"\r\n        );        \r\n        deviceToPC[_device] = _pc;\r\n    }\r\n\r\n\r\n    /* @dev accessControl is core fucntion\r\n    */\r\n    function accessControl(address _object, string memory _resource, string memory _action)\r\n        public\r\n        returns (string memory)\r\n    {\r\n        string memory _ma;\r\n        string memory _soa;\r\n        string memory _sa;\r\n        string memory _oa;\r\n        address _pc = deviceToPC[_object];\r\n        \r\n        string[4] memory curRule;\r\n        string[2] memory curPolicy;\r\n        \r\n        string[3] memory result;\r\n        string memory finalresult;\r\n        \r\n        _ma = sc.getMA(msg.sender);\r\n        _soa = sc.getSOA(msg.sender,_object);\r\n        _sa = strConcat(_ma,_soa);\r\n        \r\n        _oa = oc.getAttr(_object);\r\n        pc = PolicyA(_pc);\r\n        (curPolicy[0],curPolicy[1]) = pc.getPolicy(_resource,_action);\r\n        uint256 num = pc.getRuleNum(_resource,_action);\r\n\r\n        //check _rules\r\n        for (uint i = 0; i < num; i++) {\r\n            (curRule[0],curRule[1],curRule[2],curRule[3]) = pc.getRule(_resource,_action,i);\r\n            if (stringCompare(curRule[0],_sa) && stringCompare(curRule[1],_oa) && stringCompare(curRule[2],EA)) {\r\n                if (stringCompare(curRule[3],\"deny\")) {\r\n                    result[0] = \"deny\";\r\n                }else{\r\n                    result[1] = \"allow\";              \r\n                }\r\n            }else{\r\n                result[2] = \"NotApplicable\";\r\n            }\r\n        }\r\n        \r\n        if (stringCompare(curPolicy[1],\"denyoverrides\")) {\r\n            if (stringCompare(result[0], \"deny\")) {\r\n                finalresult = \"deny\";\r\n            }else if (stringCompare(result[1], \"allow\")) {\r\n                finalresult = \"allow\";\r\n            }else{\r\n                finalresult = \"NotApplicable\";\r\n            }\r\n        }\r\n        \r\n        if (stringCompare(curPolicy[1], \"allowoverrides\") && stringCompare(result[1], \"allow\")) {\r\n            if (stringCompare(result[1], \"allow\")) {\r\n                finalresult = \"allow\";\r\n            }else if (stringCompare(result[0], \"deny\")) {\r\n                finalresult = \"deny\";\r\n            }else{\r\n                finalresult = \"NotApplicable\";\r\n            }\r\n        }\r\n        \r\n        if (stringCompare(curPolicy[0],\"record\")) {\r\n            emit ReturnAccessResult(msg.sender,_object,_resource,_action,block.timestamp,finalresult);\r\n        }\r\n        return finalresult;\r\n    }\r\n    \r\n    /* @dev stringToUint is a utility fucntion used for convert number string to uint\r\n    */\r\n    function stringToUint(string memory s)\r\n        public\r\n        pure\r\n        returns (uint256 result)\r\n    {\r\n        bytes memory b = bytes(s);\r\n        uint256 i;\r\n        result = 0;\r\n        for (i = 0; i < b.length; i++) {\r\n            uint8 c = uint8(b[i]);\r\n            if (c >= 48 && c <= 57) {\r\n                result = result * 10 + (c - 48);\r\n            }\r\n        }\r\n    }\r\n    \r\n    // contact two strings\r\n    function strConcat(string memory _a, string memory _b) public pure returns (string memory){\r\n        bytes memory _ba = bytes(_a);\r\n        bytes memory _bb = bytes(_b);\r\n        string memory ret = new string(_ba.length + _bb.length);\r\n        bytes memory bret = bytes(ret);\r\n        uint k = 0;\r\n        for (uint i = 0; i < _ba.length; i++) {\r\n           bret[k++] = _ba[i]; \r\n        }\r\n        \r\n        for (uint i = 0; i < _bb.length; i++) {\r\n            bret[k++] = _bb[i];\r\n        }\r\n        return string(ret);\r\n   } \r\n}\r\n\r\nabstract contract SubjectA {\r\n    function getMA(address _subject) public virtual view returns (string memory);\r\n    function getSOA(address _subject, address _object) public virtual view returns (string memory);  \r\n}\r\n\r\nabstract contract ObjectA {\r\n    function getAttr(address _device) public virtual view returns (string memory _oa);\r\n}\r\n\r\nabstract contract PolicyA {\r\n    function getPolicy(string memory _resource, string memory _action) public virtual view returns (string memory _duty, string memory _algorithm);\r\n    function getRule(string memory _resource, string memory _action, uint _index) public virtual view returns (string memory, string memory, string memory, string memory);\r\n    function getRuleNum(string memory _resource, string memory _action) public virtual view returns (uint256);\r\n}",
  "sourcePath": "/home/shuzang/BBRAC-dev/contracts/AccessControl.sol",
  "compiler": {
    "name": "solc",
    "version": "0.7.0+commit.9e61f92b.Emscripten.clang"
  },
  "schemaVersion": "3.3.1",
  "updatedAt": "2020-11-03T07:09:09.638Z",
  "networkType": "ethereum",
  "devdoc": {
    "kind": "dev",
    "methods": {
      "constructor": {
        "details": "Set contract deployer as manager, set management and reputation contract address"
      }
    },
    "version": 1
  },
  "userdoc": {
    "kind": "user",
    "methods": {},
    "version": 1
  }
}