{
  "contractName": "Judge",
  "abi": [
    {
      "inputs": [
        {
          "internalType": "uint256",
          "name": "_base",
          "type": "uint256"
        },
        {
          "internalType": "uint256",
          "name": "_inteval",
          "type": "uint256"
        }
      ],
      "stateMutability": "nonpayable",
      "type": "constructor"
    },
    {
      "anonymous": false,
      "inputs": [
        {
          "indexed": false,
          "internalType": "address",
          "name": "_from",
          "type": "address"
        },
        {
          "indexed": false,
          "internalType": "uint256",
          "name": "_time",
          "type": "uint256"
        },
        {
          "indexed": false,
          "internalType": "uint256",
          "name": "_penalty",
          "type": "uint256"
        }
      ],
      "name": "isCalled",
      "type": "event"
    },
    {
      "inputs": [
        {
          "internalType": "address",
          "name": "",
          "type": "address"
        },
        {
          "internalType": "uint256",
          "name": "",
          "type": "uint256"
        }
      ],
      "name": "MisbehaviorList",
      "outputs": [
        {
          "internalType": "address",
          "name": "subject",
          "type": "address"
        },
        {
          "internalType": "address",
          "name": "object",
          "type": "address"
        },
        {
          "internalType": "bytes32",
          "name": "res",
          "type": "bytes32"
        },
        {
          "internalType": "bytes32",
          "name": "action",
          "type": "bytes32"
        },
        {
          "internalType": "string",
          "name": "misbehavior",
          "type": "string"
        },
        {
          "internalType": "uint256",
          "name": "time",
          "type": "uint256"
        },
        {
          "internalType": "uint256",
          "name": "penalty",
          "type": "uint256"
        }
      ],
      "stateMutability": "view",
      "type": "function",
      "constant": true
    },
    {
      "inputs": [],
      "name": "base",
      "outputs": [
        {
          "internalType": "uint256",
          "name": "",
          "type": "uint256"
        }
      ],
      "stateMutability": "view",
      "type": "function",
      "constant": true
    },
    {
      "inputs": [],
      "name": "inteval",
      "outputs": [
        {
          "internalType": "uint256",
          "name": "",
          "type": "uint256"
        }
      ],
      "stateMutability": "view",
      "type": "function",
      "constant": true
    },
    {
      "inputs": [],
      "name": "owner",
      "outputs": [
        {
          "internalType": "address",
          "name": "",
          "type": "address"
        }
      ],
      "stateMutability": "view",
      "type": "function",
      "constant": true
    },
    {
      "inputs": [
        {
          "internalType": "address",
          "name": "_subject",
          "type": "address"
        },
        {
          "internalType": "address",
          "name": "_object",
          "type": "address"
        },
        {
          "internalType": "bytes32",
          "name": "_res",
          "type": "bytes32"
        },
        {
          "internalType": "string",
          "name": "_misbehavior",
          "type": "string"
        },
        {
          "internalType": "bytes32",
          "name": "_action",
          "type": "bytes32"
        },
        {
          "internalType": "uint256",
          "name": "_time",
          "type": "uint256"
        }
      ],
      "name": "misbeaviorJudge",
      "outputs": [
        {
          "internalType": "uint256",
          "name": "penalty",
          "type": "uint256"
        }
      ],
      "stateMutability": "nonpayable",
      "type": "function"
    },
    {
      "inputs": [
        {
          "internalType": "address",
          "name": "_scAddress",
          "type": "address"
        }
      ],
      "name": "getLatestMisbehavior",
      "outputs": [
        {
          "internalType": "address",
          "name": "_subject",
          "type": "address"
        },
        {
          "internalType": "address",
          "name": "_object",
          "type": "address"
        },
        {
          "internalType": "bytes32",
          "name": "_res",
          "type": "bytes32"
        },
        {
          "internalType": "bytes32",
          "name": "_action",
          "type": "bytes32"
        },
        {
          "internalType": "string",
          "name": "_misbehavior",
          "type": "string"
        },
        {
          "internalType": "uint256",
          "name": "_time",
          "type": "uint256"
        }
      ],
      "stateMutability": "view",
      "type": "function",
      "constant": true
    }
  ],
  "bytecode": "0x608060405234801561001057600080fd5b5060405161094f38038061094f8339818101604052604081101561003357600080fd5b50805160209091015160009190915560015560028054600160a060020a031916331790556108e9806100666000396000f3fe608060405234801561001057600080fd5b506004361061007e577c01000000000000000000000000000000000000000000000000000000006000350463027a0ec981146100835780632500d7ec146101605780635001f3b5146102405780638da5cb5b14610248578063b664bcaa1461026c578063c288429d14610274575b600080fd5b61014e600480360360c081101561009957600080fd5b600160a060020a038235811692602081013590911691604082013591908101906080810160608201356401000000008111156100d457600080fd5b8201836020820111156100e657600080fd5b8035906020019184600183028401116401000000008311171561010857600080fd5b91908080601f0160208091040260200160405190810160405280939291908181526020018383808284376000920191909152509295505082359350505060200135610347565b60408051918252519081900360200190f35b61018c6004803603604081101561017657600080fd5b50600160a060020a0381351690602001356104fb565b6040518088600160a060020a0316815260200187600160a060020a0316815260200186815260200185815260200180602001848152602001838152602001828103825285818151815260200191508051906020019080838360005b838110156101ff5781810151838201526020016101e7565b50505050905090810190601f16801561022c5780820380516001836020036101000a031916815260200191505b509850505050505050505060405180910390f35b61014e6105eb565b6102506105f1565b60408051600160a060020a039092168252519081900360200190f35b61014e610600565b61029a6004803603602081101561028a57600080fd5b5035600160a060020a0316610606565b6040518087600160a060020a0316815260200186600160a060020a0316815260200185815260200184815260200180602001838152602001828103825284818151815260200191508051906020019080838360005b838110156103075781810151838201526020016102ef565b50505050905090810190601f1680156103345780820380516001836020036101000a031916815260200191505b5097505050505050505060405180910390f35b600160a060020a038616600090815260036020526040812054600180549101908290828161037157fe5b049050806000540a9250600360008a600160a060020a0316600160a060020a031681526020019081526020016000206040518060e001604052808b600160a060020a031681526020018a600160a060020a0316815260200189815260200187815260200188815260200186815260200185815250908060018154018082558091505060019003906000526020600020906007020160009091909190915060008201518160000160006101000a815481600160a060020a030219169083600160a060020a0316021790555060208201518160010160006101000a815481600160a060020a030219169083600160a060020a0316021790555060408201518160020155606082015181600301556080820151816004019080519060200190610498929190610820565b5060a0820151600582015560c090910151600690910155604080513381526020810186905280820185905290517fbb115d93edf7045bd259dae8cf3d0dff61dad85e67baee752fa8efe8389d75459181900360600190a150509695505050505050565b6003602052816000526040600020818154811061051457fe5b600091825260209182902060079190910201805460018083015460028085015460038601546004870180546040805161010098831615989098026000190190911694909404601f81018a90048a0287018a01909452838652600160a060020a039687169a5095909316975095919493918301828280156105d55780601f106105aa576101008083540402835291602001916105d5565b820191906000526020600020905b8154815290600101906020018083116105b857829003601f168201915b5050505050908060050154908060060154905087565b60005481565b600254600160a060020a031681565b60015481565b600160a060020a0381166000908152600360205260408120805482918291829160609183916000198201918290811061063b57fe5b60009182526020808320600790920290910154600160a060020a038b811684526003909252604090922080549190921698508290811061067757fe5b6000918252602080832060016007909302019190910154600160a060020a038b81168452600390925260409092208054919092169750829081106106b757fe5b90600052602060002090600702016002015494506003600089600160a060020a0316600160a060020a0316815260200190815260200160002081815481106106fb57fe5b90600052602060002090600702016003015493506003600089600160a060020a0316600160a060020a03168152602001908152602001600020818154811061073f57fe5b6000918252602091829020600460079092020101805460408051601f60026000196101006001871615020190941693909304928301859004850281018501909152818152928301828280156107d55780601f106107aa576101008083540402835291602001916107d5565b820191906000526020600020905b8154815290600101906020018083116107b857829003601f168201915b50505050600160a060020a038a166000908152600360205260409020805492955091839150811061080257fe5b90600052602060002090600702016005015491505091939550919395565b828054600181600116156101000203166002900490600052602060002090601f016020900481019282601f1061086157805160ff191683800117855561088e565b8280016001018555821561088e579182015b8281111561088e578251825591602001919060010190610873565b5061089a92915061089e565b5090565b5b8082111561089a576000815560010161089f56fea26469706673582212204c868d1d0a397fd1684628f6539d999d1530d5b749fa277608adc7c0f3ed009a64736f6c63430007000033",
  "immutableReferences": {},
  "source": "// SPDX-License-Identifier:MIT\r\npragma solidity ^0.7.0;\r\n\r\ncontract Judge {\r\n    uint public base;\r\n    uint public inteval;\r\n    address public owner;\r\n    \r\n    event isCalled(address _from, uint _time, uint _penalty);\r\n    \r\n    struct Misbehavior{\r\n        address subject;   //subject who performed the misbehavior \r\n        address object;\r\n        bytes32 res;\r\n        bytes32 action;   //action (e.g., \"read\",\"write\",\"execute\") of the misbehavior\r\n        string misbehavior;\r\n        uint time;   //time of the Misbehavior ocured\r\n        uint penalty;   //penalty (number of minitues blocked)\r\n    }\r\n    \r\n    mapping (address => Misbehavior[]) public MisbehaviorList;\r\n    \r\n    constructor(uint  _base, uint  _inteval) {\r\n        base = _base;\r\n        inteval = _inteval;\r\n        owner = msg.sender;\r\n    }\r\n    \r\n    function misbeaviorJudge(\r\n        address _subject, \r\n        address  _object, \r\n        bytes32 _res,\r\n        string memory _misbehavior,\r\n        bytes32  _action, \r\n        uint  _time) \r\n        public returns (uint  penalty) \r\n    {\r\n        //misbeaviorJudge(msb)\r\n        uint length = MisbehaviorList[_subject].length + 1;\r\n        uint n = length/inteval;\r\n        penalty = base**n;\r\n        MisbehaviorList[_subject].push(Misbehavior(_subject, _object, _res, _action, _misbehavior, _time, penalty));\r\n        emit isCalled(msg.sender, _time, penalty);\r\n    }\r\n    \r\n    function getLatestMisbehavior(address _scAddress) public view \r\n        returns (address _subject, address _object, bytes32 _res, bytes32 _action, string memory _misbehavior, uint _time)\r\n    {\r\n        uint latest = MisbehaviorList[_scAddress].length  - 1;\r\n        //uint latest = 0;\r\n        _subject = MisbehaviorList[_scAddress][latest].subject;\r\n        _object = MisbehaviorList[_scAddress][latest].object;\r\n        _res = MisbehaviorList[_scAddress][latest].res;\r\n        _action = MisbehaviorList[_scAddress][latest].action;\r\n        _misbehavior = MisbehaviorList[_scAddress][latest].misbehavior;\r\n        _time = MisbehaviorList[_scAddress][latest].time;\r\n    }\r\n}",
  "sourcePath": "/home/shuzang/BBRAC-dev/contracts/JC.sol",
  "compiler": {
    "name": "solc",
    "version": "0.7.0+commit.9e61f92b.Emscripten.clang"
  },
  "schemaVersion": "3.3.1",
  "updatedAt": "2020-11-03T03:36:55.722Z",
  "networkType": "ethereum",
  "devdoc": {
    "kind": "dev",
    "methods": {},
    "version": 1
  },
  "userdoc": {
    "kind": "user",
    "methods": {},
    "version": 1
  }
}