{
  "contractName": "Management",
  "abi": [
    {
      "inputs": [],
      "stateMutability": "nonpayable",
      "type": "constructor"
    },
    {
      "inputs": [],
      "name": "owner",
      "outputs": [
        {
          "internalType": "address",
          "name": "",
          "type": "address"
        }
      ],
      "stateMutability": "view",
      "type": "function",
      "constant": true
    },
    {
      "inputs": [],
      "name": "rc",
      "outputs": [
        {
          "internalType": "contract ReputationM",
          "name": "",
          "type": "address"
        }
      ],
      "stateMutability": "view",
      "type": "function",
      "constant": true
    },
    {
      "inputs": [],
      "name": "rcc",
      "outputs": [
        {
          "internalType": "bool",
          "name": "isValued",
          "type": "bool"
        },
        {
          "internalType": "address",
          "name": "creator",
          "type": "address"
        },
        {
          "internalType": "address",
          "name": "scAddress",
          "type": "address"
        }
      ],
      "stateMutability": "view",
      "type": "function",
      "constant": true
    },
    {
      "inputs": [
        {
          "internalType": "address",
          "name": "_rc",
          "type": "address"
        },
        {
          "internalType": "address",
          "name": "_creator",
          "type": "address"
        }
      ],
      "name": "setRC",
      "outputs": [],
      "stateMutability": "nonpayable",
      "type": "function"
    },
    {
      "inputs": [
        {
          "internalType": "address",
          "name": "_rc",
          "type": "address"
        }
      ],
      "name": "updateRC",
      "outputs": [],
      "stateMutability": "nonpayable",
      "type": "function"
    },
    {
      "inputs": [
        {
          "internalType": "address",
          "name": "_device",
          "type": "address"
        },
        {
          "internalType": "address",
          "name": "_manager",
          "type": "address"
        },
        {
          "internalType": "address",
          "name": "_scAddress",
          "type": "address"
        },
        {
          "internalType": "string",
          "name": "_deviceID",
          "type": "string"
        },
        {
          "internalType": "string",
          "name": "_deviceType",
          "type": "string"
        },
        {
          "internalType": "string",
          "name": "_deviceRole",
          "type": "string"
        }
      ],
      "name": "deviceRegister",
      "outputs": [],
      "stateMutability": "nonpayable",
      "type": "function"
    },
    {
      "inputs": [
        {
          "internalType": "address",
          "name": "_device",
          "type": "address"
        },
        {
          "internalType": "string",
          "name": "_attrName",
          "type": "string"
        },
        {
          "internalType": "string",
          "name": "_attrValue",
          "type": "string"
        }
      ],
      "name": "addAttribute",
      "outputs": [],
      "stateMutability": "nonpayable",
      "type": "function"
    },
    {
      "inputs": [
        {
          "internalType": "address",
          "name": "_device",
          "type": "address"
        },
        {
          "internalType": "address",
          "name": "_newManager",
          "type": "address"
        }
      ],
      "name": "updateManager",
      "outputs": [],
      "stateMutability": "nonpayable",
      "type": "function"
    },
    {
      "inputs": [
        {
          "internalType": "address",
          "name": "_device",
          "type": "address"
        },
        {
          "internalType": "string",
          "name": "_attrName",
          "type": "string"
        },
        {
          "internalType": "string",
          "name": "_attrValue",
          "type": "string"
        }
      ],
      "name": "updateAttribute",
      "outputs": [],
      "stateMutability": "nonpayable",
      "type": "function"
    },
    {
      "inputs": [
        {
          "internalType": "address",
          "name": "_device",
          "type": "address"
        },
        {
          "internalType": "uint256",
          "name": "_timeofUnblocked",
          "type": "uint256"
        }
      ],
      "name": "updateTimeofUnblocked",
      "outputs": [],
      "stateMutability": "nonpayable",
      "type": "function"
    },
    {
      "inputs": [
        {
          "internalType": "address",
          "name": "_device",
          "type": "address"
        },
        {
          "internalType": "string",
          "name": "_attrName",
          "type": "string"
        }
      ],
      "name": "getFixedAttribute",
      "outputs": [
        {
          "internalType": "string",
          "name": "_attrValue",
          "type": "string"
        }
      ],
      "stateMutability": "view",
      "type": "function",
      "constant": true
    },
    {
      "inputs": [
        {
          "internalType": "address",
          "name": "_device",
          "type": "address"
        },
        {
          "internalType": "string",
          "name": "_attrName",
          "type": "string"
        }
      ],
      "name": "getDeviceRelatedAddress",
      "outputs": [
        {
          "internalType": "address",
          "name": "_attrValue",
          "type": "address"
        }
      ],
      "stateMutability": "view",
      "type": "function",
      "constant": true
    },
    {
      "inputs": [
        {
          "internalType": "address",
          "name": "_device",
          "type": "address"
        },
        {
          "internalType": "string",
          "name": "_attrName",
          "type": "string"
        }
      ],
      "name": "getCustomedAttribute",
      "outputs": [
        {
          "internalType": "string",
          "name": "_attrValue",
          "type": "string"
        }
      ],
      "stateMutability": "view",
      "type": "function",
      "constant": true
    },
    {
      "inputs": [
        {
          "internalType": "address",
          "name": "_device",
          "type": "address"
        }
      ],
      "name": "getTimeofUnblocked",
      "outputs": [
        {
          "internalType": "uint256",
          "name": "",
          "type": "uint256"
        }
      ],
      "stateMutability": "view",
      "type": "function",
      "constant": true
    },
    {
      "inputs": [
        {
          "internalType": "address",
          "name": "_scAddress",
          "type": "address"
        }
      ],
      "name": "isContractAddress",
      "outputs": [
        {
          "internalType": "bool",
          "name": "",
          "type": "bool"
        }
      ],
      "stateMutability": "view",
      "type": "function",
      "constant": true
    },
    {
      "inputs": [
        {
          "internalType": "address",
          "name": "_device",
          "type": "address"
        }
      ],
      "name": "deleteDevice",
      "outputs": [],
      "stateMutability": "nonpayable",
      "type": "function"
    },
    {
      "inputs": [
        {
          "internalType": "address",
          "name": "_device",
          "type": "address"
        },
        {
          "internalType": "string",
          "name": "_attrName",
          "type": "string"
        }
      ],
      "name": "deleteAttribute",
      "outputs": [],
      "stateMutability": "nonpayable",
      "type": "function"
    }
  ],
  "bytecode": "0x608060405234801561001057600080fd5b5060008054600160a060020a03191633179055613111806100326000396000f3fe608060405234801561001057600080fd5b5060043610610128576000357c01000000000000000000000000000000000000000000000000000000009004806375d29c5a116100bf578063d356ec811161008e578063d356ec81146105b9578063d40f799e1461066f578063e335a68a14610844578063f69d51db146108fa578063f9d7e4aa1461093257610128565b806375d29c5a1461052b5780638da5cb5b146105515780638ed9606a14610559578063c6907e601461059357610128565b806312f77332116100fb57806312f773321461038257806341cb8597146103a657806350a6300b146104d157806373df5884146104fd57610128565b8063030d6ff11461012d57806307ecec3e1461026c5780630ae5ca2d1461029a5780630cd5231714610350575b600080fd5b61026a6004803603606081101561014357600080fd5b600160a060020a03823516919081019060408101602082013564010000000081111561016e57600080fd5b82018360208201111561018057600080fd5b803590602001918460018302840111640100000000831117156101a257600080fd5b91908080601f01602080910402602001604051908101604052809392919081815260200183838082843760009201919091525092959493602081019350359150506401000000008111156101f557600080fd5b82018360208201111561020757600080fd5b8035906020019184600183028401116401000000008311171561022957600080fd5b91908080601f016020809104026020016040519081016040528093929190818152602001838380828437600092019190915250929550610a6f945050505050565b005b61026a6004803603604081101561028257600080fd5b50600160a060020a0381358116916020013516610d48565b61026a600480360360408110156102b057600080fd5b600160a060020a0382351691908101906040810160208201356401000000008111156102db57600080fd5b8201836020820111156102ed57600080fd5b8035906020019184600183028401116401000000008311171561030f57600080fd5b91908080601f016020809104026020016040519081016040528093929190818152602001838380828437600092019190915250929550610efe945050505050565b6103586111b7565b604080519315158452600160a060020a039283166020850152911682820152519081900360600190f35b61038a6111d7565b60408051600160a060020a039092168252519081900360200190f35b61045c600480360360408110156103bc57600080fd5b600160a060020a0382351691908101906040810160208201356401000000008111156103e757600080fd5b8201836020820111156103f957600080fd5b8035906020019184600183028401116401000000008311171561041b57600080fd5b91908080601f0160208091040260200160405190810160405280939291908181526020018383808284376000920191909152509295506111e6945050505050565b6040805160208082528351818301528351919283929083019185019080838360005b8381101561049657818101518382015260200161047e565b50505050905090810190601f1680156104c35780820380516001836020036101000a031916815260200191505b509250505060405180910390f35b61026a600480360360408110156104e757600080fd5b50600160a060020a038135169060200135611ad7565b61026a6004803603604081101561051357600080fd5b50600160a060020a0381358116916020013516611b9c565b61026a6004803603602081101561054157600080fd5b5035600160a060020a0316611cb0565b61038a611ecb565b61057f6004803603602081101561056f57600080fd5b5035600160a060020a0316611eda565b604080519115158252519081900360200190f35b61026a600480360360208110156105a957600080fd5b5035600160a060020a0316611ef8565b61038a600480360360408110156105cf57600080fd5b600160a060020a0382351691908101906040810160208201356401000000008111156105fa57600080fd5b82018360208201111561060c57600080fd5b8035906020019184600183028401116401000000008311171561062e57600080fd5b91908080601f016020809104026020016040519081016040528093929190818152602001838380828437600092019190915250929550611ff1945050505050565b61026a600480360360c081101561068557600080fd5b600160a060020a03823581169260208101358216926040820135909216918101906080810160608201356401000000008111156106c157600080fd5b8201836020820111156106d357600080fd5b803590602001918460018302840111640100000000831117156106f557600080fd5b91908080601f016020809104026020016040519081016040528093929190818152602001838380828437600092019190915250929594936020810193503591505064010000000081111561074857600080fd5b82018360208201111561075a57600080fd5b8035906020019184600183028401116401000000008311171561077c57600080fd5b91908080601f01602080910402602001604051908101604052809392919081815260200183838082843760009201919091525092959493602081019350359150506401000000008111156107cf57600080fd5b8201836020820111156107e157600080fd5b8035906020019184600183028401116401000000008311171561080357600080fd5b91908080601f0160208091040260200160405190810160405280939291908181526020018383808284376000920191909152509295506122d3945050505050565b61045c6004803603604081101561085a57600080fd5b600160a060020a03823516919081019060408101602082013564010000000081111561088557600080fd5b82018360208201111561089757600080fd5b803590602001918460018302840111640100000000831117156108b957600080fd5b91908080601f0160208091040260200160405190810160405280939291908181526020018383808284376000920191909152509295506124a2945050505050565b6109206004803603602081101561091057600080fd5b5035600160a060020a03166126e5565b60408051918252519081900360200190f35b61026a6004803603606081101561094857600080fd5b600160a060020a03823516919081019060408101602082013564010000000081111561097357600080fd5b82018360208201111561098557600080fd5b803590602001918460018302840111640100000000831117156109a757600080fd5b91908080601f01602080910402602001604051908101604052809392919081815260200183838082843760009201919091525092959493602081019350359150506401000000008111156109fa57600080fd5b820183602082011115610a0c57600080fd5b80359060200191846001830284011164010000000083111715610a2e57600080fd5b91908080601f01602080910402602001604051908101604052809392919081815260200183838082843760009201919091525092955061275e945050505050565b600160a060020a03831660009081526004602052604090205460ff16610ac95760405160e560020a62461bcd02815260040180806020018281038252602d815260200180612cd6602d913960400191505060405180910390fd5b600160a060020a038381166000908152600460205260409020546101009004163314610b295760405160e560020a62461bcd028152600401808060200182810382526039815260200180612e6c6039913960400191505060405180910390fd5b6004600084600160a060020a0316600160a060020a03168152602001908152602001600020600601826040518082805190602001908083835b60208310610b815780518252601f199092019160209182019101610b62565b51815160209384036101000a600019018019909216911617905292019485525060405193849003019092205460ff169150610bf290505760405160e560020a62461bcd02815260040180806020018281038252602b81526020018061307b602b913960400191505060405180910390fd5b806004600085600160a060020a0316600160a060020a03168152602001908152602001600020600601836040518082805190602001908083835b60208310610c4b5780518252601f199092019160209182019101610c2c565b6001836020036101000a03801982511681845116808217855250505050505090500191505090815260200160405180910390206001019080519060200190610c94929190612ab1565b506001546040805160e160020a634f8e671f0281523360048201526000602482018190526002604483015242608483015260a06064830152602060a48301527f44657669636520637573746f6d6564206174747269627574652075706461746560c48301529151600160a060020a0390931692639f1cce3e9260e48084019391929182900301818387803b158015610d2b57600080fd5b505af1158015610d3f573d6000803e3d6000fd5b50505050505050565b600160a060020a03821660009081526004602052604090205460ff16610da25760405160e560020a62461bcd02815260040180806020018281038252602b815260200180612d66602b913960400191505060405180910390fd5b600054600160a060020a0316331480610dd95750600160a060020a0382811660009081526004602052604090205461010090041633145b610e175760405160e560020a62461bcd02815260040180806020018281038252604f815260200180612bdd604f913960600191505060405180910390fd5b600160a060020a038281166000908152600460208190526040808320805474ffffffffffffffffffffffffffffffffffffffff00191661010087871602179055600154815160e160020a634f8e671f0281523393810193909352602483018490526002604484015242608484015260a06064840152601560a48401527f446576696365206d616e6167657220757064617465000000000000000000000060c48401529051931692639f1cce3e9260e48084019391929182900301818387803b158015610ee257600080fd5b505af1158015610ef6573d6000803e3d6000fd5b505050505050565b600160a060020a03821660009081526004602052604090205460ff16610f585760405160e560020a62461bcd028152600401808060200182810382526028815260200180612c816028913960400191505060405180910390fd5b600160a060020a038281166000908152600460205260409020546101009004163314610fb85760405160e560020a62461bcd028152600401808060200182810382526037815260200180612d916037913960400191505060405180910390fd5b6004600083600160a060020a0316600160a060020a03168152602001908152602001600020600601816040518082805190602001908083835b602083106110105780518252601f199092019160209182019101610ff1565b51815160209384036101000a600019018019909216911617905292019485525060405193849003019092205460ff16915061108190505760405160e560020a62461bcd02815260040180806020018281038252602b815260200180612c2c602b913960400191505060405180910390fd5b6004600083600160a060020a0316600160a060020a03168152602001908152602001600020600601816040518082805190602001908083835b602083106110d95780518252601f1990920191602091820191016110ba565b51815160209384036101000a60001901801990921691161790529201948552506040519384900301909220805460ff1916815591506000905061111f6001830182612b2f565b50506001546040805160e160020a634f8e671f0281523360048201526000602482018190526003604483015242608483015260a06064830152601060a48301527f4174747269627574652064656c6574650000000000000000000000000000000060c48301529151600160a060020a0390931692639f1cce3e9260e48084019391929182900301818387803b158015610ee257600080fd5b60025460035460ff821691600160a060020a036101009091048116911683565b600154600160a060020a031681565b600160a060020a03821660009081526004602052604090205460609060ff166112435760405160e560020a62461bcd02815260040180806020018281038252602f81526020018061304c602f913960400191505060405180910390fd5b6040805160e060020a6360353db90281526004810191825283516044820152835173__Utils_________________________________926360353db992869282916024810191606490910190602086019080838360005b838110156112b257818101518382015260200161129a565b50505050905090810190601f1680156112df5780820380516001836020036101000a031916815260200191505b50838103825260088152602001807f6465766963654944000000000000000000000000000000000000000000000000815250602001935050505060206040518083038186803b15801561133157600080fd5b505af4158015611345573d6000803e3d6000fd5b505050506040513d602081101561135b57600080fd5b50518061147e57506040805160e060020a6360353db90281526004810191825283516044820152835173__Utils_________________________________926360353db992869282916024810191606490910190602086019080838360005b838110156113d25781810151838201526020016113ba565b50505050905090810190601f1680156113ff5780820380516001836020036101000a031916815260200191505b508381038252600a8152602001807f6465766963655479706500000000000000000000000000000000000000000000815250602001935050505060206040518083038186803b15801561145157600080fd5b505af4158015611465573d6000803e3d6000fd5b505050506040513d602081101561147b57600080fd5b50515b8061159f57506040805160e060020a6360353db90281526004810191825283516044820152835173__Utils_________________________________926360353db992869282916024810191606490910190602086019080838360005b838110156114f35781810151838201526020016114db565b50505050905090810190601f1680156115205780820380516001836020036101000a031916815260200191505b508381038252600a8152602001807f646576696365526f6c6500000000000000000000000000000000000000000000815250602001935050505060206040518083038186803b15801561157257600080fd5b505af4158015611586573d6000803e3d6000fd5b505050506040513d602081101561159c57600080fd5b50515b6115dd5760405160e560020a62461bcd028152600401808060200182810382526051815260200180612f9d6051913960600191505060405180910390fd5b6040805160e060020a6360353db90281526004810191825283516044820152835173__Utils_________________________________926360353db992869282916024810191606490910190602086019080838360005b8381101561164c578181015183820152602001611634565b50505050905090810190601f1680156116795780820380516001836020036101000a031916815260200191505b50838103825260088152602001807f6465766963654944000000000000000000000000000000000000000000000000815250602001935050505060206040518083038186803b1580156116cb57600080fd5b505af41580156116df573d6000803e3d6000fd5b505050506040513d60208110156116f557600080fd5b5051156117a957600160a060020a0383166000908152600460209081526040918290206002908101805484516001821615610100026000190190911692909204601f81018490048402830184019094528382529092909183018282801561179d5780601f106117725761010080835404028352916020019161179d565b820191906000526020600020905b81548152906001019060200180831161178057829003601f168201915b50505050509050611ad1565b6040805160e060020a6360353db90281526004810191825283516044820152835173__Utils_________________________________926360353db992869282916024810191606490910190602086019080838360005b83811015611818578181015183820152602001611800565b50505050905090810190601f1680156118455780820380516001836020036101000a031916815260200191505b508381038252600a8152602001807f6465766963655479706500000000000000000000000000000000000000000000815250602001935050505060206040518083038186803b15801561189757600080fd5b505af41580156118ab573d6000803e3d6000fd5b505050506040513d60208110156118c157600080fd5b50511561193d57600160a060020a03831660009081526004602090815260409182902060030180548351601f60026000196101006001861615020190931692909204918201849004840281018401909452808452909183018282801561179d5780601f106117725761010080835404028352916020019161179d565b6040805160e060020a6360353db90281526004810191825283516044820152835173__Utils_________________________________926360353db992869282916024810191606490910190602086019080838360005b838110156119ac578181015183820152602001611994565b50505050905090810190601f1680156119d95780820380516001836020036101000a031916815260200191505b508381038252600a8152602001807f646576696365526f6c6500000000000000000000000000000000000000000000815250602001935050505060206040518083038186803b158015611a2b57600080fd5b505af4158015611a3f573d6000803e3d6000fd5b505050506040513d6020811015611a5557600080fd5b505115611ad157600160a060020a03831660009081526004602081815260409283902090910180548351601f60026000196101006001861615020190931692909204918201849004840281018401909452808452909183018282801561179d5780601f106117725761010080835404028352916020019161179d565b92915050565b600160a060020a03821660009081526004602052604090205460ff16611b315760405160e560020a62461bcd028152600401808060200182810382526033815260200180612f356033913960400191505060405180910390fd5b600354600160a060020a03163314611b7d5760405160e560020a62461bcd028152600401808060200182810382526051815260200180612b8c6051913960600191505060405180910390fd5b600160a060020a03909116600090815260046020526040902060050155565b60025460ff1615611be15760405160e560020a62461bcd02815260040180806020018281038252602f815260200180612fee602f913960400191505060405180910390fd5b600054600160a060020a0316331480611c02575033600160a060020a038216145b611c405760405160e560020a62461bcd0281526004018080602001828103825260368152602001806130a66036913960400191505060405180910390fd5b6002805460038054600160a060020a0395861673ffffffffffffffffffffffffffffffffffffffff19918216811790925560ff19949095166101000274ffffffffffffffffffffffffffffffffffffffff0019909216919091179290921660019081179091558054909216179055565b600160a060020a03811660009081526004602052604090205460ff16611d0a5760405160e560020a62461bcd02815260040180806020018281038252602a815260200180612c57602a913960400191505060405180910390fd5b600160a060020a038181166000908152600460205260409020546101009004163314611d6a5760405160e560020a62461bcd028152600401808060200182810382526033815260200180612d036033913960400191505060405180910390fd5b600160a060020a0381166000908152600460205260408120805474ffffffffffffffffffffffffffffffffffffffffff1916815560018101805473ffffffffffffffffffffffffffffffffffffffff1916905590611dcb6002830182612b2f565b611dd9600383016000612b2f565b611de7600483016000612b2f565b5060006005918201819055600160a060020a0380841682526004602081815260408085206001908101548516865295909152808420805460ff191690559354845160e160020a634f8e671f0281523392810192909252602482018490526003604483015242608483015260a06064830152600d60a48301527f4465766963652064656c6574650000000000000000000000000000000000000060c483015293519390911692639f1cce3e9260e48084019391929182900301818387803b158015611eb057600080fd5b505af1158015611ec4573d6000803e3d6000fd5b5050505050565b600054600160a060020a031681565b600160a060020a031660009081526005602052604090205460ff1690565b60025460ff16611f52576040805160e560020a62461bcd02815260206004820152601e60248201527f52657075746174696f6e20636f6e7472616374206e6f74206578697374210000604482015290519081900360640190fd5b600054600160a060020a0316331480611f7a57506002546101009004600160a060020a031633145b611fb85760405160e560020a62461bcd02815260040180806020018281038252603a815260200180612e32603a913960400191505060405180910390fd5b60038054600160a060020a0390921673ffffffffffffffffffffffffffffffffffffffff19928316811790915560018054909216179055565b600160a060020a03821660009081526004602052604081205460ff1661204b5760405160e560020a62461bcd028152600401808060200182810382526035815260200180612f686035913960400191505060405180910390fd5b6040805160e060020a6360353db90281526004810191825283516044820152835173__Utils_________________________________926360353db992869282916024810191606490910190602086019080838360005b838110156120ba5781810151838201526020016120a2565b50505050905090810190601f1680156120e75780820380516001836020036101000a031916815260200191505b50838103825260078152602001807f6d616e6167657200000000000000000000000000000000000000000000000000815250602001935050505060206040518083038186803b15801561213957600080fd5b505af415801561214d573d6000803e3d6000fd5b505050506040513d602081101561216357600080fd5b5051156121905750600160a060020a03808316600090815260046020526040902054610100900416611ad1565b6040805160e060020a6360353db90281526004810191825283516044820152835173__Utils_________________________________926360353db992869282916024810191606490910190602086019080838360005b838110156121ff5781810151838201526020016121e7565b50505050905090810190601f16801561222c5780820380516001836020036101000a031916815260200191505b50838103825260098152602001807f7363416464726573730000000000000000000000000000000000000000000000815250602001935050505060206040518083038186803b15801561227e57600080fd5b505af4158015612292573d6000803e3d6000fd5b505050506040513d60208110156122a857600080fd5b505115611ad15750600160a060020a0380831660009081526004602052604090206001015416611ad1565b600160a060020a03861660009081526004602052604090205460ff161561232e5760405160e560020a62461bcd02815260040180806020018281038252602f81526020018061301d602f913960400191505060405180910390fd5b33600160a060020a038616146123785760405160e560020a62461bcd02815260040180806020018281038252603a815260200180612df8603a913960400191505060405180910390fd5b600160a060020a038681166000908152600460209081526040909120805474ffffffffffffffffffffffffffffffffffffffff0019166101008985160217815560018101805473ffffffffffffffffffffffffffffffffffffffff19169388169390931790925584516123f19260020191860190612ab1565b50600160a060020a0386166000908152600460209081526040909120835161242192600390920191850190612ab1565b50600160a060020a0386166000908152600460208181526040909220835161245193919092019190840190612ab1565b505050600160a060020a0393841660009081526004602090815260408083206005808201859055815460ff199081166001908117909355969098168452969091529020805490921690931790555050565b600160a060020a03821660009081526004602052604090205460609060ff166124ff5760405160e560020a62461bcd028152600401808060200182810382526032815260200180612ea56032913960400191505060405180910390fd5b6004600084600160a060020a0316600160a060020a03168152602001908152602001600020600601826040518082805190602001908083835b602083106125575780518252601f199092019160209182019101612538565b51815160209384036101000a600019018019909216911617905292019485525060405193849003019092205460ff1691506125c890505760405160e560020a62461bcd028152600401808060200182810382526030815260200180612d366030913960400191505060405180910390fd5b6004600084600160a060020a0316600160a060020a03168152602001908152602001600020600601826040518082805190602001908083835b602083106126205780518252601f199092019160209182019101612601565b518151600019602094850361010090810a8201928316921993909316919091179092529490920196875260408051978890038201882060019081018054601f600293821615909802909501909416049485018290048202880182019052838752909450919250508301828280156126d85780601f106126ad576101008083540402835291602001916126d8565b820191906000526020600020905b8154815290600101906020018083116126bb57829003601f168201915b5050505050905092915050565b600160a060020a03811660009081526004602052604081205460ff1661273f5760405160e560020a62461bcd028152600401808060200182810382526030815260200180612dc86030913960400191505060405180910390fd5b50600160a060020a031660009081526004602052604090206005015490565b600160a060020a03831660009081526004602052604090205460ff166127b85760405160e560020a62461bcd02815260040180806020018281038252602a815260200180612ed7602a913960400191505060405180910390fd5b600160a060020a0383811660009081526004602052604090205461010090041633146128185760405160e560020a62461bcd028152600401808060200182810382526034815260200180612f016034913960400191505060405180910390fd5b6004600084600160a060020a0316600160a060020a03168152602001908152602001600020600601826040518082805190602001908083835b602083106128705780518252601f199092019160209182019101612851565b51815160209384036101000a600019018019909216911617905292019485525060405193849003019092205460ff161591506128e290505760405160e560020a62461bcd02815260040180806020018281038252602d815260200180612ca9602d913960400191505060405180910390fd5b806004600085600160a060020a0316600160a060020a03168152602001908152602001600020600601836040518082805190602001908083835b6020831061293b5780518252601f19909201916020918201910161291c565b6001836020036101000a03801982511681845116808217855250505050505090500191505090815260200160405180910390206001019080519060200190612984929190612ab1565b5060016004600085600160a060020a0316600160a060020a03168152602001908152602001600020600601836040518082805190602001908083835b602083106129df5780518252601f1990920191602091820191016129c0565b51815160209384036101000a600019018019909216911617905292019485525060408051948590039091018420805460ff19169515159590951790945550506001805460e160020a634f8e671f028352336004840152600060248401819052604484019290925242608484015260a06064840152600d60a48401527f417474726962757465206164640000000000000000000000000000000000000060c48401529251600160a060020a0390931692639f1cce3e9260e480820193929182900301818387803b158015610d2b57600080fd5b828054600181600116156101000203166002900490600052602060002090601f016020900481019282601f10612af257805160ff1916838001178555612b1f565b82800160010185558215612b1f579182015b82811115612b1f578251825591602001919060010190612b04565b50612b2b929150612b76565b5090565b50805460018160011615610100020316600290046000825580601f10612b555750612b73565b601f016020900490600052602060002090810190612b739190612b76565b50565b5b80821115612b2b5760008155600101612b7756fe75706461746554696d656f66556e626c6f636b6564206572726f723a204f6e6c792072657075746174696f6e20636f6e74726163742063616e207570646174652074696d65206f6620756e626c6f636b217570646174654d616e61676572206572726f723a204f6e6c79206d63206f776e6572206f7220646576696365206d616e616765722063616e2075706461746520646576696365206d616e616765722164656c657465417474726962757465206572726f723a20417474726962757465206e6f742065786973742164656c657465446576696365206572726f723a20446576696365206e6f7420726567697374657265642164656c657465417474726962757465206572726f723a20646576696365206e6f742065786973742161646420417474726962757465206572726f723a2041747472696275746520616c726561647920657869737421757064617465417474726962757465206572726f723a20446576696365206e6f7420726567697374657265642164656c657465446576696365206572726f723a204f6e6c79206d616e616765722063616e2072656d6f76652064657669636521676574437573746f6d6564417474726962757465206572726f723a20417474726962757465206e6f74206578697374217570646174654d616e61676572206572726f723a20446576696365206e6f7420726567697374657265642164656c657465417474726962757465206572726f723a204f6e6c79206f776e65722063616e2064656c657465206174747269627574652167657454696d656f66556e626c6f636b6564206572726f723a20446576696365206e6f742072656769737465726564216465766963655265676973746572206572726f723a204f6e6c79206d616e61676572206f66206465766963652063616e207265676973746572217570646174655243206572726f723a204f6e6c79206d63206f776e6572206f722072632063726561746f722063616e2075706461746520726321757064617465417474726962757465206572726f723a204f6e6c79206d616e616765722063616e207570646174652041747472696275746521676574437573746f6d6564417474726962757465206572726f723a20446576696365206e6f74207265676973746572656421616464417474726962757465206572726f723a20446576696365206e6f7420726567697374657265642161646420417474726962757465206572726f723a204f6e6c79206d616e616765722063616e20616464206174747269627574652175706461746554696d656f66556e626c6f636b6564206572726f723a20446576696365206e6f7420726567697374657265642167657444657669636552656c6174656441646472657373206572726f723a20446576696365206e6f742072656769737465726564216765744669786564417474726962757465206572726f723a20546865206174747269627574652070617373656420696e206973206e6f7420612064657669636520666978656420617474726962757465217365745243206572726f723a2052657075746174696f6e20636f6e747261637420616c7265616479206578697374216465766963655265676973746572206572726f723a2064657669636520616c726561647920726567697374657265646765744669786564417474726962757465206572726f723a20446576696365206e6f74207265676973746572656421757064617465417474726962757465206572726f723a20417474726962757465206e6f74206578697374217365745243206572726f723a204f6e6c79206d63206f776e6572206f722072632063726561746f722063616e20726567697374657221a2646970667358221220863acef9b48545af86d3b0ffe4e1e9d7d2584127208173dfd82f5e6b355d4abc64736f6c63430007000033",
  "immutableReferences": {},
  "source": "// SPDX-License-Identifier:MIT\npragma solidity >0.6.0 <0.8.0;\n\nimport \"./Utils.sol\";\n\n/// @title Manage smart contracts and device attributes\n/// @author shuzang\ncontract Management {\n    address public owner; // The ower of management contract \n    ReputationM public rc;\n    \n    struct RCContract {\n        bool isValued;       // for duplicate check\n        address creator;     // the peer(account) who created and deployed reputation contract\n        address scAddress;   // the address of the smart contract\n    }\n    \n    struct AttrValue {\n        bool isValued; // fro duplicate check\n        string value; // attribute value\n    }\n    \n    struct Device {\n        bool isValued;                      // for duplicate check\n        address manager;                    // the address of gateway which device belong to, for the gateway, is itself\n        address scAddress;                  // the address of access control contract associate with device\n        string  deviceID;                   // the UUID of device\n        string  deviceType;                 // device type, e.g. Loudness Sensor\n        string  deviceRole;                 // device role, e.g. validator, manager or device \n        uint256 timeofUnblocked;              // time when the resource is unblocked (0 if unblocked, otherwise, blocked)\n        mapping (string => AttrValue) customed;   // other attribute self customed, can have no element\n    }\n    \n    \n    /// Mapping is marked internal, and write own getter function\n    RCContract public rcc;\n    mapping(address => Device)  internal lookupTable;\n    mapping(address => bool) internal isACCAddress; // judge if a address is a access control contract address, used by Reputation contract\n    \n    \n    /// @dev Set contract deployer as owner\n    constructor() {\n        owner = msg.sender; // 'msg.sender' is sender of current call, contract deployer for a constructor\n    }\n    \n    /// @dev set reputation contract\n    function setRC(address  _rc, address _creator) public {\n        //duplicate unchecked\n        require(\n            !rcc.isValued,\n            \"setRC error: Reputation contract already exist!\"\n        );\n        \n        require(\n            msg.sender == owner || msg.sender == _creator,\n            \"setRC error: Only mc owner or rc creator can register!\"\n        );\n        \n        // register\n        rcc.creator = _creator;\n        rcc.scAddress = _rc;\n        rcc.isValued = true;\n        \n        // setting for contract calls\n        rc = ReputationM(_rc);\n    }\n    \n    /// @dev update the information (i.e., scAddress) of a registered reputation contract\n    function updateRC(address _rc) public {\n        require(rcc.isValued, \"Reputation contract not exist!\");\n        require(\n            msg.sender == owner || msg.sender == rcc.creator,\n            \"updateRC error: Only mc owner or rc creator can update rc!\"\n        );\n\n        rcc.scAddress = _rc;\n        rc = ReputationM(_rc);\n    }\n    \n    /// @dev deviceRegister register device attributes\n    function deviceRegister(\n        address _device,\n        address _manager,\n        address _scAddress,\n        string memory _deviceID,\n        string memory _deviceType,\n        string memory _deviceRole\n    )\n        public \n    {\n        require (\n            !lookupTable[_device].isValued,\n            \"deviceRegister error: device already registered\"\n        );\n        \n        require(\n            msg.sender == _manager,\n            \"deviceRegister error: Only manager of device can register!\"\n        );\n        \n        lookupTable[_device].manager = _manager;\n        lookupTable[_device].scAddress = _scAddress;\n        lookupTable[_device].deviceID = _deviceID;\n        lookupTable[_device].deviceType = _deviceType;\n        lookupTable[_device].deviceRole = _deviceRole;\n        lookupTable[_device].timeofUnblocked = 0;\n        lookupTable[_device].isValued = true;\n        //rc.reputationCompute(msg.sender, false, 1, \"Device register\", now ); // \n        isACCAddress[_scAddress] = true;\n    }\n    \n    /// @dev addAttribute add additional attribute to the device\n    function addAttribute (\n        address _device,\n        string memory _attrName,\n        string memory _attrValue\n    )\n        public \n    {\n        require(lookupTable[_device].isValued, \"addAttribute error: Device not registered!\");\n        require (\n            msg.sender == lookupTable[_device].manager,\n            \"add Attribute error: Only manager can add attribute!\"\n        );\n        require(\n            !lookupTable[_device].customed[_attrName].isValued,\n            \"add Attribute error: Attribute already exist!\"\n        );\n        \n        lookupTable[_device].customed[_attrName].value = _attrValue;\n        lookupTable[_device].customed[_attrName].isValued = true;\n        rc.reputationCompute(msg.sender, false, 1, \"Attribute add\", block.timestamp);\n    }\n    \n    /// @dev updateManager update the manager of device\n    function updateManager (address _device, address _newManager) public {\n        require(lookupTable[_device].isValued, \"updateManager error: Device not registered!\");\n        require (\n            msg.sender == owner || msg.sender == lookupTable[_device].manager,\n            \"updateManager error: Only mc owner or device manager can update device manager!\"\n        );\n        lookupTable[_device].manager = _newManager;\n        rc.reputationCompute(msg.sender, false, 2, \"Device manager update\", block.timestamp);\n    }\n    \n    /// @dev updateAttribute update attribute of device\n    function updateAttribute (\n        address _device,\n        string memory _attrName,\n        string memory _attrValue\n    )\n        public \n    {\n        require(lookupTable[_device].isValued, \"updateAttribute error: Device not registered!\");\n        require (\n            msg.sender == lookupTable[_device].manager,\n            \"updateAttribute error: Only manager can update Attribute!\"\n        );\n        require(\n            lookupTable[_device].customed[_attrName].isValued,\n            \"updateAttribute error: Attribute not exist!\"\n        );\n        lookupTable[_device].customed[_attrName].value = _attrValue;\n        rc.reputationCompute(msg.sender, false, 2, \"Device customed attribute update\", block.timestamp);\n    }\n    \n    /// @dev updateTimeofUnblocked update the time of unblocked, \n    /// @notice this fucntion only can be call by reputation contract\n    function updateTimeofUnblocked(address _device, uint256 _timeofUnblocked) public {\n        require(\n            lookupTable[_device].isValued, \n            \"updateTimeofUnblocked error: Device not registered!\"\n        );\n        require(\n            msg.sender == rcc.scAddress, \n            \"updateTimeofUnblocked error: Only reputation contract can update time of unblock!\"\n        );\n        lookupTable[_device].timeofUnblocked = _timeofUnblocked;\n    }\n    \n    /// @dev get the fixed device attribute(type is string)\n    function getFixedAttribute (\n        address _device, \n        string memory _attrName\n    ) \n        public \n        view \n        returns (\n            string memory _attrValue\n        ) \n    {\n        require(lookupTable[_device].isValued, \"getFixedAttribute error: Device not registered!\");\n        require(\n            Utils.stringCompare(_attrName, \"deviceID\") || Utils.stringCompare(_attrName,\"deviceType\") || Utils.stringCompare(_attrName,\"deviceRole\"),\n            \"getFixedAttribute error: The attribute passed in is not a device fixed attribute!\"\n        );\n        if (Utils.stringCompare(_attrName, \"deviceID\")) {\n            return lookupTable[_device].deviceID;\n        }\n        if (Utils.stringCompare(_attrName,\"deviceType\")) {\n            return lookupTable[_device].deviceType;\n        } \n        if (Utils.stringCompare(_attrName,\"deviceRole\")) {\n            return lookupTable[_device].deviceRole;\n        }\n    }\n    \n    /// @dev get the fixed device attribute(type is address)\n    function getDeviceRelatedAddress(\n        address _device, \n        string memory _attrName\n    ) \n        public \n        view \n        returns (\n            address _attrValue\n        ) \n    {\n        require(lookupTable[_device].isValued, \"getDeviceRelatedAddress error: Device not registered!\");\n        if (Utils.stringCompare(_attrName, \"manager\")) {\n            return lookupTable[_device].manager;\n        }\n        if (Utils.stringCompare(_attrName, \"scAddress\")) {\n            return lookupTable[_device].scAddress;\n        }\n    }\n    \n    /// dev get the customed attribute\n    function getCustomedAttribute(\n        address _device, \n        string memory _attrName\n    ) \n        public \n        view \n        returns (\n            string memory _attrValue\n        ) \n    {\n        require(lookupTable[_device].isValued, \"getCustomedAttribute error: Device not registered!\");\n        require(\n            lookupTable[_device].customed[_attrName].isValued,\n            \"getCustomedAttribute error: Attribute not exist!\"\n        );\n        return lookupTable[_device].customed[_attrName].value;\n    }\n    \n    function getTimeofUnblocked(address _device) public view returns (uint256) {\n        require(lookupTable[_device].isValued, \"getTimeofUnblocked error: Device not registered!\");\n        return lookupTable[_device].timeofUnblocked;\n    }\n    \n    function isContractAddress(address _scAddress) public view returns (bool) {\n        return isACCAddress[_scAddress];\n    }\n    \n    /// @dev deleteDevice remove device from registered list\n    function deleteDevice(address _device) public {\n        require(lookupTable[_device].isValued, \"deleteDevice error: Device not registered!\");\n        require (\n            msg.sender == lookupTable[_device].manager,\n            \"deleteDevice error: Only manager can remove device!\"\n        );\n        delete lookupTable[_device];\n        delete isACCAddress[lookupTable[_device].scAddress];\n        rc.reputationCompute(msg.sender, false, 3, \"Device delete\", block.timestamp);\n    }\n    \n    /// @dev deleteAttribute delete customed attribute\n    function deleteAttribute(address _device, string memory _attrName) public {\n        require(lookupTable[_device].isValued, \"deleteAttribute error: device not exist!\");\n        require (\n            msg.sender == lookupTable[_device].manager,\n            \"deleteAttribute error: Only owner can delete attribute!\"\n        );\n        require (\n            lookupTable[_device].customed[_attrName].isValued,\n            \"deleteAttribute error: Attribute not exist!\"\n        );\n        delete lookupTable[_device].customed[_attrName];\n        rc.reputationCompute(msg.sender, false, 3, \"Attribute delete\", block.timestamp);\n    }\n}    \n\n\nabstract contract ReputationM {\n    function reputationCompute(\n        address _subject, \n        bool _ismisbehavior,\n        uint8 _behaviorID,\n        string memory _behavior,\n        uint256  _time\n    ) public virtual ;\n}",
  "sourcePath": "/home/shuzang/BBRAC-dev/contracts/Management.sol",
  "compiler": {
    "name": "solc",
    "version": "0.7.0+commit.9e61f92b.Emscripten.clang"
  },
  "schemaVersion": "3.3.1",
  "updatedAt": "2020-11-02T10:07:40.297Z",
  "networkType": "ethereum",
  "devdoc": {
    "author": "shuzang",
    "kind": "dev",
    "methods": {
      "addAttribute(address,string,string)": {
        "details": "addAttribute add additional attribute to the device"
      },
      "constructor": {
        "details": "Set contract deployer as owner"
      },
      "deleteAttribute(address,string)": {
        "details": "deleteAttribute delete customed attribute"
      },
      "deleteDevice(address)": {
        "details": "deleteDevice remove device from registered list"
      },
      "deviceRegister(address,address,address,string,string,string)": {
        "details": "deviceRegister register device attributes"
      },
      "getDeviceRelatedAddress(address,string)": {
        "details": "get the fixed device attribute(type is address)"
      },
      "getFixedAttribute(address,string)": {
        "details": "get the fixed device attribute(type is string)"
      },
      "setRC(address,address)": {
        "details": "set reputation contract"
      },
      "updateAttribute(address,string,string)": {
        "details": "updateAttribute update attribute of device"
      },
      "updateManager(address,address)": {
        "details": "updateManager update the manager of device"
      },
      "updateRC(address)": {
        "details": "update the information (i.e., scAddress) of a registered reputation contract"
      },
      "updateTimeofUnblocked(address,uint256)": {
        "details": "updateTimeofUnblocked update the time of unblocked, "
      }
    },
    "title": "Manage smart contracts and device attributes",
    "version": 1
  },
  "userdoc": {
    "kind": "user",
    "methods": {
      "getCustomedAttribute(address,string)": {
        "notice": "dev get the customed attribute"
      },
      "rcc()": {
        "notice": "Mapping is marked internal, and write own getter function"
      },
      "updateTimeofUnblocked(address,uint256)": {
        "notice": "this fucntion only can be call by reputation contract"
      }
    },
    "version": 1
  }
}