{
  "contractName": "Management",
  "abi": [
    {
      "inputs": [],
      "stateMutability": "nonpayable",
      "type": "constructor"
    },
    {
      "inputs": [],
      "name": "owner",
      "outputs": [
        {
          "internalType": "address",
          "name": "",
          "type": "address"
        }
      ],
      "stateMutability": "view",
      "type": "function",
      "constant": true
    },
    {
      "inputs": [],
      "name": "rc",
      "outputs": [
        {
          "internalType": "contract ReputationM",
          "name": "",
          "type": "address"
        }
      ],
      "stateMutability": "view",
      "type": "function",
      "constant": true
    },
    {
      "inputs": [],
      "name": "rcc",
      "outputs": [
        {
          "internalType": "bool",
          "name": "isValued",
          "type": "bool"
        },
        {
          "internalType": "address",
          "name": "creator",
          "type": "address"
        },
        {
          "internalType": "address",
          "name": "scAddress",
          "type": "address"
        }
      ],
      "stateMutability": "view",
      "type": "function",
      "constant": true
    },
    {
      "inputs": [
        {
          "internalType": "address",
          "name": "_rc",
          "type": "address"
        },
        {
          "internalType": "address",
          "name": "_creator",
          "type": "address"
        }
      ],
      "name": "setRC",
      "outputs": [],
      "stateMutability": "nonpayable",
      "type": "function"
    },
    {
      "inputs": [
        {
          "internalType": "address",
          "name": "_rc",
          "type": "address"
        }
      ],
      "name": "updateRC",
      "outputs": [],
      "stateMutability": "nonpayable",
      "type": "function"
    },
    {
      "inputs": [
        {
          "internalType": "address",
          "name": "_device",
          "type": "address"
        },
        {
          "internalType": "address",
          "name": "_manager",
          "type": "address"
        },
        {
          "internalType": "address",
          "name": "_scAddress",
          "type": "address"
        },
        {
          "internalType": "string",
          "name": "_deviceID",
          "type": "string"
        },
        {
          "internalType": "string",
          "name": "_deviceType",
          "type": "string"
        },
        {
          "internalType": "string",
          "name": "_deviceRole",
          "type": "string"
        }
      ],
      "name": "deviceRegister",
      "outputs": [],
      "stateMutability": "nonpayable",
      "type": "function"
    },
    {
      "inputs": [
        {
          "internalType": "address",
          "name": "_device",
          "type": "address"
        },
        {
          "internalType": "string",
          "name": "_attrName",
          "type": "string"
        },
        {
          "internalType": "string",
          "name": "_attrValue",
          "type": "string"
        }
      ],
      "name": "addAttribute",
      "outputs": [],
      "stateMutability": "nonpayable",
      "type": "function"
    },
    {
      "inputs": [
        {
          "internalType": "address",
          "name": "_device",
          "type": "address"
        },
        {
          "internalType": "address",
          "name": "_newManager",
          "type": "address"
        }
      ],
      "name": "updateManager",
      "outputs": [],
      "stateMutability": "nonpayable",
      "type": "function"
    },
    {
      "inputs": [
        {
          "internalType": "address",
          "name": "_device",
          "type": "address"
        },
        {
          "internalType": "string",
          "name": "_attrName",
          "type": "string"
        },
        {
          "internalType": "string",
          "name": "_attrValue",
          "type": "string"
        }
      ],
      "name": "updateAttribute",
      "outputs": [],
      "stateMutability": "nonpayable",
      "type": "function"
    },
    {
      "inputs": [
        {
          "internalType": "address",
          "name": "_device",
          "type": "address"
        },
        {
          "internalType": "uint256",
          "name": "_timeofUnblocked",
          "type": "uint256"
        }
      ],
      "name": "updateTimeofUnblocked",
      "outputs": [],
      "stateMutability": "nonpayable",
      "type": "function"
    },
    {
      "inputs": [
        {
          "internalType": "address",
          "name": "_device",
          "type": "address"
        },
        {
          "internalType": "string",
          "name": "_attrName",
          "type": "string"
        }
      ],
      "name": "getFixedAttribute",
      "outputs": [
        {
          "internalType": "string",
          "name": "_attrValue",
          "type": "string"
        }
      ],
      "stateMutability": "view",
      "type": "function",
      "constant": true
    },
    {
      "inputs": [
        {
          "internalType": "address",
          "name": "_device",
          "type": "address"
        },
        {
          "internalType": "string",
          "name": "_attrName",
          "type": "string"
        }
      ],
      "name": "getDeviceRelatedAddress",
      "outputs": [
        {
          "internalType": "address",
          "name": "_attrValue",
          "type": "address"
        }
      ],
      "stateMutability": "view",
      "type": "function",
      "constant": true
    },
    {
      "inputs": [
        {
          "internalType": "address",
          "name": "_device",
          "type": "address"
        },
        {
          "internalType": "string",
          "name": "_attrName",
          "type": "string"
        }
      ],
      "name": "getCustomedAttribute",
      "outputs": [
        {
          "internalType": "string",
          "name": "_attrValue",
          "type": "string"
        }
      ],
      "stateMutability": "view",
      "type": "function",
      "constant": true
    },
    {
      "inputs": [
        {
          "internalType": "address",
          "name": "_device",
          "type": "address"
        }
      ],
      "name": "getTimeofUnblocked",
      "outputs": [
        {
          "internalType": "uint256",
          "name": "",
          "type": "uint256"
        }
      ],
      "stateMutability": "view",
      "type": "function",
      "constant": true
    },
    {
      "inputs": [
        {
          "internalType": "address",
          "name": "_scAddress",
          "type": "address"
        }
      ],
      "name": "isContractAddress",
      "outputs": [
        {
          "internalType": "bool",
          "name": "",
          "type": "bool"
        }
      ],
      "stateMutability": "view",
      "type": "function",
      "constant": true
    },
    {
      "inputs": [
        {
          "internalType": "address",
          "name": "_device",
          "type": "address"
        }
      ],
      "name": "deleteDevice",
      "outputs": [],
      "stateMutability": "nonpayable",
      "type": "function"
    },
    {
      "inputs": [
        {
          "internalType": "address",
          "name": "_device",
          "type": "address"
        },
        {
          "internalType": "string",
          "name": "_attrName",
          "type": "string"
        }
      ],
      "name": "deleteAttribute",
      "outputs": [],
      "stateMutability": "nonpayable",
      "type": "function"
    },
    {
      "inputs": [
        {
          "internalType": "string",
          "name": "a",
          "type": "string"
        },
        {
          "internalType": "string",
          "name": "b",
          "type": "string"
        }
      ],
      "name": "stringCompare",
      "outputs": [
        {
          "internalType": "bool",
          "name": "",
          "type": "bool"
        }
      ],
      "stateMutability": "pure",
      "type": "function",
      "constant": true
    }
  ],
  "bytecode": "0x608060405234801561001057600080fd5b5060008054600160a060020a03191633179055612cf9806100326000396000f3fe608060405234801561001057600080fd5b5060043610610133576000357c01000000000000000000000000000000000000000000000000000000009004806375d29c5a116100bf578063d356ec811161008e578063d356ec81146106f1578063d40f799e146107a7578063e335a68a1461097c578063f69d51db14610a32578063f9d7e4aa14610a6a57610133565b806375d29c5a146106775780638da5cb5b1461069d5780638ed9606a146106a5578063c6907e60146106cb57610133565b806312f773321161010657806312f773321461038d57806341cb8597146103b157806350a6300b146104dc57806360353db91461050857806373df58841461064957610133565b8063030d6ff11461013857806307ecec3e146102775780630ae5ca2d146102a55780630cd523171461035b575b600080fd5b6102756004803603606081101561014e57600080fd5b600160a060020a03823516919081019060408101602082013564010000000081111561017957600080fd5b82018360208201111561018b57600080fd5b803590602001918460018302840111640100000000831117156101ad57600080fd5b91908080601f016020809104026020016040519081016040528093929190818152602001838380828437600092019190915250929594936020810193503591505064010000000081111561020057600080fd5b82018360208201111561021257600080fd5b8035906020019184600183028401116401000000008311171561023457600080fd5b91908080601f016020809104026020016040519081016040528093929190818152602001838380828437600092019190915250929550610ba7945050505050565b005b6102756004803603604081101561028d57600080fd5b50600160a060020a0381358116916020013516610e80565b610275600480360360408110156102bb57600080fd5b600160a060020a0382351691908101906040810160208201356401000000008111156102e657600080fd5b8201836020820111156102f857600080fd5b8035906020019184600183028401116401000000008311171561031a57600080fd5b91908080601f016020809104026020016040519081016040528093929190818152602001838380828437600092019190915250929550611036945050505050565b6103636112ef565b604080519315158452600160a060020a039283166020850152911682820152519081900360600190f35b61039561130f565b60408051600160a060020a039092168252519081900360200190f35b610467600480360360408110156103c757600080fd5b600160a060020a0382351691908101906040810160208201356401000000008111156103f257600080fd5b82018360208201111561040457600080fd5b8035906020019184600183028401116401000000008311171561042657600080fd5b91908080601f01602080910402602001604051908101604052809392919081815260200183838082843760009201919091525092955061131e945050505050565b6040805160208082528351818301528351919283929083019185019080838360005b838110156104a1578181015183820152602001610489565b50505050905090810190601f1680156104ce5780820380516001836020036101000a031916815260200191505b509250505060405180910390f35b610275600480360360408110156104f257600080fd5b50600160a060020a0381351690602001356116eb565b6106356004803603604081101561051e57600080fd5b81019060208101813564010000000081111561053957600080fd5b82018360208201111561054b57600080fd5b8035906020019184600183028401116401000000008311171561056d57600080fd5b91908080601f01602080910402602001604051908101604052809392919081815260200183838082843760009201919091525092959493602081019350359150506401000000008111156105c057600080fd5b8201836020820111156105d257600080fd5b803590602001918460018302840111640100000000831117156105f457600080fd5b91908080601f0160208091040260200160405190810160405280939291908181526020018383808284376000920191909152509295506117b0945050505050565b604080519115158252519081900360200190f35b6102756004803603604081101561065f57600080fd5b50600160a060020a0381358116916020013516611947565b6102756004803603602081101561068d57600080fd5b5035600160a060020a0316611a5b565b610395611c69565b610635600480360360208110156106bb57600080fd5b5035600160a060020a0316611c78565b610275600480360360208110156106e157600080fd5b5035600160a060020a0316611c96565b6103956004803603604081101561070757600080fd5b600160a060020a03823516919081019060408101602082013564010000000081111561073257600080fd5b82018360208201111561074457600080fd5b8035906020019184600183028401116401000000008311171561076657600080fd5b91908080601f016020809104026020016040519081016040528093929190818152602001838380828437600092019190915250929550611d8f945050505050565b610275600480360360c08110156107bd57600080fd5b600160a060020a03823581169260208101358216926040820135909216918101906080810160608201356401000000008111156107f957600080fd5b82018360208201111561080b57600080fd5b8035906020019184600183028401116401000000008311171561082d57600080fd5b91908080601f016020809104026020016040519081016040528093929190818152602001838380828437600092019190915250929594936020810193503591505064010000000081111561088057600080fd5b82018360208201111561089257600080fd5b803590602001918460018302840111640100000000831117156108b457600080fd5b91908080601f016020809104026020016040519081016040528093929190818152602001838380828437600092019190915250929594936020810193503591505064010000000081111561090757600080fd5b82018360208201111561091957600080fd5b8035906020019184600183028401116401000000008311171561093b57600080fd5b91908080601f016020809104026020016040519081016040528093929190818152602001838380828437600092019190915250929550611ebb945050505050565b6104676004803603604081101561099257600080fd5b600160a060020a0382351691908101906040810160208201356401000000008111156109bd57600080fd5b8201836020820111156109cf57600080fd5b803590602001918460018302840111640100000000831117156109f157600080fd5b91908080601f01602080910402602001604051908101604052809392919081815260200183838082843760009201919091525092955061208a945050505050565b610a5860048036036020811015610a4857600080fd5b5035600160a060020a03166122cd565b60408051918252519081900360200190f35b61027560048036036060811015610a8057600080fd5b600160a060020a038235169190810190604081016020820135640100000000811115610aab57600080fd5b820183602082011115610abd57600080fd5b80359060200191846001830284011164010000000083111715610adf57600080fd5b91908080601f0160208091040260200160405190810160405280939291908181526020018383808284376000920191909152509295949360208101935035915050640100000000811115610b3257600080fd5b820183602082011115610b4457600080fd5b80359060200191846001830284011164010000000083111715610b6657600080fd5b91908080601f016020809104026020016040519081016040528093929190818152602001838380828437600092019190915250929550612346945050505050565b600160a060020a03831660009081526004602052604090205460ff16610c015760405160e560020a62461bcd02815260040180806020018281038252602d8152602001806128be602d913960400191505060405180910390fd5b600160a060020a038381166000908152600460205260409020546101009004163314610c615760405160e560020a62461bcd028152600401808060200182810382526039815260200180612a546039913960400191505060405180910390fd5b6004600084600160a060020a0316600160a060020a03168152602001908152602001600020600601826040518082805190602001908083835b60208310610cb95780518252601f199092019160209182019101610c9a565b51815160209384036101000a600019018019909216911617905292019485525060405193849003019092205460ff169150610d2a90505760405160e560020a62461bcd02815260040180806020018281038252602b815260200180612c63602b913960400191505060405180910390fd5b806004600085600160a060020a0316600160a060020a03168152602001908152602001600020600601836040518082805190602001908083835b60208310610d835780518252601f199092019160209182019101610d64565b6001836020036101000a03801982511681845116808217855250505050505090500191505090815260200160405180910390206001019080519060200190610dcc929190612699565b506001546040805160e160020a634f8e671f0281523360048201526000602482018190526002604483015242608483015260a06064830152602060a48301527f44657669636520637573746f6d6564206174747269627574652075706461746560c48301529151600160a060020a0390931692639f1cce3e9260e48084019391929182900301818387803b158015610e6357600080fd5b505af1158015610e77573d6000803e3d6000fd5b50505050505050565b600160a060020a03821660009081526004602052604090205460ff16610eda5760405160e560020a62461bcd02815260040180806020018281038252602b81526020018061294e602b913960400191505060405180910390fd5b600054600160a060020a0316331480610f115750600160a060020a0382811660009081526004602052604090205461010090041633145b610f4f5760405160e560020a62461bcd02815260040180806020018281038252604f8152602001806127c5604f913960600191505060405180910390fd5b600160a060020a038281166000908152600460208190526040808320805474ffffffffffffffffffffffffffffffffffffffff00191661010087871602179055600154815160e160020a634f8e671f0281523393810193909352602483018490526002604484015242608484015260a06064840152601560a48401527f446576696365206d616e6167657220757064617465000000000000000000000060c48401529051931692639f1cce3e9260e48084019391929182900301818387803b15801561101a57600080fd5b505af115801561102e573d6000803e3d6000fd5b505050505050565b600160a060020a03821660009081526004602052604090205460ff166110905760405160e560020a62461bcd0281526004018080602001828103825260288152602001806128696028913960400191505060405180910390fd5b600160a060020a0382811660009081526004602052604090205461010090041633146110f05760405160e560020a62461bcd0281526004018080602001828103825260378152602001806129796037913960400191505060405180910390fd5b6004600083600160a060020a0316600160a060020a03168152602001908152602001600020600601816040518082805190602001908083835b602083106111485780518252601f199092019160209182019101611129565b51815160209384036101000a600019018019909216911617905292019485525060405193849003019092205460ff1691506111b990505760405160e560020a62461bcd02815260040180806020018281038252602b815260200180612814602b913960400191505060405180910390fd5b6004600083600160a060020a0316600160a060020a03168152602001908152602001600020600601816040518082805190602001908083835b602083106112115780518252601f1990920191602091820191016111f2565b51815160209384036101000a60001901801990921691161790529201948552506040519384900301909220805460ff191681559150600090506112576001830182612717565b50506001546040805160e160020a634f8e671f0281523360048201526000602482018190526003604483015242608483015260a06064830152601060a48301527f4174747269627574652064656c6574650000000000000000000000000000000060c48301529151600160a060020a0390931692639f1cce3e9260e48084019391929182900301818387803b15801561101a57600080fd5b60025460035460ff821691600160a060020a036101009091048116911683565b600154600160a060020a031681565b600160a060020a03821660009081526004602052604090205460609060ff1661137b5760405160e560020a62461bcd02815260040180806020018281038252602f815260200180612c34602f913960400191505060405180910390fd5b6113ba826040518060400160405280600881526020017f64657669636549440000000000000000000000000000000000000000000000008152506117b0565b806113ff57506113ff826040518060400160405280600a81526020017f64657669636554797065000000000000000000000000000000000000000000008152506117b0565b806114445750611444826040518060400160405280600a81526020017f646576696365526f6c65000000000000000000000000000000000000000000008152506117b0565b6114825760405160e560020a62461bcd028152600401808060200182810382526051815260200180612b856051913960600191505060405180910390fd5b6114c1826040518060400160405280600881526020017f64657669636549440000000000000000000000000000000000000000000000008152506117b0565b1561157357600160a060020a0383166000908152600460209081526040918290206002908101805484516001821615610100026000190190911692909204601f8101849004840283018401909452838252909290918301828280156115675780601f1061153c57610100808354040283529160200191611567565b820191906000526020600020905b81548152906001019060200180831161154a57829003601f168201915b505050505090506116e5565b6115b2826040518060400160405280600a81526020017f64657669636554797065000000000000000000000000000000000000000000008152506117b0565b1561162c57600160a060020a03831660009081526004602090815260409182902060030180548351601f6002600019610100600186161502019093169290920491820184900484028101840190945280845290918301828280156115675780601f1061153c57610100808354040283529160200191611567565b61166b826040518060400160405280600a81526020017f646576696365526f6c65000000000000000000000000000000000000000000008152506117b0565b156116e557600160a060020a03831660009081526004602081815260409283902090910180548351601f6002600019610100600186161502019093169290920491820184900484028101840190945280845290918301828280156115675780601f1061153c57610100808354040283529160200191611567565b92915050565b600160a060020a03821660009081526004602052604090205460ff166117455760405160e560020a62461bcd028152600401808060200182810382526033815260200180612b1d6033913960400191505060405180910390fd5b600354600160a060020a031633146117915760405160e560020a62461bcd0281526004018080602001828103825260518152602001806127746051913960600191505060405180910390fd5b600160a060020a03909116600090815260046020526040902060050155565b8051825160009184918491146117cb576000925050506116e5565b81516001141561186157806000815181106117e257fe5b602001015160f860020a900460f860020a027effffffffffffffffffffffffffffffffffffffffffffffffffffffffffffff19168260008151811061182357fe5b602001015160f860020a900460f860020a027effffffffffffffffffffffffffffffffffffffffffffffffffffffffffffff191614925050506116e5565b836040516020018082805190602001908083835b602083106118945780518252601f199092019160209182019101611875565b6001836020036101000a03801982511681845116808217855250505050505090500191505060405160208183030381529060405280519060200120856040516020018082805190602001908083835b602083106119025780518252601f1990920191602091820191016118e3565b6001836020036101000a0380198251168184511680821785525050505050509050019150506040516020818303038152906040528051906020012014925050506116e5565b60025460ff161561198c5760405160e560020a62461bcd02815260040180806020018281038252602f815260200180612bd6602f913960400191505060405180910390fd5b600054600160a060020a03163314806119ad575033600160a060020a038216145b6119eb5760405160e560020a62461bcd028152600401808060200182810382526036815260200180612c8e6036913960400191505060405180910390fd5b6002805460038054600160a060020a0395861673ffffffffffffffffffffffffffffffffffffffff19918216811790925560ff19949095166101000274ffffffffffffffffffffffffffffffffffffffff0019909216919091179290921660019081179091558054909216179055565b600160a060020a03811660009081526004602052604090205460ff16611ab55760405160e560020a62461bcd02815260040180806020018281038252602a81526020018061283f602a913960400191505060405180910390fd5b600160a060020a038181166000908152600460205260409020546101009004163314611b155760405160e560020a62461bcd0281526004018080602001828103825260338152602001806128eb6033913960400191505060405180910390fd5b600160a060020a038082166000818152600460208181526040808420600181018054909716855260058352908420805460ff1916905593835252815474ffffffffffffffffffffffffffffffffffffffffff19168255825473ffffffffffffffffffffffffffffffffffffffff191690925590611b956002830182612717565b611ba3600383016000612717565b611bb1600483016000612717565b5060006005919091018190556001546040805160e160020a634f8e671f028152336004820152602481018490526003604482015242608482015260a06064820152600d60a48201527f4465766963652064656c6574650000000000000000000000000000000000000060c48201529051600160a060020a0390921692639f1cce3e9260e48084019382900301818387803b158015611c4e57600080fd5b505af1158015611c62573d6000803e3d6000fd5b5050505050565b600054600160a060020a031681565b600160a060020a031660009081526005602052604090205460ff1690565b60025460ff16611cf0576040805160e560020a62461bcd02815260206004820152601e60248201527f52657075746174696f6e20636f6e7472616374206e6f74206578697374210000604482015290519081900360640190fd5b600054600160a060020a0316331480611d1857506002546101009004600160a060020a031633145b611d565760405160e560020a62461bcd02815260040180806020018281038252603a815260200180612a1a603a913960400191505060405180910390fd5b60038054600160a060020a0390921673ffffffffffffffffffffffffffffffffffffffff19928316811790915560018054909216179055565b600160a060020a03821660009081526004602052604081205460ff16611de95760405160e560020a62461bcd028152600401808060200182810382526035815260200180612b506035913960400191505060405180910390fd5b611e28826040518060400160405280600781526020017f6d616e61676572000000000000000000000000000000000000000000000000008152506117b0565b15611e535750600160a060020a038083166000908152600460205260409020546101009004166116e5565b611e92826040518060400160405280600981526020017f73634164647265737300000000000000000000000000000000000000000000008152506117b0565b156116e55750600160a060020a03808316600090815260046020526040902060010154166116e5565b600160a060020a03861660009081526004602052604090205460ff1615611f165760405160e560020a62461bcd02815260040180806020018281038252602f815260200180612c05602f913960400191505060405180910390fd5b33600160a060020a03861614611f605760405160e560020a62461bcd02815260040180806020018281038252603a8152602001806129e0603a913960400191505060405180910390fd5b600160a060020a038681166000908152600460209081526040909120805474ffffffffffffffffffffffffffffffffffffffff0019166101008985160217815560018101805473ffffffffffffffffffffffffffffffffffffffff1916938816939093179092558451611fd99260020191860190612699565b50600160a060020a0386166000908152600460209081526040909120835161200992600390920191850190612699565b50600160a060020a0386166000908152600460208181526040909220835161203993919092019190840190612699565b505050600160a060020a0393841660009081526004602090815260408083206005808201859055815460ff199081166001908117909355969098168452969091529020805490921690931790555050565b600160a060020a03821660009081526004602052604090205460609060ff166120e75760405160e560020a62461bcd028152600401808060200182810382526032815260200180612a8d6032913960400191505060405180910390fd5b6004600084600160a060020a0316600160a060020a03168152602001908152602001600020600601826040518082805190602001908083835b6020831061213f5780518252601f199092019160209182019101612120565b51815160209384036101000a600019018019909216911617905292019485525060405193849003019092205460ff1691506121b090505760405160e560020a62461bcd02815260040180806020018281038252603081526020018061291e6030913960400191505060405180910390fd5b6004600084600160a060020a0316600160a060020a03168152602001908152602001600020600601826040518082805190602001908083835b602083106122085780518252601f1990920191602091820191016121e9565b518151600019602094850361010090810a8201928316921993909316919091179092529490920196875260408051978890038201882060019081018054601f600293821615909802909501909416049485018290048202880182019052838752909450919250508301828280156122c05780601f10612295576101008083540402835291602001916122c0565b820191906000526020600020905b8154815290600101906020018083116122a357829003601f168201915b5050505050905092915050565b600160a060020a03811660009081526004602052604081205460ff166123275760405160e560020a62461bcd0281526004018080602001828103825260308152602001806129b06030913960400191505060405180910390fd5b50600160a060020a031660009081526004602052604090206005015490565b600160a060020a03831660009081526004602052604090205460ff166123a05760405160e560020a62461bcd02815260040180806020018281038252602a815260200180612abf602a913960400191505060405180910390fd5b600160a060020a0383811660009081526004602052604090205461010090041633146124005760405160e560020a62461bcd028152600401808060200182810382526034815260200180612ae96034913960400191505060405180910390fd5b6004600084600160a060020a0316600160a060020a03168152602001908152602001600020600601826040518082805190602001908083835b602083106124585780518252601f199092019160209182019101612439565b51815160209384036101000a600019018019909216911617905292019485525060405193849003019092205460ff161591506124ca90505760405160e560020a62461bcd02815260040180806020018281038252602d815260200180612891602d913960400191505060405180910390fd5b806004600085600160a060020a0316600160a060020a03168152602001908152602001600020600601836040518082805190602001908083835b602083106125235780518252601f199092019160209182019101612504565b6001836020036101000a0380198251168184511680821785525050505050509050019150509081526020016040518091039020600101908051906020019061256c929190612699565b5060016004600085600160a060020a0316600160a060020a03168152602001908152602001600020600601836040518082805190602001908083835b602083106125c75780518252601f1990920191602091820191016125a8565b51815160209384036101000a600019018019909216911617905292019485525060408051948590039091018420805460ff19169515159590951790945550506001805460e160020a634f8e671f028352336004840152600060248401819052604484019290925242608484015260a06064840152600d60a48401527f417474726962757465206164640000000000000000000000000000000000000060c48401529251600160a060020a0390931692639f1cce3e9260e480820193929182900301818387803b158015610e6357600080fd5b828054600181600116156101000203166002900490600052602060002090601f016020900481019282601f106126da57805160ff1916838001178555612707565b82800160010185558215612707579182015b828111156127075782518255916020019190600101906126ec565b5061271392915061275e565b5090565b50805460018160011615610100020316600290046000825580601f1061273d575061275b565b601f01602090049060005260206000209081019061275b919061275e565b50565b5b80821115612713576000815560010161275f56fe75706461746554696d656f66556e626c6f636b6564206572726f723a204f6e6c792072657075746174696f6e20636f6e74726163742063616e207570646174652074696d65206f6620756e626c6f636b217570646174654d616e61676572206572726f723a204f6e6c79206d63206f776e6572206f7220646576696365206d616e616765722063616e2075706461746520646576696365206d616e616765722164656c657465417474726962757465206572726f723a20417474726962757465206e6f742065786973742164656c657465446576696365206572726f723a20446576696365206e6f7420726567697374657265642164656c657465417474726962757465206572726f723a20646576696365206e6f742065786973742161646420417474726962757465206572726f723a2041747472696275746520616c726561647920657869737421757064617465417474726962757465206572726f723a20446576696365206e6f7420726567697374657265642164656c657465446576696365206572726f723a204f6e6c79206d616e616765722063616e2072656d6f76652064657669636521676574437573746f6d6564417474726962757465206572726f723a20417474726962757465206e6f74206578697374217570646174654d616e61676572206572726f723a20446576696365206e6f7420726567697374657265642164656c657465417474726962757465206572726f723a204f6e6c79206f776e65722063616e2064656c657465206174747269627574652167657454696d656f66556e626c6f636b6564206572726f723a20446576696365206e6f742072656769737465726564216465766963655265676973746572206572726f723a204f6e6c79206d616e61676572206f66206465766963652063616e207265676973746572217570646174655243206572726f723a204f6e6c79206d63206f776e6572206f722072632063726561746f722063616e2075706461746520726321757064617465417474726962757465206572726f723a204f6e6c79206d616e616765722063616e207570646174652041747472696275746521676574437573746f6d6564417474726962757465206572726f723a20446576696365206e6f74207265676973746572656421616464417474726962757465206572726f723a20446576696365206e6f7420726567697374657265642161646420417474726962757465206572726f723a204f6e6c79206d616e616765722063616e20616464206174747269627574652175706461746554696d656f66556e626c6f636b6564206572726f723a20446576696365206e6f7420726567697374657265642167657444657669636552656c6174656441646472657373206572726f723a20446576696365206e6f742072656769737465726564216765744669786564417474726962757465206572726f723a20546865206174747269627574652070617373656420696e206973206e6f7420612064657669636520666978656420617474726962757465217365745243206572726f723a2052657075746174696f6e20636f6e747261637420616c7265616479206578697374216465766963655265676973746572206572726f723a2064657669636520616c726561647920726567697374657265646765744669786564417474726962757465206572726f723a20446576696365206e6f74207265676973746572656421757064617465417474726962757465206572726f723a20417474726962757465206e6f74206578697374217365745243206572726f723a204f6e6c79206d63206f776e6572206f722072632063726561746f722063616e20726567697374657221a2646970667358221220e5e72fcba3544a2ff12ce2302a806acb5dcca086c5c5294a3a52821ead31e09f64736f6c63430007000033",
  "immutableReferences": {},
  "source": "// SPDX-License-Identifier:MIT\npragma solidity >0.6.0 <0.8.0;\n\n/// @title Manage smart contracts and device attributes\n/// @author shuzang\ncontract Management {\n    address public owner; // The ower of management contract \n    ReputationM public rc;\n    \n    struct RCContract {\n        bool isValued;       // for duplicate check\n        address creator;     // the peer(account) who created and deployed reputation contract\n        address scAddress;   // the address of the smart contract\n    }\n    \n    struct AttrValue {\n        bool isValued; // fro duplicate check\n        string value; // attribute value\n    }\n    \n    struct Device {\n        bool isValued;                      // for duplicate check\n        address manager;                    // the address of gateway which device belong to, for the gateway, is itself\n        address scAddress;                  // the address of access control contract associate with device\n        string  deviceID;                   // the UUID of device\n        string  deviceType;                 // device type, e.g. Loudness Sensor\n        string  deviceRole;                 // device role, e.g. validator, manager or device \n        uint256 timeofUnblocked;              // time when the resource is unblocked (0 if unblocked, otherwise, blocked)\n        mapping (string => AttrValue) customed;   // other attribute self customed, can have no element\n    }\n    \n    \n    /// Mapping is marked internal, and write own getter function\n    RCContract public rcc;\n    mapping(address => Device)  internal lookupTable;\n    mapping(address => bool) internal isACCAddress; // judge if a address is a access control contract address, used by Reputation contract\n    \n    \n    /// @dev Set contract deployer as owner\n    constructor() {\n        owner = msg.sender; // 'msg.sender' is sender of current call, contract deployer for a constructor\n    }\n    \n    /// @dev set reputation contract\n    function setRC(address  _rc, address _creator) public {\n        //duplicate unchecked\n        require(\n            !rcc.isValued,\n            \"setRC error: Reputation contract already exist!\"\n        );\n        \n        require(\n            msg.sender == owner || msg.sender == _creator,\n            \"setRC error: Only mc owner or rc creator can register!\"\n        );\n        \n        // register\n        rcc.creator = _creator;\n        rcc.scAddress = _rc;\n        rcc.isValued = true;\n        \n        // setting for contract calls\n        rc = ReputationM(_rc);\n    }\n    \n    /// @dev update the information (i.e., scAddress) of a registered reputation contract\n    function updateRC(address _rc) public {\n        require(rcc.isValued, \"Reputation contract not exist!\");\n        require(\n            msg.sender == owner || msg.sender == rcc.creator,\n            \"updateRC error: Only mc owner or rc creator can update rc!\"\n        );\n\n        rcc.scAddress = _rc;\n        rc = ReputationM(_rc);\n    }\n    \n    /// @dev deviceRegister register device attributes\n    function deviceRegister(\n        address _device,\n        address _manager,\n        address _scAddress,\n        string memory _deviceID,\n        string memory _deviceType,\n        string memory _deviceRole\n    )\n        public \n    {\n        require (\n            !lookupTable[_device].isValued,\n            \"deviceRegister error: device already registered\"\n        );\n        \n        require(\n            msg.sender == _manager,\n            \"deviceRegister error: Only manager of device can register!\"\n        );\n        \n        lookupTable[_device].manager = _manager;\n        lookupTable[_device].scAddress = _scAddress;\n        lookupTable[_device].deviceID = _deviceID;\n        lookupTable[_device].deviceType = _deviceType;\n        lookupTable[_device].deviceRole = _deviceRole;\n        lookupTable[_device].timeofUnblocked = 0;\n        lookupTable[_device].isValued = true;\n        //rc.reputationCompute(msg.sender, false, 1, \"Device register\", now ); // \n        isACCAddress[_scAddress] = true;\n    }\n    \n    /// @dev addAttribute add additional attribute to the device\n    function addAttribute (\n        address _device,\n        string memory _attrName,\n        string memory _attrValue\n    )\n        public \n    {\n        require(lookupTable[_device].isValued, \"addAttribute error: Device not registered!\");\n        require (\n            msg.sender == lookupTable[_device].manager,\n            \"add Attribute error: Only manager can add attribute!\"\n        );\n        require(\n            !lookupTable[_device].customed[_attrName].isValued,\n            \"add Attribute error: Attribute already exist!\"\n        );\n        \n        lookupTable[_device].customed[_attrName].value = _attrValue;\n        lookupTable[_device].customed[_attrName].isValued = true;\n        rc.reputationCompute(msg.sender, false, 1, \"Attribute add\", block.timestamp);\n    }\n    \n    /// @dev updateManager update the manager of device\n    function updateManager (address _device, address _newManager) public {\n        require(lookupTable[_device].isValued, \"updateManager error: Device not registered!\");\n        require (\n            msg.sender == owner || msg.sender == lookupTable[_device].manager,\n            \"updateManager error: Only mc owner or device manager can update device manager!\"\n        );\n        lookupTable[_device].manager = _newManager;\n        rc.reputationCompute(msg.sender, false, 2, \"Device manager update\", block.timestamp);\n    }\n    \n    /// @dev updateAttribute update attribute of device\n    function updateAttribute (\n        address _device,\n        string memory _attrName,\n        string memory _attrValue\n    )\n        public \n    {\n        require(lookupTable[_device].isValued, \"updateAttribute error: Device not registered!\");\n        require (\n            msg.sender == lookupTable[_device].manager,\n            \"updateAttribute error: Only manager can update Attribute!\"\n        );\n        require(\n            lookupTable[_device].customed[_attrName].isValued,\n            \"updateAttribute error: Attribute not exist!\"\n        );\n        lookupTable[_device].customed[_attrName].value = _attrValue;\n        rc.reputationCompute(msg.sender, false, 2, \"Device customed attribute update\", block.timestamp);\n    }\n    \n    /// @dev updateTimeofUnblocked update the time of unblocked, \n    /// @notice this fucntion only can be call by reputation contract\n    function updateTimeofUnblocked(address _device, uint256 _timeofUnblocked) public {\n        require(\n            lookupTable[_device].isValued, \n            \"updateTimeofUnblocked error: Device not registered!\"\n        );\n        require(\n            msg.sender == rcc.scAddress, \n            \"updateTimeofUnblocked error: Only reputation contract can update time of unblock!\"\n        );\n        lookupTable[_device].timeofUnblocked = _timeofUnblocked;\n    }\n    \n    /// @dev get the fixed device attribute(type is string)\n    function getFixedAttribute (\n        address _device, \n        string memory _attrName\n    ) \n        public \n        view \n        returns (\n            string memory _attrValue\n        ) \n    {\n        require(lookupTable[_device].isValued, \"getFixedAttribute error: Device not registered!\");\n        require(\n            stringCompare(_attrName, \"deviceID\") || stringCompare(_attrName,\"deviceType\") || stringCompare(_attrName,\"deviceRole\"),\n            \"getFixedAttribute error: The attribute passed in is not a device fixed attribute!\"\n        );\n        if (stringCompare(_attrName, \"deviceID\")) {\n            return lookupTable[_device].deviceID;\n        }\n        if (stringCompare(_attrName,\"deviceType\")) {\n            return lookupTable[_device].deviceType;\n        } \n        if (stringCompare(_attrName,\"deviceRole\")) {\n            return lookupTable[_device].deviceRole;\n        }\n    }\n    \n    /// @dev get the fixed device attribute(type is address)\n    function getDeviceRelatedAddress(\n        address _device, \n        string memory _attrName\n    ) \n        public \n        view \n        returns (\n            address _attrValue\n        ) \n    {\n        require(lookupTable[_device].isValued, \"getDeviceRelatedAddress error: Device not registered!\");\n        if (stringCompare(_attrName, \"manager\")) {\n            return lookupTable[_device].manager;\n        }\n        if (stringCompare(_attrName, \"scAddress\")) {\n            return lookupTable[_device].scAddress;\n        }\n    }\n    \n    /// dev get the customed attribute\n    function getCustomedAttribute(\n        address _device, \n        string memory _attrName\n    ) \n        public \n        view \n        returns (\n            string memory _attrValue\n        ) \n    {\n        require(lookupTable[_device].isValued, \"getCustomedAttribute error: Device not registered!\");\n        require(\n            lookupTable[_device].customed[_attrName].isValued,\n            \"getCustomedAttribute error: Attribute not exist!\"\n        );\n        return lookupTable[_device].customed[_attrName].value;\n    }\n    \n    function getTimeofUnblocked(address _device) public view returns (uint256) {\n        require(lookupTable[_device].isValued, \"getTimeofUnblocked error: Device not registered!\");\n        return lookupTable[_device].timeofUnblocked;\n    }\n    \n    function isContractAddress(address _scAddress) public view returns (bool) {\n        return isACCAddress[_scAddress];\n    }\n    \n    /// @dev deleteDevice remove device from registered list\n    function deleteDevice(address _device) public {\n        require(lookupTable[_device].isValued, \"deleteDevice error: Device not registered!\");\n        require (\n            msg.sender == lookupTable[_device].manager,\n            \"deleteDevice error: Only manager can remove device!\"\n        );\n        delete isACCAddress[lookupTable[_device].scAddress];\n        delete lookupTable[_device];\n        rc.reputationCompute(msg.sender, false, 3, \"Device delete\", block.timestamp);\n    }\n    \n    /// @dev deleteAttribute delete customed attribute\n    function deleteAttribute(address _device, string memory _attrName) public {\n        require(lookupTable[_device].isValued, \"deleteAttribute error: device not exist!\");\n        require (\n            msg.sender == lookupTable[_device].manager,\n            \"deleteAttribute error: Only owner can delete attribute!\"\n        );\n        require (\n            lookupTable[_device].customed[_attrName].isValued,\n            \"deleteAttribute error: Attribute not exist!\"\n        );\n        delete lookupTable[_device].customed[_attrName];\n        rc.reputationCompute(msg.sender, false, 3, \"Attribute delete\", block.timestamp);\n    }\n\n    /// @dev stringCompare determine whether the strings are equal, using length + hash comparson to reduce gas consumption\n    function stringCompare(string memory a, string memory b) public pure returns (bool) {\n        bytes memory _a = bytes(a);\n        bytes memory _b = bytes(b);\n        if (_a.length != _b.length) {\n            return false;\n        } else {\n            if (_a.length == 1) {\n                return _a[0] == _b[0];\n            } else {\n                return keccak256(abi.encodePacked(a)) == keccak256(abi.encodePacked(b));\n            }\n        }\n    }\n}    \n\n\nabstract contract ReputationM {\n    function reputationCompute(\n        address _subject, \n        bool _ismisbehavior,\n        uint8 _behaviorID,\n        string memory _behavior,\n        uint256  _time\n    ) public virtual ;\n}",
  "sourcePath": "/home/shuzang/BBRAC-dev/contracts/Management.sol",
  "compiler": {
    "name": "solc",
    "version": "0.7.0+commit.9e61f92b.Emscripten.clang"
  },
  "schemaVersion": "3.3.1",
  "updatedAt": "2020-11-04T11:53:34.107Z",
  "networkType": "ethereum",
  "devdoc": {
    "author": "shuzang",
    "kind": "dev",
    "methods": {
      "addAttribute(address,string,string)": {
        "details": "addAttribute add additional attribute to the device"
      },
      "constructor": {
        "details": "Set contract deployer as owner"
      },
      "deleteAttribute(address,string)": {
        "details": "deleteAttribute delete customed attribute"
      },
      "deleteDevice(address)": {
        "details": "deleteDevice remove device from registered list"
      },
      "deviceRegister(address,address,address,string,string,string)": {
        "details": "deviceRegister register device attributes"
      },
      "getDeviceRelatedAddress(address,string)": {
        "details": "get the fixed device attribute(type is address)"
      },
      "getFixedAttribute(address,string)": {
        "details": "get the fixed device attribute(type is string)"
      },
      "setRC(address,address)": {
        "details": "set reputation contract"
      },
      "stringCompare(string,string)": {
        "details": "stringCompare determine whether the strings are equal, using length + hash comparson to reduce gas consumption"
      },
      "updateAttribute(address,string,string)": {
        "details": "updateAttribute update attribute of device"
      },
      "updateManager(address,address)": {
        "details": "updateManager update the manager of device"
      },
      "updateRC(address)": {
        "details": "update the information (i.e., scAddress) of a registered reputation contract"
      },
      "updateTimeofUnblocked(address,uint256)": {
        "details": "updateTimeofUnblocked update the time of unblocked, "
      }
    },
    "title": "Manage smart contracts and device attributes",
    "version": 1
  },
  "userdoc": {
    "kind": "user",
    "methods": {
      "getCustomedAttribute(address,string)": {
        "notice": "dev get the customed attribute"
      },
      "rcc()": {
        "notice": "Mapping is marked internal, and write own getter function"
      },
      "updateTimeofUnblocked(address,uint256)": {
        "notice": "this fucntion only can be call by reputation contract"
      }
    },
    "version": 1
  }
}