{
  "contractName": "Object",
  "abi": [
    {
      "inputs": [],
      "stateMutability": "nonpayable",
      "type": "constructor"
    },
    {
      "inputs": [],
      "name": "owner",
      "outputs": [
        {
          "internalType": "address",
          "name": "",
          "type": "address"
        }
      ],
      "stateMutability": "view",
      "type": "function",
      "constant": true
    },
    {
      "inputs": [
        {
          "internalType": "address",
          "name": "_device",
          "type": "address"
        },
        {
          "internalType": "string",
          "name": "_oa",
          "type": "string"
        }
      ],
      "name": "addObattr",
      "outputs": [],
      "stateMutability": "nonpayable",
      "type": "function"
    },
    {
      "inputs": [
        {
          "internalType": "address",
          "name": "_device",
          "type": "address"
        }
      ],
      "name": "deleteObattr",
      "outputs": [],
      "stateMutability": "nonpayable",
      "type": "function"
    },
    {
      "inputs": [
        {
          "internalType": "address",
          "name": "_device",
          "type": "address"
        }
      ],
      "name": "getAttr",
      "outputs": [
        {
          "internalType": "string",
          "name": "_oa",
          "type": "string"
        }
      ],
      "stateMutability": "view",
      "type": "function",
      "constant": true
    }
  ],
  "bytecode": "0x608060405234801561001057600080fd5b5060008054600160a060020a031916331790556106d5806100326000396000f3fe608060405234801561001057600080fd5b5060043610610068577c010000000000000000000000000000000000000000000000000000000060003504634f6e7f0d811461006d5780637f6a8103146101255780638c9a876f1461014b5780638da5cb5b146101e6575b600080fd5b6101236004803603604081101561008357600080fd5b600160a060020a0382351691908101906040810160208201356401000000008111156100ae57600080fd5b8201836020820111156100c057600080fd5b803590602001918460018302840111640100000000831117156100e257600080fd5b91908080601f01602080910402602001604051908101604052809392919081815260200183838082843760009201919091525092955061020a945050505050565b005b6101236004803603602081101561013b57600080fd5b5035600160a060020a0316610307565b6101716004803603602081101561016157600080fd5b5035600160a060020a03166103e2565b6040805160208082528351818301528351919283929083019185019080838360005b838110156101ab578181015183820152602001610193565b50505050905090810190601f1680156101d85780820380516001836020036101000a031916815260200191505b509250505060405180910390f35b6101ee6104ff565b60408051600160a060020a039092168252519081900360200190f35b33600160a060020a038316146102545760405160e560020a62461bcd0281526004018080602001828103825260398152602001806105e96039913960400191505060405180910390fd5b600160a060020a03821660009081526001602052604090205460ff16156102af5760405160e560020a62461bcd0281526004018080602001828103825260298152602001806106776029913960400191505060405180910390fd5b600160a060020a038216600090815260016020818152604090922083516102de9391909201919084019061050e565b5050600160a060020a03166000908152600160208190526040909120805460ff19169091179055565b600054600160a060020a031633146103535760405160e560020a62461bcd0281526004018080602001828103825260308152602001806106226030913960400191505060405180910390fd5b600160a060020a03811660009081526001602052604090205460ff166103ad5760405160e560020a62461bcd0281526004018080602001828103825260258152602001806106526025913960400191505060405180910390fd5b600160a060020a03811660009081526001602081905260408220805460ff1916815591906103dd9083018261058c565b505050565b600160a060020a03811660009081526001602052604090205460609060ff16610455576040805160e560020a62461bcd02815260206004820181905260248201527f67657441747472206572726f723a20646576696365206e6f7420657869737473604482015290519081900360640190fd5b600160a060020a038216600090815260016020818152604092839020820180548451600294821615610100026000190190911693909304601f81018390048302840183019094528383529192908301828280156104f35780601f106104c8576101008083540402835291602001916104f3565b820191906000526020600020905b8154815290600101906020018083116104d657829003601f168201915b50505050509050919050565b600054600160a060020a031681565b828054600181600116156101000203166002900490600052602060002090601f016020900481019282601f1061054f57805160ff191683800117855561057c565b8280016001018555821561057c579182015b8281111561057c578251825591602001919060010190610561565b506105889291506105d3565b5090565b50805460018160011615610100020316600290046000825580601f106105b257506105d0565b601f0160209004906000526020600020908101906105d091906105d3565b50565b5b8082111561058857600081556001016105d456fe6164644f6261747472206572726f723a204f6e6c79206465766963652063616e206164642061747472696275746520746f20697473656c662164656c6574654f6261747472206572726f723a204f6e6c79206f776e6572206f66204f432063616e2064656c6574652164656c6574654f6261747472206572726f723a20646576696365206e6f74206578697374736164644f6261747472206572726f723a2061747472696275746520616c726561647920657869737421a2646970667358221220792a6e3e14b334cde6bbd98f37b58ea91cde5828a06252c3981b4954dc12e4ef64736f6c63430007000033",
  "immutableReferences": {},
  "source": "// SPDX-License-Identifier:MIT\r\npragma solidity >=0.4.22 <=0.7.0;\r\n\r\n/* @title: management of OA for each device\r\n   @author: shuzang\r\n*/\r\ncontract Object {\r\n    address public owner;\r\n    \r\n    struct device{\r\n        bool isValued;\r\n        string  OA;\r\n    }\r\n    \r\n    mapping(address => device) internal devices; // the list of legitimate devices\r\n    \r\n    constructor() {\r\n        owner = msg.sender; // 'msg.sender' is sender of current call, contract deployer for a constructor\r\n    }\r\n    \r\n    /* @dev addObattr add object attribute to device\r\n    */\r\n    function addObattr (address _device, string memory _oa) public {\r\n        require(msg.sender == _device, \"addObattr error: Only device can add attribute to itself!\");\r\n        require(\r\n            !devices[_device].isValued,\r\n            \"addObattr error: attribute already exist!\"\r\n        );\r\n\r\n        devices[_device].OA = _oa;\r\n        devices[_device].isValued = true;\r\n    }\r\n    \r\n    \r\n    /* @dev deleteObattr delete object attribute of device\r\n    */\r\n    function deleteObattr(address _device) public {\r\n        require(\r\n            msg.sender == owner,\r\n            \"deleteObattr error: Only owner of OC can delete!\"\r\n        );        \r\n        require (\r\n            devices[_device].isValued,\r\n            \"deleteObattr error: device not exists\"\r\n        );\r\n\r\n        delete devices[_device];\r\n    }\r\n    \r\n    /*@dev getAttr get object attribute of devices\r\n    */\r\n    function getAttr(address _device) public view returns (string memory _oa) {\r\n        require (\r\n            devices[_device].isValued,\r\n            \"getAttr error: device not exists\"\r\n        );\r\n        \r\n        return devices[_device].OA;\r\n    }\r\n}    ",
  "sourcePath": "/home/shuzang/BBRAC-dev/contracts/Object.sol",
  "compiler": {
    "name": "solc",
    "version": "0.7.0+commit.9e61f92b.Emscripten.clang"
  },
  "schemaVersion": "3.3.1",
  "updatedAt": "2020-11-03T07:09:09.619Z",
  "networkType": "ethereum",
  "devdoc": {
    "kind": "dev",
    "methods": {},
    "version": 1
  },
  "userdoc": {
    "kind": "user",
    "methods": {},
    "version": 1
  }
}