{
  "contractName": "Register",
  "abi": [
    {
      "inputs": [
        {
          "internalType": "bytes32",
          "name": "",
          "type": "bytes32"
        }
      ],
      "name": "lookupTable",
      "outputs": [
        {
          "internalType": "bytes32",
          "name": "scType",
          "type": "bytes32"
        },
        {
          "internalType": "address",
          "name": "subject",
          "type": "address"
        },
        {
          "internalType": "address",
          "name": "object",
          "type": "address"
        },
        {
          "internalType": "address",
          "name": "manager",
          "type": "address"
        },
        {
          "internalType": "address",
          "name": "scAddress",
          "type": "address"
        }
      ],
      "stateMutability": "view",
      "type": "function",
      "constant": true
    },
    {
      "inputs": [
        {
          "internalType": "bytes32",
          "name": "_methodName",
          "type": "bytes32"
        },
        {
          "internalType": "bytes32",
          "name": "_sctype",
          "type": "bytes32"
        },
        {
          "internalType": "address",
          "name": "_subject",
          "type": "address"
        },
        {
          "internalType": "address",
          "name": "_object",
          "type": "address"
        },
        {
          "internalType": "address",
          "name": "_manager",
          "type": "address"
        },
        {
          "internalType": "address",
          "name": "_scAddress",
          "type": "address"
        }
      ],
      "name": "methodRegister",
      "outputs": [],
      "stateMutability": "nonpayable",
      "type": "function"
    },
    {
      "inputs": [
        {
          "internalType": "bytes32",
          "name": "_methodName",
          "type": "bytes32"
        },
        {
          "internalType": "address",
          "name": "_scAddress",
          "type": "address"
        }
      ],
      "name": "methodAcAddressUpdate",
      "outputs": [],
      "stateMutability": "nonpayable",
      "type": "function"
    },
    {
      "inputs": [
        {
          "internalType": "bytes32",
          "name": "_oldName",
          "type": "bytes32"
        },
        {
          "internalType": "bytes32",
          "name": "_newName",
          "type": "bytes32"
        }
      ],
      "name": "methodNameUpdate",
      "outputs": [],
      "stateMutability": "nonpayable",
      "type": "function"
    },
    {
      "inputs": [
        {
          "internalType": "bytes32",
          "name": "_methodName",
          "type": "bytes32"
        }
      ],
      "name": "methodDelete",
      "outputs": [],
      "stateMutability": "nonpayable",
      "type": "function"
    },
    {
      "inputs": [
        {
          "internalType": "bytes32",
          "name": "_methodName",
          "type": "bytes32"
        }
      ],
      "name": "getContractAddr",
      "outputs": [
        {
          "internalType": "address",
          "name": "_scAddress",
          "type": "address"
        }
      ],
      "stateMutability": "view",
      "type": "function",
      "constant": true
    }
  ],
  "bytecode": "0x608060405234801561001057600080fd5b50610421806100206000396000f3fe608060405234801561001057600080fd5b506004361061007e577c010000000000000000000000000000000000000000000000000000000060003504631d2cdc3b811461008357806322cad3da146100bc578063735a749b146101125780638a53e44c1461015e578063b866cc881461017b578063d25b3fb8146101a7575b600080fd5b6100a06004803603602081101561009957600080fd5b50356101ca565b60408051600160a060020a039092168252519081900360200190f35b6100d9600480360360208110156100d257600080fd5b50356101e8565b60408051958652600160a060020a0394851660208701529284168584015290831660608501529091166080830152519081900360a00190f35b61015c600480360360c081101561012857600080fd5b50803590602081013590600160a060020a0360408201358116916060810135821691608082013581169160a0013516610227565b005b61015c6004803603602081101561017457600080fd5b503561029e565b61015c6004803603604081101561019157600080fd5b5080359060200135600160a060020a03166102f3565b61015c600480360360408110156101bd57600080fd5b5080359060200135610331565b600090815260208190526040902060040154600160a060020a031690565b600060208190529081526040902080546001820154600283015460038401546004909401549293600160a060020a039283169391831692908116911685565b60009586526020869052604090952093845560018401805473ffffffffffffffffffffffffffffffffffffffff19908116600160a060020a03958616179091556002850180548216938516939093179092556003840180548316918416919091179055600490920180549092169216919091179055565b600090815260208190526040812090815560018101805473ffffffffffffffffffffffffffffffffffffffff199081169091556002820180548216905560038201805482169055600490910180549091169055565b600091825260208290526040909120600401805473ffffffffffffffffffffffffffffffffffffffff1916600160a060020a03909216919091179055565b600082815260208190526040808220805493835290822092835560018082018054918501805473ffffffffffffffffffffffffffffffffffffffff19908116600160a060020a03948516179091556002808501805491880180548416928616929092179091556003808601805491890180548516928716929092179091556004808701805491909901805485169190961617909455968552939092558154831690915583548216909355825481169092558054909116905556fea2646970667358221220fb1a13f7372b3f869f59337913ca6c55d2f9329b2201a349fe76dda85bfef6e564736f6c63430007000033",
  "immutableReferences": {},
  "source": "// SPDX-License-Identifier:MIT\r\npragma solidity ^0.7.0;\r\n\r\ncontract Register {\r\n    struct Method{\r\n        bytes32 scType;       //contract type\r\n        address subject;     //the subject of the corresponding subject-object pair of the ACC;for the JC, this filed is left blank;\r\n        address object;      //the object of the corresponding subject-object pair of the ACC;for the JC, this filed is left blank;\r\n        address manager;     //the peer(account) who created and deployed this contract\r\n        address scAddress;   //the address of the contract\r\n    }\r\n    \r\n    mapping(bytes32=>Method) public lookupTable;\r\n    \r\n    /*\r\n    register an access control contract(ACC)\r\n    */\r\n    function methodRegister(\r\n        bytes32 _methodName, \r\n        bytes32 _sctype, \r\n        address _subject, \r\n        address _object, \r\n        address _manager, \r\n        address  _scAddress) \r\n        public \r\n    {\r\n        //no duplicate unchecked\r\n        bytes32 newKey = _methodName;\r\n        lookupTable[newKey].scType = _sctype;\r\n        lookupTable[newKey].subject = _subject;\r\n        lookupTable[newKey].object = _object;\r\n        lookupTable[newKey].manager = _manager;\r\n        lookupTable[newKey].scAddress = _scAddress;\r\n    }\r\n    \r\n    /*\r\n    update the ACC information (i.e., scAddress) of an exisiting method specified by the methodName\r\n    */\r\n    \r\n    function methodAcAddressUpdate(bytes32 _methodName, address _scAddress) public{\r\n        lookupTable[_methodName].scAddress = _scAddress;\r\n    }\r\n    \r\n    /*\r\n    update the name (_oldname) of an exisiting method with a new name (_newname)\r\n    */\r\n    function methodNameUpdate(bytes32 _oldName, bytes32 _newName) public {\r\n        lookupTable[_newName].scType = lookupTable[_oldName].scType;\r\n        lookupTable[_newName].subject = lookupTable[_oldName].subject;\r\n        lookupTable[_newName].object = lookupTable[_oldName].object;\r\n        lookupTable[_newName].manager = lookupTable[_oldName].manager;\r\n        lookupTable[_newName].scAddress = lookupTable[_oldName].scAddress;\r\n        delete lookupTable[_oldName];\r\n    }\r\n    \r\n    function methodDelete(bytes32 _methodName) public{\r\n        delete lookupTable[_methodName];\r\n    }\r\n    \r\n    function getContractAddr(bytes32 _methodName) public view returns (address _scAddress){\r\n        _scAddress = lookupTable[_methodName].scAddress;\r\n    }\r\n}",
  "sourcePath": "/home/shuzang/BBRAC-dev/contracts/RC.sol",
  "compiler": {
    "name": "solc",
    "version": "0.7.0+commit.9e61f92b.Emscripten.clang"
  },
  "schemaVersion": "3.3.1",
  "updatedAt": "2020-11-03T03:36:54.813Z",
  "networkType": "ethereum",
  "devdoc": {
    "kind": "dev",
    "methods": {},
    "version": 1
  },
  "userdoc": {
    "kind": "user",
    "methods": {},
    "version": 1
  }
}