{
  "contractName": "Reputation",
  "abi": [
    {
      "inputs": [
        {
          "internalType": "address",
          "name": "_mc",
          "type": "address"
        }
      ],
      "stateMutability": "nonpayable",
      "type": "constructor"
    },
    {
      "anonymous": false,
      "inputs": [
        {
          "indexed": true,
          "internalType": "address",
          "name": "_from",
          "type": "address"
        },
        {
          "indexed": false,
          "internalType": "bool",
          "name": "_ismisbehavior",
          "type": "bool"
        },
        {
          "indexed": false,
          "internalType": "string",
          "name": "_behavior",
          "type": "string"
        },
        {
          "indexed": false,
          "internalType": "uint256",
          "name": "_time",
          "type": "uint256"
        },
        {
          "indexed": false,
          "internalType": "int256",
          "name": "Cr",
          "type": "int256"
        },
        {
          "indexed": false,
          "internalType": "uint256",
          "name": "Tblocked",
          "type": "uint256"
        }
      ],
      "name": "isCalled",
      "type": "event"
    },
    {
      "inputs": [
        {
          "internalType": "address",
          "name": "",
          "type": "address"
        }
      ],
      "name": "behaviorsLookup",
      "outputs": [
        {
          "internalType": "uint256",
          "name": "begin",
          "type": "uint256"
        },
        {
          "internalType": "uint256",
          "name": "TimeofUnblock",
          "type": "uint256"
        }
      ],
      "stateMutability": "view",
      "type": "function",
      "constant": true
    },
    {
      "inputs": [],
      "name": "evAttr",
      "outputs": [
        {
          "internalType": "bytes16",
          "name": "CrPmax",
          "type": "bytes16"
        },
        {
          "internalType": "bytes16",
          "name": "gamma",
          "type": "bytes16"
        }
      ],
      "stateMutability": "view",
      "type": "function",
      "constant": true
    },
    {
      "inputs": [],
      "name": "mc",
      "outputs": [
        {
          "internalType": "contract ManagementR",
          "name": "",
          "type": "address"
        }
      ],
      "stateMutability": "view",
      "type": "function",
      "constant": true
    },
    {
      "inputs": [],
      "name": "mcAddress",
      "outputs": [
        {
          "internalType": "address",
          "name": "",
          "type": "address"
        }
      ],
      "stateMutability": "view",
      "type": "function",
      "constant": true
    },
    {
      "inputs": [],
      "name": "owner",
      "outputs": [
        {
          "internalType": "address",
          "name": "",
          "type": "address"
        }
      ],
      "stateMutability": "view",
      "type": "function",
      "constant": true
    },
    {
      "inputs": [
        {
          "internalType": "string",
          "name": "_name",
          "type": "string"
        },
        {
          "internalType": "uint256",
          "name": "index",
          "type": "uint256"
        },
        {
          "internalType": "int256",
          "name": "value",
          "type": "int256"
        },
        {
          "internalType": "int256",
          "name": "base",
          "type": "int256"
        }
      ],
      "name": "updateEnvironment",
      "outputs": [],
      "stateMutability": "nonpayable",
      "type": "function"
    },
    {
      "inputs": [
        {
          "internalType": "address",
          "name": "_subject",
          "type": "address"
        },
        {
          "internalType": "bool",
          "name": "_ismisbehavior",
          "type": "bool"
        },
        {
          "internalType": "uint8",
          "name": "_behaviorID",
          "type": "uint8"
        },
        {
          "internalType": "string",
          "name": "_behavior",
          "type": "string"
        },
        {
          "internalType": "uint256",
          "name": "_time",
          "type": "uint256"
        }
      ],
      "name": "reputationCompute",
      "outputs": [],
      "stateMutability": "nonpayable",
      "type": "function"
    },
    {
      "inputs": [
        {
          "internalType": "address",
          "name": "_requester",
          "type": "address"
        },
        {
          "internalType": "uint8",
          "name": "_behaviorType",
          "type": "uint8"
        }
      ],
      "name": "getLastBehavior",
      "outputs": [
        {
          "internalType": "uint256",
          "name": "_behaviorID",
          "type": "uint256"
        },
        {
          "internalType": "string",
          "name": "_behavior",
          "type": "string"
        },
        {
          "internalType": "uint256",
          "name": "_time",
          "type": "uint256"
        }
      ],
      "stateMutability": "view",
      "type": "function",
      "constant": true
    }
  ],
  "bytecode": "0x60806040523480156200001157600080fd5b5060405162003fe738038062003fe7833981810160405260208110156200003757600080fd5b505160008054600160a060020a0319908116331790915560028054600160a060020a0384169083168117909155600180549092161790556200008164010000000062000088810204565b50620001e4565b600680547f3ffd3333333333333333333333333333000000000000000000000000000000006001608060020a03199182166f3ffc9999999999999999999999999999176001608060020a039081168217909355600780547f3ffd9999999999999999999999999999000000000000000000000000000000009084166f3ffe0000000000000000000000000000908117861691909117909155600480546f3ffb9999999999999999999999999999908516811786167f3ffb9999999999999999999999999999000000000000000000000000000000001790915560058054851690911785167f3ffc99999999999999999999999999990000000000000000000000000000000017905560088054841690911784167f3ffe000000000000000000000000000000000000000000000000000000000000179055600980546f4003e0000000000000000000000000009316929092179092169091179055565b613df380620001f46000396000f3fe608060405234801561001057600080fd5b506004361061008c5760003560e060020a900480638da5cb5b1161005f5780638da5cb5b1461025c5780639f1cce3e14610264578063cb7956b01461032d578063f04b99e5146103355761008c565b806310278bb3146100915780632a46640f146101445780633f0048871461016857806346afd917146101a7575b600080fd5b610142600480360360808110156100a757600080fd5b8101906020810181356401000000008111156100c257600080fd5b8201836020820111156100d457600080fd5b803590602001918460018302840111640100000000831117156100f657600080fd5b91908080601f0160208091040260200160405190810160405280939291908181526020018383808284376000920191909152509295505082359350505060208101359060400135610364565b005b61014c610b1b565b60408051600160a060020a039092168252519081900360200190f35b61018e6004803603602081101561017e57600080fd5b5035600160a060020a0316610b2a565b6040805192835260208301919091528051918290030190f35b6101d6600480360360408110156101bd57600080fd5b508035600160a060020a0316906020013560ff16610b46565b6040518084815260200180602001838152602001828103825284818151815260200191508051906020019080838360005b8381101561021f578181015183820152602001610207565b50505050905090810190601f16801561024c5780820380516001836020036101000a031916815260200191505b5094505050505060405180910390f35b61014c610e60565b610142600480360360a081101561027a57600080fd5b600160a060020a0382351691602081013515159160ff60408301351691908101906080810160608201356401000000008111156102b657600080fd5b8201836020820111156102c857600080fd5b803590602001918460018302840111640100000000831117156102ea57600080fd5b91908080601f0160208091040260200160405190810160405280939291908181526020018383808284376000920191909152509295505091359250610e6f915050565b61014c6115b0565b61033d6115bf565b604080516001608060020a0319938416815291909216602082015281519081900390910190f35b600054600160a060020a031633146103b05760405160e560020a62461bcd028152600401808060200182810382526043815260200180613d7b6043913960600191505060405180910390fd5b60006103cc6103be846115d2565b6103c7846115d2565b61166e565b905073__Utils_________________________________6360353db9866040518263ffffffff1660e060020a028152600401808060200180602001838103835284818151815260200191508051906020019080838360005b8381101561043c578181015183820152602001610424565b50505050905090810190601f1680156104695780820380516001836020036101000a031916815260200191505b50838103825260058152602001807f6f6d656761000000000000000000000000000000000000000000000000000000815250602001935050505060206040518083038186803b1580156104bb57600080fd5b505af41580156104cf573d6000803e3d6000fd5b505050506040513d60208110156104e557600080fd5b505115610569576004841061052e5760405160e560020a62461bcd028152600401808060200182810382526031815260200180613cf06031913960400191505060405180910390fd5b8060048581811061053b57fe5b600291828204019190066010026101000a8154816001608060020a030219169083608060020a900402179055505b6040805160e060020a6360353db90281526004810191825286516044820152865173__Utils_________________________________926360353db992899282916024810191606490910190602086019080838360005b838110156105d85781810151838201526020016105c0565b50505050905090810190601f1680156106055780820380516001836020036101000a031916815260200191505b50838103825260058152602001807f616c706861000000000000000000000000000000000000000000000000000000815250602001935050505060206040518083038186803b15801561065757600080fd5b505af415801561066b573d6000803e3d6000fd5b505050506040513d602081101561068157600080fd5b50511561070657600484106106ca5760405160e560020a62461bcd028152600401808060200182810382526031815260200180613cf06031913960400191505060405180910390fd5b80600685600481106106d857fe5b600291828204019190066010026101000a8154816001608060020a030219169083608060020a900402179055505b6040805160e060020a6360353db90281526004810191825286516044820152865173__Utils_________________________________926360353db992899282916024810191606490910190602086019080838360005b8381101561077557818101518382015260200161075d565b50505050905090810190601f1680156107a25780820380516001836020036101000a031916815260200191505b50838103825260068152602001807f6c616d6264610000000000000000000000000000000000000000000000000000815250602001935050505060206040518083038186803b1580156107f457600080fd5b505af4158015610808573d6000803e3d6000fd5b505050506040513d602081101561081e57600080fd5b5051156108a357600484106108675760405160e560020a62461bcd028152600401808060200182810382526031815260200180613cf06031913960400191505060405180910390fd5b806008856002811061087557fe5b600291828204019190066010026101000a8154816001608060020a030219169083608060020a900402179055505b6040805160e060020a6360353db90281526004810191825286516044820152865173__Utils_________________________________926360353db992899282916024810191606490910190602086019080838360005b838110156109125781810151838201526020016108fa565b50505050905090810190601f16801561093f5780820380516001836020036101000a031916815260200191505b50838103825260068152602001807f4372506d61780000000000000000000000000000000000000000000000000000815250602001935050505060206040518083038186803b15801561099157600080fd5b505af41580156109a5573d6000803e3d6000fd5b505050506040513d60208110156109bb57600080fd5b5051156109db57600980546001608060020a031916608060020a83041790555b6040805160e060020a6360353db90281526004810191825286516044820152865173__Utils_________________________________926360353db992899282916024810191606490910190602086019080838360005b83811015610a4a578181015183820152602001610a32565b50505050905090810190601f168015610a775780820380516001836020036101000a031916815260200191505b50838103825260058152602001807f67616d6d61000000000000000000000000000000000000000000000000000000815250602001935050505060206040518083038186803b158015610ac957600080fd5b505af4158015610add573d6000803e3d6000fd5b505050506040513d6020811015610af357600080fd5b505115610b1457600980546001608060020a0316608060020a808404021790555b5050505050565b600154600160a060020a031681565b6003602081905260009182526040909120600281015491015482565b60006060818060ff8516610cff57600160a060020a038616600090815260036020526040902054610bab5760405160e560020a62461bcd028152600401808060200182810382526024815260200180613ccc6024913960400191505060405180910390fd5b50600160a060020a038516600090815260036020526040902080546000198101919082908110610bd757fe5b60009182526020808320600490920290910154600160a060020a038916835260039091526040909120805460ff90921695509082908110610c1457fe5b90600052602060002090600402016001018054600181600116156101000203166002900480601f016020809104026020016040519081016040528092919081815260200182805460018160011615610100020316600290048015610cb95780601f10610c8e57610100808354040283529160200191610cb9565b820191906000526020600020905b815481529060010190602001808311610c9c57829003601f168201915b50505050600160a060020a03881660009081526003602052604090208054929550918391508110610ce657fe5b9060005260206000209060040201600201549150610e58565b50600160a060020a038516600090815260036020526040902060010180546000198101919082908110610d2e57fe5b60009182526020808320600490920290910154600160a060020a038916835260039091526040909120600101805460ff90921695509082908110610d6e57fe5b90600052602060002090600402016001018054600181600116156101000203166002900480601f016020809104026020016040519081016040528092919081815260200182805460018160011615610100020316600290048015610e135780601f10610de857610100808354040283529160200191610e13565b820191906000526020600020905b815481529060010190602001808311610df657829003601f168201915b50505050600160a060020a03881660009081526003602052604090206001018054929550918391508110610e4357fe5b90600052602060002090600402016002015491505b509250925092565b600054600160a060020a031681565b600254604080517f8ed9606a0000000000000000000000000000000000000000000000000000000081523360048201529051600160a060020a0390921691638ed9606a91602480820192602092909190829003018186803b158015610ed357600080fd5b505afa158015610ee7573d6000803e3d6000fd5b505050506040513d6020811015610efd57600080fd5b505180610f145750600154600160a060020a031633145b610f525760405160e560020a62461bcd02815260040180806020018281038252603a815260200180613d21603a913960400191505060405180910390fd5b60008060008615611060576003600089600160a060020a0316600160a060020a0316815260200190815260200160002060010160405180608001604052808860ff168152602001878152602001868152602001600460020160018a0360ff1660048110610fbb57fe5b60028104919091015460019182166010026101000a9004608060020a026001608060020a0319169091528254808201845560009384526020938490208351600490920201805460ff191660ff9092169190911781558284015180519394919361102b938501929190910190613c38565b5060408201516002820155606090910151600390910180546001608060020a031916608060020a90920491909117905561115f565b6003600089600160a060020a0316600160a060020a0316815260200190815260200160002060000160405180608001604052808860ff168152602001878152602001868152602001600460000160018a0360ff16600481106110be57fe5b60028104919091015460019182166010026101000a9004608060020a026001608060020a0319169091528254808201845560009384526020938490208351600490920201805460ff191660ff9092169190911781558284015180519394919361112e938501929190910190613c38565b5060408201516002820155606090910151600390910180546001608060020a031916608060020a9092049190911790555b600160a060020a038816600090815260036020526040812060010154905b818110156111eb57600160a060020a038a1660009081526003602052604081206001018054839081106111ac57fe5b6000918252602090912060036004909202010154608060020a0290506111e0866111db836103c78688036119ad565b611a1e565b95505060010161117d565b50611206611201856111fc846119ad565b611e8b565b612136565b600160a060020a038a1660009081526003602052604090206002810154905491955090819003905b600160a060020a038b1660009081526003602052604090205481101561135c57600160a060020a038b16600090815260036020526040812060010180548390811061127557fe5b6000918252602080832060049283020160030154600954604080517f4941d66b000000000000000000000000000000000000000000000000000000008152608060020a9283900483026001608060020a031916958101959095528789036024860152519102945073__Utils_________________________________92634941d66b926044808301939192829003018186803b15801561131457600080fd5b505af4158015611328573d6000803e3d6000fd5b505050506040513d602081101561133e57600080fd5b50519050611350876111db8484611e8b565b9650505060010161122e565b5061136a846103c7836119ad565b60095490945061138090608060020a028561213f565b60000b600019141561139857600954608060020a0293505b6008546000906113d2906113cd906113b690608060020a0288611e8b565b6008546111db90608060020a90819004028a611e8b565b6122a8565b600160a060020a038c1660009081526003602081905260409091200154909150421180156114005750600081125b156114de57600160a060020a038b16600090815260036020526040902080546000190160029091015561143d6113cd611438836115d2565b612399565b600160a060020a03808d166000818152600360208190526040808320428701920182905560025481517f87955de20000000000000000000000000000000000000000000000000000000081526004810195909552602485019290925251949850909216926387955de29260448084019391929182900301818387803b1580156114c557600080fd5b505af11580156114d9573d6000803e3d6000fd5b505050505b8a600160a060020a03167fa84ffe79520460f92521c5512e3b15fe13430ffa52b93d78aea2ec6fd2289ce78b8a8a858960405180861515815260200180602001858152602001848152602001838152602001828103825286818151815260200191508051906020019080838360005b8381101561156557818101518382015260200161154d565b50505050905090810190601f1680156115925780820380516001836020036101000a031916815260200191505b50965050505050505060405180910390a25050505050505050505050565b600254600160a060020a031681565b600954608060020a808202918190040282565b6000816115e157506000611669565b60008083136115f357826000036115f5565b825b9050600061160282613b75565b9050607081101561161e5780607003829060020a029150611634565b607081111561163457606f19810160020a909104905b6001607060020a03909116607060020a613fff8301021790600084121561165f57607f60020a821791505b50608060020a0290505b919050565b6000617fff607060020a6001608060020a03608060020a8087048216839004841693908604909116919091048116908214156116d25780617fff14156116c1575060ef60020a61ffff0291506119a79050565b50505060ff60020a811682186119a7565b80617fff1415611726577dffffffffffffffffffffffffffff00000000000000000000000000000000841615611715575060ef60020a61ffff0291506119a79050565b50505080821860ff60020a166119a7565b600080516020613d5b833981519152841661177e57600080516020613d5b8339815191528516611763575060ef60020a61ffff0291506119a79050565b50505080821860ff60020a1660f060020a617fff02176119a7565b6001607060020a03608060020a8504168161179c57600191506117a3565b607060020a175b6001607060020a03608060020a870416836117e65780156117e15760006117c982613b75565b6001955060e203938401607119019360020a90910290505b6117fe565b607060020a176e040000000000000000000000000000025b81818161180757fe5b049050806118345760ff60020a87871816611823576000611829565b60ff60020a5b9450505050506119a7565b6d100000000000000000000000000081101561184c57fe5b60006e0800000000000000000000000000008210156118ad576e0400000000000000000000000000008210156118a2576e02000000000000000000000000000082101561189a57607061189d565b60715b6118a5565b60725b60ff166118b6565b6118b682613b75565b9050836140710181860111156118d457617fff94506000915061196f565b83818601613ffc0110156118ef57600094506000915061196f565b83818601613f8c011015611941578385613ffc01111561191c57838503613ffc0160020a90910290611938565b8385613ffc01101561193857613ffb198585030160020a909104905b6000945061196f565b607081111561195757606f19810160020a909104905b6001607060020a038216915083818601613f8d010394505b816070869060020a02888a18607f60020a608060020a0216608060020a90046001608060020a03161717608060020a02955050505050505b92915050565b6000816119bc57506000611669565b8160006119c882613b75565b905060708110156119e45780607003829060020a0291506119fa565b60708111156119fa57606f19810160020a909104905b613fff01607060020a026001607060020a039190911617608060020a029050611669565b6000617fff607060020a6001608060020a03608060020a808704821683900484169390860490911691909104811690821415611a9a5780617fff1415611a90576001608060020a03198581169085161415611a7d5784925050506119a7565b5060ef60020a61ffff0291506119a79050565b84925050506119a7565b80617fff1415611aae5783925050506119a7565b607f60020a608060020a86046001608060020a0381169190911015906001607060020a031683611ae15760019350611ae8565b607060020a175b607f60020a608060020a87046001608060020a0381169190911015906001607060020a031684611b1b5760019450611b22565b607060020a175b82611b52576001608060020a0319881660ff60020a14611b425787611b45565b60005b96505050505050506119a7565b80611b72576001608060020a0319891660ff60020a14611b425788611b45565b8486038415158315151415611cb4576070811315611b9957899750505050505050506119a7565b6000811315611bb057600281900a90910490611be4565b606f19811215611bc957889750505050505050506119a7565b6000811215611be4579495508594600081900360020a909304925b928101926e0200000000000000000000000000008410611c0c57600196909601956002909304925b86617fff1415611c595784611c295760f060020a617fff02611c4b565b7fffff0000000000000000000000000000000000000000000000000000000000005b9750505050505050506119a7565b607060020a841015611c6e5760009650611c7b565b6001607060020a03841693505b83607060020a880286611c8f576000611c95565b607f60020a5b6001608060020a03161717608060020a029750505050505050506119a7565b6000811315611ccf5760001990960195600290930292611ce6565b6000811215611ce657600019860196506002909102905b6070811315611cf85760019150611d4e565b6001811315611d195760001980820160020a92019190910460010190611d4e565b606f19811215611d2c5760019350611d4e565b600019811215611d4e576000196000829003810160020a940193909304600101925b818410611d5f578184039350611d68565b83820393508294505b83611d7e5750600096506119a795505050505050565b6000611d8985613b75565b90508060711415611daf576001979097019660029094046001607060020a031693611e03565b6070811015611df657607081900380891115611de15780869060020a026001607060020a031695508089039850611df0565b6000986000190160020a909502945b50611e03565b6001607060020a03851694505b87617fff1415611e515785611e205760f060020a617fff02611e42565b7fffff0000000000000000000000000000000000000000000000000000000000005b985050505050505050506119a7565b84607060020a890287611e65576000611e6b565b607f60020a5b6001608060020a03161717608060020a02985050505050505050506119a7565b6000617fff607060020a6001608060020a03608060020a808704821683900484169390860490911691909104811690821415611f3c5780617fff1415611f14576001608060020a03198581169085161415611ef15750505060ff60020a811682186119a7565b60ff60020a6001608060020a0319868618161415611a7d575050508181176119a7565b600080516020613d5b83398151915284166116c1575060ef60020a61ffff0291506119a79050565b80617fff1415611f7f57600080516020613d5b8339815191528516611f6e575060ef60020a61ffff0291506119a79050565b50505060ff60020a821681186119a7565b6001607060020a03608060020a86041682611f9d5760019250611fa4565b607060020a175b6001607060020a03608060020a86041682611fc25760019250611fc9565b607060020a175b9081029081611fe65760ff60020a87871816611823576000611829565b9282019260007c02000000000000000000000000000000000000000000000000000000008310156120335760e060020a83101561202b5761202683613b75565b61202e565b60e05b612036565b60e15b905061407081860110156120515760009450600092506120fa565b6140e0818601101561209a576140708510156120795761407085900360020a90920491612091565b6140708511156120915761406f19850160020a909202915b600094506120fa565b61c0dd81860111156120b457617fff9450600092506120fa565b60708111156120ce57606f19810160020a909204916120e4565b60708110156120e45780607003839060020a0292505b6001607060020a03831692506140df8186010394505b826070869060020a02888a18607f60020a608060020a0216608060020a90046001608060020a03161717608060020a02955050505050506119a7565b60ff60020a1890565b60006f7fffffffffffffffffffffffffffffff608060020a8404166f7fff000000000000000000000000000081111561217757600080fd5b6f7fffffffffffffffffffffffffffffff608060020a8404166f7fff00000000000000000000000000008111156121ad57600080fd5b6001608060020a03198581169085161415806121e157506f7fff0000000000000000000000000000826001608060020a0316105b6121ea57600080fd5b6001608060020a0319858116908516141561220a576000925050506119a7565b607f60020a6001608060020a03608060020a8088048216831180159391880490921610159061226757801561225957826001608060020a0316846001608060020a031611612259576001611829565b6000199450505050506119a7565b801561227a5760019450505050506119a7565b826001608060020a0316846001608060020a03161161229b57600019611829565b60019450505050506119a7565b6000617fff607060020a6001608060020a03608060020a85041604166140fe8111156122d357600080fd5b613fff8110156122e7576000915050611669565b607060020a6001607060020a03608060020a8504161761406f8210156123175761406f82900360020a900461232c565b61406f82111561232c5761406e19820160020a025b607f60020a6001608060020a03608060020a860416106123635760ff60020a81111561235757600080fd5b60000391506116699050565b7f7fffffffffffffffffffffffffffffffffffffffffffffffffffffffffffffff81111561239057600080fd5b91506116699050565b6000607f60020a608060020a83046001608060020a03811691821191607060020a9004617fff908116916001607060020a031690821480156123da57508015155b156123f3575060ef60020a61ffff029250611669915050565b61400d82111561241d57826124105760f060020a617fff02612413565b60005b9350505050611669565b613f7f82101561245357507f3fff0000000000000000000000000000000000000000000000000000000000009250611669915050565b816124615760019150612468565b607060020a175b613fef82111561248157613fee19820160020a02612497565b613fef82101561249757613fef82900360020a90045b8280156124b5575071406e0000000000000000000000000000000081115b156124c7575060009250611669915050565b821580156124e65750713fffffffffffffffffffffffffffffffffff81115b156124ff575060f060020a617fff029250611669915050565b6001608060020a03811690608060020a900483801561251d57508115155b15612529579019906001015b607f60020a8281161561255257608060020a70016a09e667f3bcc908b2fb1366ea957d3e909102045b6f4000000000000000000000000000000083161561258657608060020a7001306fe0a31b7152de8d5a46305c85edec909102045b6f200000000000000000000000000000008316156125ba57608060020a7001172b83c7d517adcdf7c8c50eb14a791f909102045b6f100000000000000000000000000000008316156125ee57608060020a70010b5586cf9890f6298b92b71842a98363909102045b6f0800000000000000000000000000000083161561262257608060020a7001059b0d31585743ae7c548eb68ca417fd909102045b6f0400000000000000000000000000000083161561265657608060020a700102c9a3e778060ee6f7caca4f7a29bde8909102045b6f0200000000000000000000000000000083161561268a57608060020a70010163da9fb33356d84a66ae336dcdfa3f909102045b6f010000000000000000000000000000008316156126be57608060020a700100b1afa5abcbed6129ab13ec11dc9543909102045b6e8000000000000000000000000000008316156126f157608060020a70010058c86da1c09ea1ff19d294cf2f679b909102045b6e40000000000000000000000000000083161561272457608060020a7001002c605e2e8cec506d21bfc89a23a00f909102045b6e20000000000000000000000000000083161561275757608060020a700100162f3904051fa128bca9c55c31e5df909102045b6e10000000000000000000000000000083161561278a57608060020a7001000b175effdc76ba38e31671ca939725909102045b6e0800000000000000000000000000008316156127bd57608060020a700100058ba01fb9f96d6cacd4b180917c3d909102045b6e0400000000000000000000000000008316156127f057608060020a70010002c5cc37da9491d0985c348c68e7b3909102045b6e02000000000000000000000000000083161561282357608060020a7001000162e525ee054754457d5995292026909102045b607060020a83161561284b57608060020a70010000b17255775c040618bf4a4ade83fc909102045b6d800000000000000000000000000083161561287d57608060020a7001000058b91b5bc9ae2eed81e9b7d4cfab909102045b6d40000000000000000000000000008316156128af57608060020a700100002c5c89d5ec6ca4d7c8acc017b7c9909102045b6d20000000000000000000000000008316156128e157608060020a70010000162e43f4f831060e02d839a9d16d909102045b6d100000000000000000000000000083161561291357608060020a700100000b1721bcfc99d9f890ea06911763909102045b6d080000000000000000000000000083161561294557608060020a70010000058b90cf1e6d97f9ca14dbcc1628909102045b6d040000000000000000000000000083161561297757608060020a7001000002c5c863b73f016468f6bac5ca2b909102045b6d02000000000000000000000000008316156129a957608060020a700100000162e430e5a18f6119e3c02282a5909102045b6d01000000000000000000000000008316156129db57608060020a7001000000b1721835514b86e6d96efd1bfe909102045b6c80000000000000000000000000831615612a0c57608060020a700100000058b90c0b48c6be5df846c5b2ef909102045b6c40000000000000000000000000831615612a3d57608060020a70010000002c5c8601cc6b9e94213c72737a909102045b6c20000000000000000000000000831615612a6e57608060020a7001000000162e42fff037df38aa2b219f06909102045b6c10000000000000000000000000831615612a9f57608060020a70010000000b17217fba9c739aa5819f44f9909102045b6c08000000000000000000000000831615612ad057608060020a7001000000058b90bfcdee5acd3c1cedc823909102045b6c04000000000000000000000000831615612b0157608060020a700100000002c5c85fe31f35a6a30da1be50909102045b6c02000000000000000000000000831615612b3257608060020a70010000000162e42ff0999ce3541b9fffcf909102045b6c01000000000000000000000000831615612b6357608060020a700100000000b17217f80f4ef5aadda45554909102045b6b800000000000000000000000831615612b9357608060020a70010000000058b90bfbf8479bd5a81b51ad909102045b6b400000000000000000000000831615612bc357608060020a7001000000002c5c85fdf84bd62ae30a74cc909102045b6b200000000000000000000000831615612bf357608060020a700100000000162e42fefb2fed257559bdaa909102045b6b100000000000000000000000831615612c2357608060020a7001000000000b17217f7d5a7716bba4a9ae909102045b6b080000000000000000000000831615612c5357608060020a700100000000058b90bfbe9ddbac5e109cce909102045b6b040000000000000000000000831615612c8357608060020a70010000000002c5c85fdf4b15de6f17eb0d909102045b6b020000000000000000000000831615612cb357608060020a7001000000000162e42fefa494f1478fde05909102045b6b010000000000000000000000831615612ce357608060020a70010000000000b17217f7d20cf927c8e94c909102045b6a8000000000000000000000831615612d1257608060020a7001000000000058b90bfbe8f71cb4e4b33d909102045b6a4000000000000000000000831615612d4157608060020a700100000000002c5c85fdf477b662b26945909102045b6a2000000000000000000000831615612d7057608060020a70010000000000162e42fefa3ae53369388c909102045b6a1000000000000000000000831615612d9f57608060020a700100000000000b17217f7d1d351a389d40909102045b6a0800000000000000000000831615612dce57608060020a70010000000000058b90bfbe8e8b2d3d4ede909102045b6a0400000000000000000000831615612dfd57608060020a7001000000000002c5c85fdf4741bea6e77e909102045b6a0200000000000000000000831615612e2c57608060020a700100000000000162e42fefa39fe95583c2909102045b6a0100000000000000000000831615612e5b57608060020a7001000000000000b17217f7d1cfb72b45e1909102045b6980000000000000000000831615612e8957608060020a700100000000000058b90bfbe8e7cc35c3f0909102045b6940000000000000000000831615612eb757608060020a70010000000000002c5c85fdf473e242ea38909102045b6920000000000000000000831615612ee557608060020a7001000000000000162e42fefa39f02b772c909102045b6910000000000000000000831615612f1357608060020a70010000000000000b17217f7d1cf7d83c1a909102045b6908000000000000000000831615612f4157608060020a7001000000000000058b90bfbe8e7bdcbe2e909102045b6904000000000000000000831615612f6f57608060020a700100000000000002c5c85fdf473dea871f909102045b6902000000000000000000831615612f9d57608060020a70010000000000000162e42fefa39ef44d91909102045b6901000000000000000000831615612fcb57608060020a700100000000000000b17217f7d1cf79e949909102045b68800000000000000000831615612ff857608060020a70010000000000000058b90bfbe8e7bce544909102045b6840000000000000000083161561302557608060020a7001000000000000002c5c85fdf473de6eca909102045b6820000000000000000083161561305257608060020a700100000000000000162e42fefa39ef366f909102045b6810000000000000000083161561307f57608060020a7001000000000000000b17217f7d1cf79afa909102045b680800000000000000008316156130ac57608060020a700100000000000000058b90bfbe8e7bcd6d909102045b680400000000000000008316156130d957608060020a70010000000000000002c5c85fdf473de6b2909102045b6802000000000000000083161561310657608060020a7001000000000000000162e42fefa39ef358909102045b6801000000000000000083161561313357608060020a70010000000000000000b17217f7d1cf79ab909102045b67800000000000000083161561315f57608060020a7001000000000000000058b90bfbe8e7bcd5909102045b67400000000000000083161561318b57608060020a700100000000000000002c5c85fdf473de6a909102045b6720000000000000008316156131b757608060020a70010000000000000000162e42fefa39ef34909102045b6710000000000000008316156131e357608060020a700100000000000000000b17217f7d1cf799909102045b67080000000000000083161561320f57608060020a70010000000000000000058b90bfbe8e7bcc909102045b67040000000000000083161561323b57608060020a7001000000000000000002c5c85fdf473de5909102045b67020000000000000083161561326757608060020a700100000000000000000162e42fefa39ef2909102045b67010000000000000083161561329357608060020a7001000000000000000000b17217f7d1cf78909102045b66800000000000008316156132be57608060020a700100000000000000000058b90bfbe8e7bb909102045b66400000000000008316156132e957608060020a70010000000000000000002c5c85fdf473dd909102045b662000000000000083161561331457608060020a7001000000000000000000162e42fefa39ee909102045b661000000000000083161561333f57608060020a70010000000000000000000b17217f7d1cf6909102045b660800000000000083161561336a57608060020a7001000000000000000000058b90bfbe8e7a909102045b660400000000000083161561339557608060020a700100000000000000000002c5c85fdf473c909102045b66020000000000008316156133c057608060020a70010000000000000000000162e42fefa39d909102045b66010000000000008316156133eb57608060020a700100000000000000000000b17217f7d1ce909102045b6580000000000083161561341557608060020a70010000000000000000000058b90bfbe8e6909102045b6540000000000083161561343f57608060020a7001000000000000000000002c5c85fdf472909102045b6520000000000083161561346957608060020a700100000000000000000000162e42fefa38909102045b6510000000000083161561349357608060020a7001000000000000000000000b17217f7d1b909102045b650800000000008316156134bd57608060020a700100000000000000000000058b90bfbe8d909102045b650400000000008316156134e757608060020a70010000000000000000000002c5c85fdf46909102045b6502000000000083161561351157608060020a7001000000000000000000000162e42fefa2909102045b6501000000000083161561353b57608060020a70010000000000000000000000b17217f7d0909102045b64800000000083161561356457608060020a7001000000000000000000000058b90bfbe7909102045b64400000000083161561358d57608060020a700100000000000000000000002c5c85fdf3909102045b6420000000008316156135b657608060020a70010000000000000000000000162e42fef9909102045b6410000000008316156135df57608060020a700100000000000000000000000b17217f7c909102045b64080000000083161561360857608060020a70010000000000000000000000058b90bfbd909102045b64040000000083161561363157608060020a7001000000000000000000000002c5c85fde909102045b64020000000083161561365a57608060020a700100000000000000000000000162e42fee909102045b64010000000083161561368357608060020a7001000000000000000000000000b17217f6909102045b63800000008316156136ab57608060020a700100000000000000000000000058b90bfa909102045b63400000008316156136d357608060020a70010000000000000000000000002c5c85fc909102045b63200000008316156136fb57608060020a7001000000000000000000000000162e42fd909102045b631000000083161561372357608060020a70010000000000000000000000000b17217e909102045b630800000083161561374b57608060020a7001000000000000000000000000058b90be909102045b630400000083161561377357608060020a700100000000000000000000000002c5c85e909102045b630200000083161561379b57608060020a70010000000000000000000000000162e42e909102045b63010000008316156137c357608060020a700100000000000000000000000000b17216909102045b628000008316156137ea57608060020a70010000000000000000000000000058b90a909102045b6240000083161561381157608060020a7001000000000000000000000000002c5c84909102045b6220000083161561383857608060020a700100000000000000000000000000162e41909102045b6210000083161561385f57608060020a7001000000000000000000000000000b1720909102045b6208000083161561388657608060020a700100000000000000000000000000058b8f909102045b620400008316156138ad57608060020a70010000000000000000000000000002c5c7909102045b620200008316156138d457608060020a7001000000000000000000000000000162e3909102045b620100008316156138fb57608060020a70010000000000000000000000000000b171909102045b61800083161561392157608060020a7001000000000000000000000000000058b8909102045b61400083161561394757608060020a700100000000000000000000000000002c5b909102045b61200083161561396d57608060020a70010000000000000000000000000000162d909102045b61100083161561399357608060020a700100000000000000000000000000000b16909102045b6108008316156139b957608060020a70010000000000000000000000000000058a909102045b6104008316156139df57608060020a7001000000000000000000000000000002c4909102045b610200831615613a0557608060020a700100000000000000000000000000000161909102045b610100831615613a2b57608060020a7001000000000000000000000000000000b0909102045b6080831615613a5057608060020a700100000000000000000000000000000057909102045b6040831615613a7557608060020a70010000000000000000000000000000002b909102045b6020831615613a9a57608060020a700100000000000000000000000000000015909102045b6010831615613abf57608060020a70010000000000000000000000000000000a909102045b6008831615613ae457608060020a700100000000000000000000000000000004909102045b6004831615613b0957608060020a700100000000000000000000000000000001909102045b84613b2957613fff919091019061800090046001607060020a0316613b5b565b613ffe8211613b4d57613fff919091039061800090046001607060020a0316613b5b565b600091613fee190160020a90045b608060020a607060020a9092021702935061166992505050565b6000808211613b8357600080fd5b6000608060020a8310613b9d57608060020a909204916080015b680100000000000000008310613bbf5768010000000000000000909204916040015b6401000000008310613bd957640100000000909204916020015b620100008310613bef5762010000909204916010015b6101008310613c0357610100909204916008015b60108310613c15576010909204916004015b60048310613c27576004909204916002015b600283106119a75760010192915050565b828054600181600116156101000203166002900490600052602060002090601f016020900481019282601f10613c7957805160ff1916838001178555613ca6565b82800160010185558215613ca6579182015b82811115613ca6578251825591602001919060010190613c8b565b50613cb2929150613cb6565b5090565b5b80821115613cb25760008155600101613cb756fe54686572652069732063757272656e746c79206e6f206c6567616c206265686176696f72757064617465456e7669726f6e6d656e74206572726f723a20706172616d65746572206172726179206f766572666c6f7772657075746174696f6e436f6d70757465206572726f723a206f6e6c7920616363206f72206d632063616e2063616c6c2066756e6374696f6e217fffffffffffffffffffffffffffffff00000000000000000000000000000000757064617465456e7669726f6e6d656e74206572726f723a204f6e6c79206f776e65722063616e2075706461746520656e7669726f6e6d656e7420666163746f727321a264697066735822122074ded28bd73529dc824ad321ee2782fcbef12cc5dc5f92d6d973d29c1c3e0ca164736f6c63430007000033",
  "immutableReferences": {},
  "source": "// SPDX-License-Identifier:MIT\npragma solidity >0.6.0 <0.8.0;\n\nimport \"./Utils.sol\";\nimport \"./ABDKMathQuad.sol\";\n\ncontract Reputation {\n\n    address public owner;\n    address public mcAddress;\n    ManagementR public mc;\n    \n    event isCalled(\n        address indexed _from, \n        bool _ismisbehavior, \n        string _behavior, \n        uint _time, \n        int Cr, \n        uint Tblocked\n    );\n\n    struct BehaviorRecord {\n        uint8 behaviorID;\n        string behavior;\n        uint  time;\n        bytes16 currentWeight;\n    }\n    \n    struct Behaviors {\n        BehaviorRecord[] LegalBehaviors;\n        BehaviorRecord[] MisBehaviors;\n        uint begin; // begin index of legalBehaviors, when misbehaviors compute, this field recalculate\n        uint TimeofUnblock; //End time of blocked (0 if unblocked, otherwise, blocked)\n    }\n    \n    struct Environment {\n        bytes16[4] omega; \n        bytes16[4] alpha; // penalty factor, index 2,4 is policy action, index 1 is large number of requests in a short time\n        bytes16[2] lambda; // weight of CrP and CrN\n        bytes16 CrPmax;\n        bytes16 gamma; // forgetting factor\n    }\n\n    // mapping devie address => Behavior recort for reputation compute\n    mapping(address => Behaviors) public behaviorsLookup;\n    // some environment factors\n    Environment public evAttr;\n    \n    /// @dev Set contract deployer as owner, set management contract address, initial environment variable\n    constructor(address _mc) {\n        owner = msg.sender;\n        mc = ManagementR(_mc);\n        mcAddress = _mc;\n        initEnvironment();\n    }\n    \n    /// @dev updateEnvironment update parameters of reputation function\n    /// @notice real input value is value/base, e.g. 0.1 = 1/10, 0.25 = 25/100\n    function updateEnvironment(string memory _name, uint256 index, int value, int base) public {\n        require(\n            msg.sender == owner,\n            \"updateEnvironment error: Only owner can update environment factors!\"\n        );\n        bytes16 input = ABDKMathQuad.div(\n            ABDKMathQuad.fromInt(value),\n            ABDKMathQuad.fromInt(base)\n        );\n        if (Utils.stringCompare(_name, \"omega\")) {\n            require(\n                index >= 0 && index < 4,\n                \"updateEnvironment error: parameter array overflow\"\n            );\n            evAttr.omega[index] = input;\n        }\n        if (Utils.stringCompare(_name, \"alpha\")) {\n            require(\n                index >= 0 && index < 4,\n                \"updateEnvironment error: parameter array overflow\"\n            );\n            evAttr.alpha[index] = input;\n        }\n        if (Utils.stringCompare(_name, \"lambda\")) {\n            require(\n                index >= 0 && index < 4,\n                \"updateEnvironment error: parameter array overflow\"\n            );\n            evAttr.lambda[index] = input;\n        }\n        if (Utils.stringCompare(_name, \"CrPmax\")) {\n            evAttr.CrPmax = input;\n        }\n        if (Utils.stringCompare(_name, \"gamma\")) {\n            evAttr.gamma = input;\n        }\n    }\n\n    /// @dev reputationCompute compute the positive impact part and negative impact part of credit value,\n    ///      and then, compute blocked time and reward time according the credit value and update the device attribute\n    function reputationCompute(\n        address _subject, \n        bool _ismisbehavior,\n        uint8 _behaviorID,\n        string memory _behavior,\n        uint  _time\n    ) \n        public \n    {\n        require(\n            mc.isContractAddress(msg.sender) || msg.sender == mcAddress,\n            \"reputationCompute error: only acc or mc can call function!\"\n        );\n        \n        bytes16 CrN;\n        bytes16 CrP;\n        uint Tblocked;\n        \n        if (_ismisbehavior) {\n            behaviorsLookup[_subject].MisBehaviors.push(BehaviorRecord(_behaviorID, _behavior, _time, evAttr.alpha[_behaviorID-1]));\n        } else {\n            behaviorsLookup[_subject].LegalBehaviors.push(BehaviorRecord(_behaviorID, _behavior, _time, evAttr.omega[_behaviorID-1]));\n        }\n        \n        // calculate negative impact part\n        uint misLen = behaviorsLookup[_subject].MisBehaviors.length;\n        for (uint i = 0; i < misLen; i++) {\n            bytes16 wi = behaviorsLookup[_subject].MisBehaviors[i].currentWeight; \n            CrN = ABDKMathQuad.add(\n                CrN,\n                ABDKMathQuad.div(wi, ABDKMathQuad.fromUInt(misLen-i))\n            );           \n        }\n        CrN = ABDKMathQuad.neg(ABDKMathQuad.mul(CrN, ABDKMathQuad.fromUInt(misLen)));\n\n        \n        // calculate positive impact part\n        uint legLen = behaviorsLookup[_subject].LegalBehaviors.length - behaviorsLookup[_subject].begin;\n        for (uint i = behaviorsLookup[_subject].begin; i < behaviorsLookup[_subject].LegalBehaviors.length; i++) {\n            bytes16 wi = behaviorsLookup[_subject].MisBehaviors[i].currentWeight; \n            bytes16 g = Utils.exp(evAttr.gamma, legLen-i);\n            CrP = ABDKMathQuad.add(\n                CrP,\n                ABDKMathQuad.mul(wi, g)\n            );\n        }\n        CrP = ABDKMathQuad.div(CrP,ABDKMathQuad.fromUInt(legLen));\n        if (ABDKMathQuad.cmp(evAttr.CrPmax, CrP) == -1) {\n            CrP = evAttr.CrPmax;\n        }\n\n        // calculate credit\n        int credit = ABDKMathQuad.toInt(ABDKMathQuad.add(\n            ABDKMathQuad.mul(evAttr.lambda[0], CrP),\n            ABDKMathQuad.mul(evAttr.lambda[1], CrN))\n        );\n\n        // calculate penalty\n        if ((block.timestamp > behaviorsLookup[_subject].TimeofUnblock) && (credit < 0)) {\n            behaviorsLookup[_subject].begin = behaviorsLookup[_subject].LegalBehaviors.length-1;\n            Tblocked = uint(ABDKMathQuad.toInt(ABDKMathQuad.pow_2(ABDKMathQuad.fromInt(credit))));\n            // update unblocked time\n            behaviorsLookup[_subject].TimeofUnblock = block.timestamp + Tblocked;\n            mc.updateTimeofUnblock(_subject, behaviorsLookup[_subject].TimeofUnblock);\n        }\n        \n        emit isCalled(_subject, _ismisbehavior, _behavior, _time, credit, Tblocked);\n    }\n    \n    /// @dev getLastBehavior get the latest behavior condition\n    function getLastBehavior(\n        address _requester, \n        uint8 _behaviorType\n    ) \n        public \n        view \n        returns (\n            uint _behaviorID, \n            string memory _behavior, \n            uint _time\n        ) \n    {\n        uint latest;\n        if (_behaviorType == 0) {\n            require(behaviorsLookup[_requester].LegalBehaviors.length > 0, \"There is currently no legal behavior\");\n            latest = behaviorsLookup[_requester].LegalBehaviors.length - 1;\n            _behaviorID = behaviorsLookup[_requester].LegalBehaviors[latest].behaviorID;\n            _behavior = behaviorsLookup[_requester].LegalBehaviors[latest].behavior;\n            _time = behaviorsLookup[_requester].LegalBehaviors[latest].time;\n        } else {\n            require(behaviorsLookup[_requester].MisBehaviors.length >= 0, \"There is currently no misbehavior\");\n            latest = behaviorsLookup[_requester].MisBehaviors.length - 1;\n            _behaviorID = behaviorsLookup[_requester].MisBehaviors[latest].behaviorID;\n            _behavior = behaviorsLookup[_requester].MisBehaviors[latest].behavior;\n            _time = behaviorsLookup[_requester].MisBehaviors[latest].time;\n        }\n    }\n    \n    /// @dev initEnvironment initial parameters of reputation function\n    function initEnvironment() internal {\n        evAttr.alpha[0] = 0x3ffc9999999999999999999999999999; // 0.2 \n        evAttr.alpha[1] = 0x3ffd3333333333333333333333333333; // 0.3\n        evAttr.alpha[2] = 0x3ffe0000000000000000000000000000; // 0.5\n        evAttr.alpha[3] = 0x3ffd9999999999999999999999999999; // 0.4\n        evAttr.omega[0] = 0x3ffb9999999999999999999999999999; // 0.1\n        evAttr.omega[1] = 0x3ffb9999999999999999999999999999; // 0.1\n        evAttr.omega[2] = 0x3ffb9999999999999999999999999999; // 0.1\n        evAttr.omega[3] = 0x3ffc9999999999999999999999999999; // 0.1\n        evAttr.lambda[0] = 0x3ffe0000000000000000000000000000; // 0.5\n        evAttr.lambda[1] = 0x3ffe0000000000000000000000000000; // 0.5\n        evAttr.CrPmax = 0x4003e000000000000000000000000000; // 30\n        evAttr.gamma = 0x3ffd3333333333333333333333333333; // 0.3\n    }\n}\n\n\nabstract contract ManagementR {\n    function updateTimeofUnblock(address _device, uint256 _TimeofUnblock) virtual public;\n    function isContractAddress(address _scAddress) virtual public view returns (bool);\n}",
  "sourcePath": "/home/shuzang/BBRAC-dev/contracts/Reputation.sol",
  "compiler": {
    "name": "solc",
    "version": "0.7.0+commit.9e61f92b.Emscripten.clang"
  },
  "schemaVersion": "3.3.1",
  "updatedAt": "2020-11-02T10:07:40.334Z",
  "networkType": "ethereum",
  "devdoc": {
    "kind": "dev",
    "methods": {
      "constructor": {
        "details": "Set contract deployer as owner, set management contract address, initial environment variable"
      },
      "getLastBehavior(address,uint8)": {
        "details": "getLastBehavior get the latest behavior condition"
      },
      "reputationCompute(address,bool,uint8,string,uint256)": {
        "details": "reputationCompute compute the positive impact part and negative impact part of credit value,      and then, compute blocked time and reward time according the credit value and update the device attribute"
      },
      "updateEnvironment(string,uint256,int256,int256)": {
        "details": "updateEnvironment update parameters of reputation function"
      }
    },
    "version": 1
  },
  "userdoc": {
    "kind": "user",
    "methods": {
      "updateEnvironment(string,uint256,int256,int256)": {
        "notice": "real input value is value/base, e.g. 0.1 = 1/10, 0.25 = 25/100"
      }
    },
    "version": 1
  }
}