{
  "contractName": "Reputation",
  "abi": [
    {
      "inputs": [
        {
          "internalType": "address",
          "name": "_mc",
          "type": "address"
        }
      ],
      "stateMutability": "nonpayable",
      "type": "constructor"
    },
    {
      "anonymous": false,
      "inputs": [
        {
          "indexed": true,
          "internalType": "address",
          "name": "_from",
          "type": "address"
        },
        {
          "indexed": false,
          "internalType": "bool",
          "name": "_ismisbehavior",
          "type": "bool"
        },
        {
          "indexed": false,
          "internalType": "string",
          "name": "_behavior",
          "type": "string"
        },
        {
          "indexed": false,
          "internalType": "uint256",
          "name": "_time",
          "type": "uint256"
        },
        {
          "indexed": false,
          "internalType": "int256",
          "name": "Cr",
          "type": "int256"
        },
        {
          "indexed": false,
          "internalType": "uint256",
          "name": "Tblocked",
          "type": "uint256"
        }
      ],
      "name": "isCalled",
      "type": "event"
    },
    {
      "inputs": [
        {
          "internalType": "address",
          "name": "",
          "type": "address"
        }
      ],
      "name": "behaviorsLookup",
      "outputs": [
        {
          "internalType": "uint256",
          "name": "begin",
          "type": "uint256"
        },
        {
          "internalType": "uint256",
          "name": "TimeofUnblock",
          "type": "uint256"
        }
      ],
      "stateMutability": "view",
      "type": "function",
      "constant": true
    },
    {
      "inputs": [],
      "name": "evAttr",
      "outputs": [
        {
          "internalType": "bytes16",
          "name": "CrPmax",
          "type": "bytes16"
        },
        {
          "internalType": "bytes16",
          "name": "gamma",
          "type": "bytes16"
        }
      ],
      "stateMutability": "view",
      "type": "function",
      "constant": true
    },
    {
      "inputs": [],
      "name": "mc",
      "outputs": [
        {
          "internalType": "contract ManagementR",
          "name": "",
          "type": "address"
        }
      ],
      "stateMutability": "view",
      "type": "function",
      "constant": true
    },
    {
      "inputs": [],
      "name": "mcAddress",
      "outputs": [
        {
          "internalType": "address",
          "name": "",
          "type": "address"
        }
      ],
      "stateMutability": "view",
      "type": "function",
      "constant": true
    },
    {
      "inputs": [],
      "name": "owner",
      "outputs": [
        {
          "internalType": "address",
          "name": "",
          "type": "address"
        }
      ],
      "stateMutability": "view",
      "type": "function",
      "constant": true
    },
    {
      "inputs": [
        {
          "internalType": "string",
          "name": "_name",
          "type": "string"
        },
        {
          "internalType": "uint256",
          "name": "index",
          "type": "uint256"
        },
        {
          "internalType": "int256",
          "name": "value",
          "type": "int256"
        },
        {
          "internalType": "int256",
          "name": "base",
          "type": "int256"
        }
      ],
      "name": "updateEnvironment",
      "outputs": [],
      "stateMutability": "nonpayable",
      "type": "function"
    },
    {
      "inputs": [
        {
          "internalType": "address",
          "name": "_subject",
          "type": "address"
        },
        {
          "internalType": "bool",
          "name": "_ismisbehavior",
          "type": "bool"
        },
        {
          "internalType": "uint8",
          "name": "_behaviorID",
          "type": "uint8"
        },
        {
          "internalType": "string",
          "name": "_behavior",
          "type": "string"
        },
        {
          "internalType": "uint256",
          "name": "_time",
          "type": "uint256"
        }
      ],
      "name": "reputationCompute",
      "outputs": [],
      "stateMutability": "nonpayable",
      "type": "function"
    },
    {
      "inputs": [
        {
          "internalType": "address",
          "name": "_requester",
          "type": "address"
        },
        {
          "internalType": "uint8",
          "name": "_behaviorType",
          "type": "uint8"
        }
      ],
      "name": "getLastBehavior",
      "outputs": [
        {
          "internalType": "uint256",
          "name": "_behaviorID",
          "type": "uint256"
        },
        {
          "internalType": "string",
          "name": "_behavior",
          "type": "string"
        },
        {
          "internalType": "uint256",
          "name": "_time",
          "type": "uint256"
        }
      ],
      "stateMutability": "view",
      "type": "function",
      "constant": true
    },
    {
      "inputs": [
        {
          "internalType": "string",
          "name": "a",
          "type": "string"
        },
        {
          "internalType": "string",
          "name": "b",
          "type": "string"
        }
      ],
      "name": "stringCompare",
      "outputs": [
        {
          "internalType": "bool",
          "name": "",
          "type": "bool"
        }
      ],
      "stateMutability": "pure",
      "type": "function",
      "constant": true
    },
    {
      "inputs": [
        {
          "internalType": "bytes16",
          "name": "base",
          "type": "bytes16"
        },
        {
          "internalType": "uint256",
          "name": "expo",
          "type": "uint256"
        }
      ],
      "name": "exp",
      "outputs": [
        {
          "internalType": "bytes16",
          "name": "",
          "type": "bytes16"
        }
      ],
      "stateMutability": "pure",
      "type": "function",
      "constant": true
    }
  ],
  "bytecode": "0x60806040523480156200001157600080fd5b5060405162003e9b38038062003e9b833981810160405260208110156200003757600080fd5b505160008054600160a060020a0319908116331790915560028054600160a060020a0384169083168117909155600180549092161790556200008164010000000062000088810204565b50620001e4565b600680547f3ffd3333333333333333333333333333000000000000000000000000000000006001608060020a03199182166f3ffc9999999999999999999999999999176001608060020a039081168217909355600780547f3ffd9999999999999999999999999999000000000000000000000000000000009084166f3ffe0000000000000000000000000000908117861691909117909155600480546f3ffb9999999999999999999999999999908516811786167f3ffb9999999999999999999999999999000000000000000000000000000000001790915560058054851690911785167f3ffc99999999999999999999999999990000000000000000000000000000000017905560088054841690911784167f3ffe000000000000000000000000000000000000000000000000000000000000179055600980546f4003e0000000000000000000000000009316929092179092169091179055565b613ca780620001f46000396000f3fe608060405234801561001057600080fd5b50600436106100bb576000357c01000000000000000000000000000000000000000000000000000000009004806360353db91161008357806360353db9146102d55780638da5cb5b146104165780639f1cce3e1461041e578063cb7956b0146104e7578063f04b99e5146104ef576100bb565b806310278bb3146100c05780632a46640f146101735780633f0048871461019757806346afd917146101d65780634941d66b1461028b575b600080fd5b610171600480360360808110156100d657600080fd5b8101906020810181356401000000008111156100f157600080fd5b82018360208201111561010357600080fd5b8035906020019184600183028401116401000000008311171561012557600080fd5b91908080601f016020809104026020016040519081016040528093929190818152602001838380828437600092019190915250929550508235935050506020810135906040013561051e565b005b61017b61088f565b60408051600160a060020a039092168252519081900360200190f35b6101bd600480360360208110156101ad57600080fd5b5035600160a060020a031661089e565b6040805192835260208301919091528051918290030190f35b610205600480360360408110156101ec57600080fd5b508035600160a060020a0316906020013560ff166108ba565b6040518084815260200180602001838152602001828103825284818151815260200191508051906020019080838360005b8381101561024e578181015183820152602001610236565b50505050905090810190601f16801561027b5780820380516001836020036101000a031916815260200191505b5094505050505060405180910390f35b6102b8600480360360408110156102a157600080fd5b506001608060020a03198135169060200135610bd4565b604080516001608060020a03199092168252519081900360200190f35b610402600480360360408110156102eb57600080fd5b81019060208101813564010000000081111561030657600080fd5b82018360208201111561031857600080fd5b8035906020019184600183028401116401000000008311171561033a57600080fd5b91908080601f016020809104026020016040519081016040528093929190818152602001838380828437600092019190915250929594936020810193503591505064010000000081111561038d57600080fd5b82018360208201111561039f57600080fd5b803590602001918460018302840111640100000000831117156103c157600080fd5b91908080601f016020809104026020016040519081016040528093929190818152602001838380828437600092019190915250929550610c00945050505050565b604080519115158252519081900360200190f35b61017b610d97565b610171600480360360a081101561043457600080fd5b600160a060020a0382351691602081013515159160ff604083013516919081019060808101606082013564010000000081111561047057600080fd5b82018360208201111561048257600080fd5b803590602001918460018302840111640100000000831117156104a457600080fd5b91908080601f0160208091040260200160405190810160405280939291908181526020018383808284376000920191909152509295505091359250610da6915050565b61017b61144d565b6104f761145c565b604080516001608060020a0319938416815291909216602082015281519081900390910190f35b600054600160a060020a0316331461056a5760405160e560020a62461bcd028152600401808060200182810382526043815260200180613c2f6043913960600191505060405180910390fd5b60006105866105788461146f565b6105818461146f565b61150b565b90506105c7856040518060400160405280600581526020017f6f6d656761000000000000000000000000000000000000000000000000000000815250610c00565b15610649576004841061060e5760405160e560020a62461bcd028152600401808060200182810382526031815260200180613ba46031913960400191505060405180910390fd5b8060048581811061061b57fe5b600291828204019190066010026101000a8154816001608060020a030219169083608060020a900402179055505b610688856040518060400160405280600581526020017f616c706861000000000000000000000000000000000000000000000000000000815250610c00565b1561070b57600484106106cf5760405160e560020a62461bcd028152600401808060200182810382526031815260200180613ba46031913960400191505060405180910390fd5b80600685600481106106dd57fe5b600291828204019190066010026101000a8154816001608060020a030219169083608060020a900402179055505b61074a856040518060400160405280600681526020017f6c616d6264610000000000000000000000000000000000000000000000000000815250610c00565b156107cd57600484106107915760405160e560020a62461bcd028152600401808060200182810382526031815260200180613ba46031913960400191505060405180910390fd5b806008856002811061079f57fe5b600291828204019190066010026101000a8154816001608060020a030219169083608060020a900402179055505b61080c856040518060400160405280600681526020017f4372506d61780000000000000000000000000000000000000000000000000000815250610c00565b1561082a57600980546001608060020a031916608060020a83041790555b610869856040518060400160405280600581526020017f67616d6d61000000000000000000000000000000000000000000000000000000815250610c00565b1561088857600980546001608060020a0316608060020a808404021790555b5050505050565b600154600160a060020a031681565b6003602081905260009182526040909120600281015491015482565b60006060818060ff8516610a7357600160a060020a03861660009081526003602052604090205461091f5760405160e560020a62461bcd028152600401808060200182810382526024815260200180613b806024913960400191505060405180910390fd5b50600160a060020a03851660009081526003602052604090208054600019810191908290811061094b57fe5b60009182526020808320600490920290910154600160a060020a038916835260039091526040909120805460ff9092169550908290811061098857fe5b90600052602060002090600402016001018054600181600116156101000203166002900480601f016020809104026020016040519081016040528092919081815260200182805460018160011615610100020316600290048015610a2d5780601f10610a0257610100808354040283529160200191610a2d565b820191906000526020600020905b815481529060010190602001808311610a1057829003601f168201915b50505050600160a060020a03881660009081526003602052604090208054929550918391508110610a5a57fe5b9060005260206000209060040201600201549150610bcc565b50600160a060020a038516600090815260036020526040902060010180546000198101919082908110610aa257fe5b60009182526020808320600490920290910154600160a060020a038916835260039091526040909120600101805460ff90921695509082908110610ae257fe5b90600052602060002090600402016001018054600181600116156101000203166002900480601f016020809104026020016040519081016040528092919081815260200182805460018160011615610100020316600290048015610b875780601f10610b5c57610100808354040283529160200191610b87565b820191906000526020600020905b815481529060010190602001808311610b6a57829003601f168201915b50505050600160a060020a03881660009081526003602052604090206001018054929550918391508110610bb757fe5b90600052602060002090600402016002015491505b509250925092565b60008060005b83811015610bf657610bec8286611848565b9150600101610bda565b5090505b92915050565b805182516000918491849114610c1b57600092505050610bfa565b815160011415610cb15780600081518110610c3257fe5b602001015160f860020a900460f860020a027effffffffffffffffffffffffffffffffffffffffffffffffffffffffffffff191682600081518110610c7357fe5b602001015160f860020a900460f860020a027effffffffffffffffffffffffffffffffffffffffffffffffffffffffffffff19161492505050610bfa565b836040516020018082805190602001908083835b60208310610ce45780518252601f199092019160209182019101610cc5565b6001836020036101000a03801982511681845116808217855250505050505090500191505060405160208183030381529060405280519060200120856040516020018082805190602001908083835b60208310610d525780518252601f199092019160209182019101610d33565b6001836020036101000a038019825116818451168082178552505050505050905001915050604051602081830303815290604052805190602001201492505050610bfa565b600054600160a060020a031681565b600254604080517f8ed9606a0000000000000000000000000000000000000000000000000000000081523360048201529051600160a060020a0390921691638ed9606a91602480820192602092909190829003018186803b158015610e0a57600080fd5b505afa158015610e1e573d6000803e3d6000fd5b505050506040513d6020811015610e3457600080fd5b505180610e4b5750600154600160a060020a031633145b610e895760405160e560020a62461bcd02815260040180806020018281038252603a815260200180613bd5603a913960400191505060405180910390fd5b60008060008615610f97576003600089600160a060020a0316600160a060020a0316815260200190815260200160002060010160405180608001604052808860ff168152602001878152602001868152602001600460020160018a0360ff1660048110610ef257fe5b60028104919091015460019182166010026101000a9004608060020a026001608060020a0319169091528254808201845560009384526020938490208351600490920201805460ff191660ff90921691909117815582840151805193949193610f62938501929190910190613aec565b5060408201516002820155606090910151600390910180546001608060020a031916608060020a909204919091179055611096565b6003600089600160a060020a0316600160a060020a0316815260200190815260200160002060000160405180608001604052808860ff168152602001878152602001868152602001600460000160018a0360ff1660048110610ff557fe5b60028104919091015460019182166010026101000a9004608060020a026001608060020a0319169091528254808201845560009384526020938490208351600490920201805460ff191660ff90921691909117815582840151805193949193611065938501929190910190613aec565b5060408201516002820155606090910151600390910180546001608060020a031916608060020a9092049190911790555b600160a060020a038816600090815260036020526040812060010154905b8181101561112257600160a060020a038a1660009081526003602052604081206001018054839081106110e357fe5b6000918252602090912060036004909202010154608060020a0290506111178661111283610581868803611b1f565b611b90565b9550506001016110b4565b5061113d6111388561113384611b1f565b611848565b611fea565b600160a060020a038a1660009081526003602052604090206002810154905491955090819003905b600160a060020a038b166000908152600360205260409020548110156111f957600160a060020a038b1660009081526003602052604081206001018054839081106111ac57fe5b60009182526020822060036004909202010154600954608060020a91820293506111dd919081900402848603610bd4565b90506111ed876111128484611848565b96505050600101611165565b506112078461058183611b1f565b60095490945061121d90608060020a0285611ff3565b60000b600019141561123557600954608060020a0293505b60085460009061126f9061126a9061125390608060020a0288611848565b60085461111290608060020a90819004028a611848565b61215c565b600160a060020a038c16600090815260036020819052604090912001549091504211801561129d5750600081125b1561137b57600160a060020a038b1660009081526003602052604090208054600019016002909101556112da61126a6112d58361146f565b61224d565b600160a060020a03808d166000818152600360208190526040808320428701920182905560025481517f87955de20000000000000000000000000000000000000000000000000000000081526004810195909552602485019290925251949850909216926387955de29260448084019391929182900301818387803b15801561136257600080fd5b505af1158015611376573d6000803e3d6000fd5b505050505b8a600160a060020a03167fa84ffe79520460f92521c5512e3b15fe13430ffa52b93d78aea2ec6fd2289ce78b8a8a858960405180861515815260200180602001858152602001848152602001838152602001828103825286818151815260200191508051906020019080838360005b838110156114025781810151838201526020016113ea565b50505050905090810190601f16801561142f5780820380516001836020036101000a031916815260200191505b50965050505050505060405180910390a25050505050505050505050565b600254600160a060020a031681565b600954608060020a808202918190040282565b60008161147e57506000611506565b60008083136114905782600003611492565b825b9050600061149f82613a29565b905060708110156114bb5780607003829060020a0291506114d1565b60708111156114d157606f19810160020a909104905b6001607060020a03909116607060020a613fff830102179060008412156114fc57607f60020a821791505b50608060020a0290505b919050565b6000617fff607060020a6001608060020a03608060020a80870482168390048416939086049091169190910481169082141561156f5780617fff141561155e575060ef60020a61ffff029150610bfa9050565b50505060ff60020a81168218610bfa565b80617fff14156115c3577dffffffffffffffffffffffffffff000000000000000000000000000000008416156115b2575060ef60020a61ffff029150610bfa9050565b50505080821860ff60020a16610bfa565b600080516020613c0f833981519152841661161b57600080516020613c0f8339815191528516611600575060ef60020a61ffff029150610bfa9050565b50505080821860ff60020a1660f060020a617fff0217610bfa565b6001607060020a03608060020a850416816116395760019150611640565b607060020a175b6001607060020a03608060020a8704168361168357801561167e57600061166682613a29565b6001955060e203938401607119019360020a90910290505b61169b565b607060020a176e040000000000000000000000000000025b8181816116a457fe5b049050806116d15760ff60020a878718166116c05760006116c6565b60ff60020a5b945050505050610bfa565b6d10000000000000000000000000008110156116e957fe5b60006e08000000000000000000000000000082101561174a576e04000000000000000000000000000082101561173f576e02000000000000000000000000000082101561173757607061173a565b60715b611742565b60725b60ff16611753565b61175382613a29565b90508361407101818601111561177157617fff94506000915061180c565b83818601613ffc01101561178c57600094506000915061180c565b83818601613f8c0110156117de578385613ffc0111156117b957838503613ffc0160020a909102906117d5565b8385613ffc0110156117d557613ffb198585030160020a909104905b6000945061180c565b60708111156117f457606f19810160020a909104905b6001607060020a038216915083818601613f8d010394505b816070869060020a02888a18607f60020a608060020a0216608060020a90046001608060020a03161717608060020a0295505050505050610bfa565b6000617fff607060020a6001608060020a03608060020a80870482168390048416939086049091169190910481169082141561190c5780617fff14156118e4576001608060020a031985811690851614156118ae5750505060ff60020a81168218610bfa565b60ff60020a6001608060020a03198686181614156118d157505050818117610bfa565b5060ef60020a61ffff029150610bfa9050565b600080516020613c0f833981519152841661155e575060ef60020a61ffff029150610bfa9050565b80617fff141561194f57600080516020613c0f833981519152851661193e575060ef60020a61ffff029150610bfa9050565b50505060ff60020a82168118610bfa565b6001607060020a03608060020a8604168261196d5760019250611974565b607060020a175b6001607060020a03608060020a860416826119925760019250611999565b607060020a175b90810290816119b65760ff60020a878718166116c05760006116c6565b9282019260007c0200000000000000000000000000000000000000000000000000000000831015611a1c577c0100000000000000000000000000000000000000000000000000000000831015611a1457611a0f83613a29565b611a17565b60e05b611a1f565b60e15b90506140708186011015611a3a576000945060009250611ae3565b6140e08186011015611a8357614070851015611a625761407085900360020a90920491611a7a565b614070851115611a7a5761406f19850160020a909202915b60009450611ae3565b61c0dd8186011115611a9d57617fff945060009250611ae3565b6070811115611ab757606f19810160020a90920491611acd565b6070811015611acd5780607003839060020a0292505b6001607060020a03831692506140df8186010394505b826070869060020a02888a18607f60020a608060020a0216608060020a90046001608060020a03161717608060020a0295505050505050610bfa565b600081611b2e57506000611506565b816000611b3a82613a29565b90506070811015611b565780607003829060020a029150611b6c565b6070811115611b6c57606f19810160020a909104905b613fff01607060020a026001607060020a039190911617608060020a029050611506565b6000617fff607060020a6001608060020a03608060020a808704821683900484169390860490911691909104811690821415611bf95780617fff1415611bef576001608060020a031985811690851614156118d1578492505050610bfa565b8492505050610bfa565b80617fff1415611c0d578392505050610bfa565b607f60020a608060020a86046001608060020a0381169190911015906001607060020a031683611c405760019350611c47565b607060020a175b607f60020a608060020a87046001608060020a0381169190911015906001607060020a031684611c7a5760019450611c81565b607060020a175b82611cb1576001608060020a0319881660ff60020a14611ca15787611ca4565b60005b9650505050505050610bfa565b80611cd1576001608060020a0319891660ff60020a14611ca15788611ca4565b8486038415158315151415611e13576070811315611cf85789975050505050505050610bfa565b6000811315611d0f57600281900a90910490611d43565b606f19811215611d285788975050505050505050610bfa565b6000811215611d43579495508594600081900360020a909304925b928101926e0200000000000000000000000000008410611d6b57600196909601956002909304925b86617fff1415611db85784611d885760f060020a617fff02611daa565b7fffff0000000000000000000000000000000000000000000000000000000000005b975050505050505050610bfa565b607060020a841015611dcd5760009650611dda565b6001607060020a03841693505b83607060020a880286611dee576000611df4565b607f60020a5b6001608060020a03161717608060020a02975050505050505050610bfa565b6000811315611e2e5760001990960195600290930292611e45565b6000811215611e4557600019860196506002909102905b6070811315611e575760019150611ead565b6001811315611e785760001980820160020a92019190910460010190611ead565b606f19811215611e8b5760019350611ead565b600019811215611ead576000196000829003810160020a940193909304600101925b818410611ebe578184039350611ec7565b83820393508294505b83611edd575060009650610bfa95505050505050565b6000611ee885613a29565b90508060711415611f0e576001979097019660029094046001607060020a031693611f62565b6070811015611f5557607081900380891115611f405780869060020a026001607060020a031695508089039850611f4f565b6000986000190160020a909502945b50611f62565b6001607060020a03851694505b87617fff1415611fb05785611f7f5760f060020a617fff02611fa1565b7fffff0000000000000000000000000000000000000000000000000000000000005b98505050505050505050610bfa565b84607060020a890287611fc4576000611fca565b607f60020a5b6001608060020a03161717608060020a0298505050505050505050610bfa565b60ff60020a1890565b60006f7fffffffffffffffffffffffffffffff608060020a8404166f7fff000000000000000000000000000081111561202b57600080fd5b6f7fffffffffffffffffffffffffffffff608060020a8404166f7fff000000000000000000000000000081111561206157600080fd5b6001608060020a031985811690851614158061209557506f7fff0000000000000000000000000000826001608060020a0316105b61209e57600080fd5b6001608060020a031985811690851614156120be57600092505050610bfa565b607f60020a6001608060020a03608060020a8088048216831180159391880490921610159061211b57801561210d57826001608060020a0316846001608060020a03161161210d5760016116c6565b600019945050505050610bfa565b801561212e576001945050505050610bfa565b826001608060020a0316846001608060020a03161161214f576000196116c6565b6001945050505050610bfa565b6000617fff607060020a6001608060020a03608060020a85041604166140fe81111561218757600080fd5b613fff81101561219b576000915050611506565b607060020a6001607060020a03608060020a8504161761406f8210156121cb5761406f82900360020a90046121e0565b61406f8211156121e05761406e19820160020a025b607f60020a6001608060020a03608060020a860416106122175760ff60020a81111561220b57600080fd5b60000391506115069050565b7f7fffffffffffffffffffffffffffffffffffffffffffffffffffffffffffffff81111561224457600080fd5b91506115069050565b6000607f60020a608060020a83046001608060020a03811691821191607060020a9004617fff908116916001607060020a0316908214801561228e57508015155b156122a7575060ef60020a61ffff029250611506915050565b61400d8211156122d157826122c45760f060020a617fff026122c7565b60005b9350505050611506565b613f7f82101561230757507f3fff0000000000000000000000000000000000000000000000000000000000009250611506915050565b81612315576001915061231c565b607060020a175b613fef82111561233557613fee19820160020a0261234b565b613fef82101561234b57613fef82900360020a90045b828015612369575071406e0000000000000000000000000000000081115b1561237b575060009250611506915050565b8215801561239a5750713fffffffffffffffffffffffffffffffffff81115b156123b3575060f060020a617fff029250611506915050565b6001608060020a03811690608060020a90048380156123d157508115155b156123dd579019906001015b607f60020a8281161561240657608060020a70016a09e667f3bcc908b2fb1366ea957d3e909102045b6f4000000000000000000000000000000083161561243a57608060020a7001306fe0a31b7152de8d5a46305c85edec909102045b6f2000000000000000000000000000000083161561246e57608060020a7001172b83c7d517adcdf7c8c50eb14a791f909102045b6f100000000000000000000000000000008316156124a257608060020a70010b5586cf9890f6298b92b71842a98363909102045b6f080000000000000000000000000000008316156124d657608060020a7001059b0d31585743ae7c548eb68ca417fd909102045b6f0400000000000000000000000000000083161561250a57608060020a700102c9a3e778060ee6f7caca4f7a29bde8909102045b6f0200000000000000000000000000000083161561253e57608060020a70010163da9fb33356d84a66ae336dcdfa3f909102045b6f0100000000000000000000000000000083161561257257608060020a700100b1afa5abcbed6129ab13ec11dc9543909102045b6e8000000000000000000000000000008316156125a557608060020a70010058c86da1c09ea1ff19d294cf2f679b909102045b6e4000000000000000000000000000008316156125d857608060020a7001002c605e2e8cec506d21bfc89a23a00f909102045b6e20000000000000000000000000000083161561260b57608060020a700100162f3904051fa128bca9c55c31e5df909102045b6e10000000000000000000000000000083161561263e57608060020a7001000b175effdc76ba38e31671ca939725909102045b6e08000000000000000000000000000083161561267157608060020a700100058ba01fb9f96d6cacd4b180917c3d909102045b6e0400000000000000000000000000008316156126a457608060020a70010002c5cc37da9491d0985c348c68e7b3909102045b6e0200000000000000000000000000008316156126d757608060020a7001000162e525ee054754457d5995292026909102045b607060020a8316156126ff57608060020a70010000b17255775c040618bf4a4ade83fc909102045b6d800000000000000000000000000083161561273157608060020a7001000058b91b5bc9ae2eed81e9b7d4cfab909102045b6d400000000000000000000000000083161561276357608060020a700100002c5c89d5ec6ca4d7c8acc017b7c9909102045b6d200000000000000000000000000083161561279557608060020a70010000162e43f4f831060e02d839a9d16d909102045b6d10000000000000000000000000008316156127c757608060020a700100000b1721bcfc99d9f890ea06911763909102045b6d08000000000000000000000000008316156127f957608060020a70010000058b90cf1e6d97f9ca14dbcc1628909102045b6d040000000000000000000000000083161561282b57608060020a7001000002c5c863b73f016468f6bac5ca2b909102045b6d020000000000000000000000000083161561285d57608060020a700100000162e430e5a18f6119e3c02282a5909102045b6d010000000000000000000000000083161561288f57608060020a7001000000b1721835514b86e6d96efd1bfe909102045b6c800000000000000000000000008316156128c057608060020a700100000058b90c0b48c6be5df846c5b2ef909102045b6c400000000000000000000000008316156128f157608060020a70010000002c5c8601cc6b9e94213c72737a909102045b6c2000000000000000000000000083161561292257608060020a7001000000162e42fff037df38aa2b219f06909102045b6c1000000000000000000000000083161561295357608060020a70010000000b17217fba9c739aa5819f44f9909102045b6c0800000000000000000000000083161561298457608060020a7001000000058b90bfcdee5acd3c1cedc823909102045b6c040000000000000000000000008316156129b557608060020a700100000002c5c85fe31f35a6a30da1be50909102045b6c020000000000000000000000008316156129e657608060020a70010000000162e42ff0999ce3541b9fffcf909102045b6c01000000000000000000000000831615612a1757608060020a700100000000b17217f80f4ef5aadda45554909102045b6b800000000000000000000000831615612a4757608060020a70010000000058b90bfbf8479bd5a81b51ad909102045b6b400000000000000000000000831615612a7757608060020a7001000000002c5c85fdf84bd62ae30a74cc909102045b6b200000000000000000000000831615612aa757608060020a700100000000162e42fefb2fed257559bdaa909102045b6b100000000000000000000000831615612ad757608060020a7001000000000b17217f7d5a7716bba4a9ae909102045b6b080000000000000000000000831615612b0757608060020a700100000000058b90bfbe9ddbac5e109cce909102045b6b040000000000000000000000831615612b3757608060020a70010000000002c5c85fdf4b15de6f17eb0d909102045b6b020000000000000000000000831615612b6757608060020a7001000000000162e42fefa494f1478fde05909102045b6b010000000000000000000000831615612b9757608060020a70010000000000b17217f7d20cf927c8e94c909102045b6a8000000000000000000000831615612bc657608060020a7001000000000058b90bfbe8f71cb4e4b33d909102045b6a4000000000000000000000831615612bf557608060020a700100000000002c5c85fdf477b662b26945909102045b6a2000000000000000000000831615612c2457608060020a70010000000000162e42fefa3ae53369388c909102045b6a1000000000000000000000831615612c5357608060020a700100000000000b17217f7d1d351a389d40909102045b6a0800000000000000000000831615612c8257608060020a70010000000000058b90bfbe8e8b2d3d4ede909102045b6a0400000000000000000000831615612cb157608060020a7001000000000002c5c85fdf4741bea6e77e909102045b6a0200000000000000000000831615612ce057608060020a700100000000000162e42fefa39fe95583c2909102045b6a0100000000000000000000831615612d0f57608060020a7001000000000000b17217f7d1cfb72b45e1909102045b6980000000000000000000831615612d3d57608060020a700100000000000058b90bfbe8e7cc35c3f0909102045b6940000000000000000000831615612d6b57608060020a70010000000000002c5c85fdf473e242ea38909102045b6920000000000000000000831615612d9957608060020a7001000000000000162e42fefa39f02b772c909102045b6910000000000000000000831615612dc757608060020a70010000000000000b17217f7d1cf7d83c1a909102045b6908000000000000000000831615612df557608060020a7001000000000000058b90bfbe8e7bdcbe2e909102045b6904000000000000000000831615612e2357608060020a700100000000000002c5c85fdf473dea871f909102045b6902000000000000000000831615612e5157608060020a70010000000000000162e42fefa39ef44d91909102045b6901000000000000000000831615612e7f57608060020a700100000000000000b17217f7d1cf79e949909102045b68800000000000000000831615612eac57608060020a70010000000000000058b90bfbe8e7bce544909102045b68400000000000000000831615612ed957608060020a7001000000000000002c5c85fdf473de6eca909102045b68200000000000000000831615612f0657608060020a700100000000000000162e42fefa39ef366f909102045b68100000000000000000831615612f3357608060020a7001000000000000000b17217f7d1cf79afa909102045b68080000000000000000831615612f6057608060020a700100000000000000058b90bfbe8e7bcd6d909102045b68040000000000000000831615612f8d57608060020a70010000000000000002c5c85fdf473de6b2909102045b68020000000000000000831615612fba57608060020a7001000000000000000162e42fefa39ef358909102045b68010000000000000000831615612fe757608060020a70010000000000000000b17217f7d1cf79ab909102045b67800000000000000083161561301357608060020a7001000000000000000058b90bfbe8e7bcd5909102045b67400000000000000083161561303f57608060020a700100000000000000002c5c85fdf473de6a909102045b67200000000000000083161561306b57608060020a70010000000000000000162e42fefa39ef34909102045b67100000000000000083161561309757608060020a700100000000000000000b17217f7d1cf799909102045b6708000000000000008316156130c357608060020a70010000000000000000058b90bfbe8e7bcc909102045b6704000000000000008316156130ef57608060020a7001000000000000000002c5c85fdf473de5909102045b67020000000000000083161561311b57608060020a700100000000000000000162e42fefa39ef2909102045b67010000000000000083161561314757608060020a7001000000000000000000b17217f7d1cf78909102045b668000000000000083161561317257608060020a700100000000000000000058b90bfbe8e7bb909102045b664000000000000083161561319d57608060020a70010000000000000000002c5c85fdf473dd909102045b66200000000000008316156131c857608060020a7001000000000000000000162e42fefa39ee909102045b66100000000000008316156131f357608060020a70010000000000000000000b17217f7d1cf6909102045b660800000000000083161561321e57608060020a7001000000000000000000058b90bfbe8e7a909102045b660400000000000083161561324957608060020a700100000000000000000002c5c85fdf473c909102045b660200000000000083161561327457608060020a70010000000000000000000162e42fefa39d909102045b660100000000000083161561329f57608060020a700100000000000000000000b17217f7d1ce909102045b658000000000008316156132c957608060020a70010000000000000000000058b90bfbe8e6909102045b654000000000008316156132f357608060020a7001000000000000000000002c5c85fdf472909102045b6520000000000083161561331d57608060020a700100000000000000000000162e42fefa38909102045b6510000000000083161561334757608060020a7001000000000000000000000b17217f7d1b909102045b6508000000000083161561337157608060020a700100000000000000000000058b90bfbe8d909102045b6504000000000083161561339b57608060020a70010000000000000000000002c5c85fdf46909102045b650200000000008316156133c557608060020a7001000000000000000000000162e42fefa2909102045b650100000000008316156133ef57608060020a70010000000000000000000000b17217f7d0909102045b64800000000083161561341857608060020a7001000000000000000000000058b90bfbe7909102045b64400000000083161561344157608060020a700100000000000000000000002c5c85fdf3909102045b64200000000083161561346a57608060020a70010000000000000000000000162e42fef9909102045b64100000000083161561349357608060020a700100000000000000000000000b17217f7c909102045b6408000000008316156134bc57608060020a70010000000000000000000000058b90bfbd909102045b6404000000008316156134e557608060020a7001000000000000000000000002c5c85fde909102045b64020000000083161561350e57608060020a700100000000000000000000000162e42fee909102045b64010000000083161561353757608060020a7001000000000000000000000000b17217f6909102045b638000000083161561355f57608060020a700100000000000000000000000058b90bfa909102045b634000000083161561358757608060020a70010000000000000000000000002c5c85fc909102045b63200000008316156135af57608060020a7001000000000000000000000000162e42fd909102045b63100000008316156135d757608060020a70010000000000000000000000000b17217e909102045b63080000008316156135ff57608060020a7001000000000000000000000000058b90be909102045b630400000083161561362757608060020a700100000000000000000000000002c5c85e909102045b630200000083161561364f57608060020a70010000000000000000000000000162e42e909102045b630100000083161561367757608060020a700100000000000000000000000000b17216909102045b6280000083161561369e57608060020a70010000000000000000000000000058b90a909102045b624000008316156136c557608060020a7001000000000000000000000000002c5c84909102045b622000008316156136ec57608060020a700100000000000000000000000000162e41909102045b6210000083161561371357608060020a7001000000000000000000000000000b1720909102045b6208000083161561373a57608060020a700100000000000000000000000000058b8f909102045b6204000083161561376157608060020a70010000000000000000000000000002c5c7909102045b6202000083161561378857608060020a7001000000000000000000000000000162e3909102045b620100008316156137af57608060020a70010000000000000000000000000000b171909102045b6180008316156137d557608060020a7001000000000000000000000000000058b8909102045b6140008316156137fb57608060020a700100000000000000000000000000002c5b909102045b61200083161561382157608060020a70010000000000000000000000000000162d909102045b61100083161561384757608060020a700100000000000000000000000000000b16909102045b61080083161561386d57608060020a70010000000000000000000000000000058a909102045b61040083161561389357608060020a7001000000000000000000000000000002c4909102045b6102008316156138b957608060020a700100000000000000000000000000000161909102045b6101008316156138df57608060020a7001000000000000000000000000000000b0909102045b608083161561390457608060020a700100000000000000000000000000000057909102045b604083161561392957608060020a70010000000000000000000000000000002b909102045b602083161561394e57608060020a700100000000000000000000000000000015909102045b601083161561397357608060020a70010000000000000000000000000000000a909102045b600883161561399857608060020a700100000000000000000000000000000004909102045b60048316156139bd57608060020a700100000000000000000000000000000001909102045b846139dd57613fff919091019061800090046001607060020a0316613a0f565b613ffe8211613a0157613fff919091039061800090046001607060020a0316613a0f565b600091613fee190160020a90045b608060020a607060020a9092021702935061150692505050565b6000808211613a3757600080fd5b6000608060020a8310613a5157608060020a909204916080015b680100000000000000008310613a735768010000000000000000909204916040015b6401000000008310613a8d57640100000000909204916020015b620100008310613aa35762010000909204916010015b6101008310613ab757610100909204916008015b60108310613ac9576010909204916004015b60048310613adb576004909204916002015b60028310610bfa5760010192915050565b828054600181600116156101000203166002900490600052602060002090601f016020900481019282601f10613b2d57805160ff1916838001178555613b5a565b82800160010185558215613b5a579182015b82811115613b5a578251825591602001919060010190613b3f565b50613b66929150613b6a565b5090565b5b80821115613b665760008155600101613b6b56fe54686572652069732063757272656e746c79206e6f206c6567616c206265686176696f72757064617465456e7669726f6e6d656e74206572726f723a20706172616d65746572206172726179206f766572666c6f7772657075746174696f6e436f6d70757465206572726f723a206f6e6c7920616363206f72206d632063616e2063616c6c2066756e6374696f6e217fffffffffffffffffffffffffffffff00000000000000000000000000000000757064617465456e7669726f6e6d656e74206572726f723a204f6e6c79206f776e65722063616e2075706461746520656e7669726f6e6d656e7420666163746f727321a2646970667358221220b17d1934369fe4f39816d5e2fb1f4a9a8ffdf17f88c08ee70f5331ca87ac82b964736f6c63430007000033",
  "immutableReferences": {},
  "source": "// SPDX-License-Identifier:MIT\npragma solidity >0.6.0 <0.8.0;\n\nimport \"./ABDKMathQuad.sol\";\n\ncontract Reputation {\n\n    address public owner;\n    address public mcAddress;\n    ManagementR public mc;\n    \n    event isCalled(\n        address indexed _from, \n        bool _ismisbehavior, \n        string _behavior, \n        uint _time, \n        int Cr, \n        uint Tblocked\n    );\n\n    struct BehaviorRecord {\n        uint8 behaviorID;\n        string behavior;\n        uint  time;\n        bytes16 currentWeight;\n    }\n    \n    struct Behaviors {\n        BehaviorRecord[] LegalBehaviors;\n        BehaviorRecord[] MisBehaviors;\n        uint begin; // begin index of legalBehaviors, when misbehaviors compute, this field recalculate\n        uint TimeofUnblock; //End time of blocked (0 if unblocked, otherwise, blocked)\n    }\n    \n    struct Environment {\n        bytes16[4] omega; \n        bytes16[4] alpha; // penalty factor, index 2,4 is policy action, index 1 is large number of requests in a short time\n        bytes16[2] lambda; // weight of CrP and CrN\n        bytes16 CrPmax;\n        bytes16 gamma; // forgetting factor\n    }\n\n    // mapping devie address => Behavior recort for reputation compute\n    mapping(address => Behaviors) public behaviorsLookup;\n    // some environment factors\n    Environment public evAttr;\n    \n    /// @dev Set contract deployer as owner, set management contract address, initial environment variable\n    constructor(address _mc) {\n        owner = msg.sender;\n        mc = ManagementR(_mc);\n        mcAddress = _mc;\n        initEnvironment();\n    }\n    \n    /// @dev updateEnvironment update parameters of reputation function\n    /// @notice real input value is value/base, e.g. 0.1 = 1/10, 0.25 = 25/100\n    function updateEnvironment(string memory _name, uint256 index, int value, int base) public {\n        require(\n            msg.sender == owner,\n            \"updateEnvironment error: Only owner can update environment factors!\"\n        );\n        bytes16 input = ABDKMathQuad.div(\n            ABDKMathQuad.fromInt(value),\n            ABDKMathQuad.fromInt(base)\n        );\n        if (stringCompare(_name, \"omega\")) {\n            require(\n                index >= 0 && index < 4,\n                \"updateEnvironment error: parameter array overflow\"\n            );\n            evAttr.omega[index] = input;\n        }\n        if (stringCompare(_name, \"alpha\")) {\n            require(\n                index >= 0 && index < 4,\n                \"updateEnvironment error: parameter array overflow\"\n            );\n            evAttr.alpha[index] = input;\n        }\n        if (stringCompare(_name, \"lambda\")) {\n            require(\n                index >= 0 && index < 4,\n                \"updateEnvironment error: parameter array overflow\"\n            );\n            evAttr.lambda[index] = input;\n        }\n        if (stringCompare(_name, \"CrPmax\")) {\n            evAttr.CrPmax = input;\n        }\n        if (stringCompare(_name, \"gamma\")) {\n            evAttr.gamma = input;\n        }\n    }\n\n    /// @dev reputationCompute compute the positive impact part and negative impact part of credit value,\n    ///      and then, compute blocked time and reward time according the credit value and update the device attribute\n    function reputationCompute(\n        address _subject, \n        bool _ismisbehavior,\n        uint8 _behaviorID,\n        string memory _behavior,\n        uint  _time\n    ) \n        public \n    {\n        require(\n            mc.isContractAddress(msg.sender) || msg.sender == mcAddress,\n            \"reputationCompute error: only acc or mc can call function!\"\n        );\n        \n        bytes16 CrN;\n        bytes16 CrP;\n        uint Tblocked;\n        \n        if (_ismisbehavior) {\n            behaviorsLookup[_subject].MisBehaviors.push(BehaviorRecord(_behaviorID, _behavior, _time, evAttr.alpha[_behaviorID-1]));\n        } else {\n            behaviorsLookup[_subject].LegalBehaviors.push(BehaviorRecord(_behaviorID, _behavior, _time, evAttr.omega[_behaviorID-1]));\n        }\n        \n        // calculate negative impact part\n        uint misLen = behaviorsLookup[_subject].MisBehaviors.length;\n        for (uint i = 0; i < misLen; i++) {\n            bytes16 wi = behaviorsLookup[_subject].MisBehaviors[i].currentWeight; \n            CrN = ABDKMathQuad.add(\n                CrN,\n                ABDKMathQuad.div(wi, ABDKMathQuad.fromUInt(misLen-i))\n            );           \n        }\n        CrN = ABDKMathQuad.neg(ABDKMathQuad.mul(CrN, ABDKMathQuad.fromUInt(misLen)));\n\n        \n        // calculate positive impact part\n        uint legLen = behaviorsLookup[_subject].LegalBehaviors.length - behaviorsLookup[_subject].begin;\n        for (uint i = behaviorsLookup[_subject].begin; i < behaviorsLookup[_subject].LegalBehaviors.length; i++) {\n            bytes16 wi = behaviorsLookup[_subject].MisBehaviors[i].currentWeight; \n            bytes16 g = exp(evAttr.gamma, legLen-i);\n            CrP = ABDKMathQuad.add(\n                CrP,\n                ABDKMathQuad.mul(wi, g)\n            );\n        }\n        CrP = ABDKMathQuad.div(CrP,ABDKMathQuad.fromUInt(legLen));\n        if (ABDKMathQuad.cmp(evAttr.CrPmax, CrP) == -1) {\n            CrP = evAttr.CrPmax;\n        }\n\n        // calculate credit\n        int credit = ABDKMathQuad.toInt(ABDKMathQuad.add(\n            ABDKMathQuad.mul(evAttr.lambda[0], CrP),\n            ABDKMathQuad.mul(evAttr.lambda[1], CrN))\n        );\n\n        // calculate penalty\n        if ((block.timestamp > behaviorsLookup[_subject].TimeofUnblock) && (credit < 0)) {\n            behaviorsLookup[_subject].begin = behaviorsLookup[_subject].LegalBehaviors.length-1;\n            Tblocked = uint(ABDKMathQuad.toInt(ABDKMathQuad.pow_2(ABDKMathQuad.fromInt(credit))));\n            // update unblocked time\n            behaviorsLookup[_subject].TimeofUnblock = block.timestamp + Tblocked;\n            mc.updateTimeofUnblock(_subject, behaviorsLookup[_subject].TimeofUnblock);\n        }\n        \n        emit isCalled(_subject, _ismisbehavior, _behavior, _time, credit, Tblocked);\n    }\n    \n    /// @dev getLastBehavior get the latest behavior condition\n    function getLastBehavior(\n        address _requester, \n        uint8 _behaviorType\n    ) \n        public \n        view \n        returns (\n            uint _behaviorID, \n            string memory _behavior, \n            uint _time\n        ) \n    {\n        uint latest;\n        if (_behaviorType == 0) {\n            require(behaviorsLookup[_requester].LegalBehaviors.length > 0, \"There is currently no legal behavior\");\n            latest = behaviorsLookup[_requester].LegalBehaviors.length - 1;\n            _behaviorID = behaviorsLookup[_requester].LegalBehaviors[latest].behaviorID;\n            _behavior = behaviorsLookup[_requester].LegalBehaviors[latest].behavior;\n            _time = behaviorsLookup[_requester].LegalBehaviors[latest].time;\n        } else {\n            require(behaviorsLookup[_requester].MisBehaviors.length >= 0, \"There is currently no misbehavior\");\n            latest = behaviorsLookup[_requester].MisBehaviors.length - 1;\n            _behaviorID = behaviorsLookup[_requester].MisBehaviors[latest].behaviorID;\n            _behavior = behaviorsLookup[_requester].MisBehaviors[latest].behavior;\n            _time = behaviorsLookup[_requester].MisBehaviors[latest].time;\n        }\n    }\n    \n    /// @dev initEnvironment initial parameters of reputation function\n    function initEnvironment() internal {\n        evAttr.alpha[0] = 0x3ffc9999999999999999999999999999; // 0.2 \n        evAttr.alpha[1] = 0x3ffd3333333333333333333333333333; // 0.3\n        evAttr.alpha[2] = 0x3ffe0000000000000000000000000000; // 0.5\n        evAttr.alpha[3] = 0x3ffd9999999999999999999999999999; // 0.4\n        evAttr.omega[0] = 0x3ffb9999999999999999999999999999; // 0.1\n        evAttr.omega[1] = 0x3ffb9999999999999999999999999999; // 0.1\n        evAttr.omega[2] = 0x3ffb9999999999999999999999999999; // 0.1\n        evAttr.omega[3] = 0x3ffc9999999999999999999999999999; // 0.1\n        evAttr.lambda[0] = 0x3ffe0000000000000000000000000000; // 0.5\n        evAttr.lambda[1] = 0x3ffe0000000000000000000000000000; // 0.5\n        evAttr.CrPmax = 0x4003e000000000000000000000000000; // 30\n        evAttr.gamma = 0x3ffd3333333333333333333333333333; // 0.3\n    }\n\n    /// @dev stringCompare determine whether the strings are equal, using length + hash comparson to reduce gas consumption\n    function stringCompare(string memory a, string memory b) public pure returns (bool) {\n        bytes memory _a = bytes(a);\n        bytes memory _b = bytes(b);\n        if (_a.length != _b.length) {\n            return false;\n        } else {\n            if (_a.length == 1) {\n                return _a[0] == _b[0];\n            } else {\n                return keccak256(abi.encodePacked(a)) == keccak256(abi.encodePacked(b));\n            }\n        }\n    }\n\n    /// @dev exp calculate base^expo, and return the result as a quadruple precision floating point number.\n    function exp(bytes16 base, uint expo) public pure returns (bytes16) {\n        bytes16 res;\n        for (uint i = 0; i < expo; i++) {\n            res = ABDKMathQuad.mul(res, base);\n        }\n        return res;\n    }\n\n}\n\n\nabstract contract ManagementR {\n    function updateTimeofUnblock(address _device, uint256 _TimeofUnblock) virtual public;\n    function isContractAddress(address _scAddress) virtual public view returns (bool);\n}",
  "sourcePath": "/home/shuzang/BBRAC-dev/contracts/Reputation.sol",
  "compiler": {
    "name": "solc",
    "version": "0.7.0+commit.9e61f92b.Emscripten.clang"
  },
  "schemaVersion": "3.3.1",
  "updatedAt": "2020-11-03T02:35:51.155Z",
  "networkType": "ethereum",
  "devdoc": {
    "kind": "dev",
    "methods": {
      "constructor": {
        "details": "Set contract deployer as owner, set management contract address, initial environment variable"
      },
      "exp(bytes16,uint256)": {
        "details": "exp calculate base^expo, and return the result as a quadruple precision floating point number."
      },
      "getLastBehavior(address,uint8)": {
        "details": "getLastBehavior get the latest behavior condition"
      },
      "reputationCompute(address,bool,uint8,string,uint256)": {
        "details": "reputationCompute compute the positive impact part and negative impact part of credit value,      and then, compute blocked time and reward time according the credit value and update the device attribute"
      },
      "stringCompare(string,string)": {
        "details": "stringCompare determine whether the strings are equal, using length + hash comparson to reduce gas consumption"
      },
      "updateEnvironment(string,uint256,int256,int256)": {
        "details": "updateEnvironment update parameters of reputation function"
      }
    },
    "version": 1
  },
  "userdoc": {
    "kind": "user",
    "methods": {
      "updateEnvironment(string,uint256,int256,int256)": {
        "notice": "real input value is value/base, e.g. 0.1 = 1/10, 0.25 = 25/100"
      }
    },
    "version": 1
  }
}