{
  "contractName": "Subject",
  "abi": [
    {
      "inputs": [],
      "stateMutability": "nonpayable",
      "type": "constructor"
    },
    {
      "inputs": [
        {
          "internalType": "address",
          "name": "",
          "type": "address"
        }
      ],
      "name": "manufacturers",
      "outputs": [
        {
          "internalType": "bool",
          "name": "",
          "type": "bool"
        }
      ],
      "stateMutability": "view",
      "type": "function",
      "constant": true
    },
    {
      "inputs": [],
      "name": "owner",
      "outputs": [
        {
          "internalType": "address",
          "name": "",
          "type": "address"
        }
      ],
      "stateMutability": "view",
      "type": "function",
      "constant": true
    },
    {
      "inputs": [
        {
          "internalType": "address",
          "name": "_manufacturer",
          "type": "address"
        }
      ],
      "name": "addManufacturer",
      "outputs": [],
      "stateMutability": "nonpayable",
      "type": "function"
    },
    {
      "inputs": [
        {
          "internalType": "address",
          "name": "_device",
          "type": "address"
        },
        {
          "internalType": "string",
          "name": "_ma",
          "type": "string"
        }
      ],
      "name": "addSubject",
      "outputs": [],
      "stateMutability": "nonpayable",
      "type": "function"
    },
    {
      "inputs": [
        {
          "internalType": "address",
          "name": "_subject",
          "type": "address"
        },
        {
          "internalType": "string",
          "name": "_soa",
          "type": "string"
        }
      ],
      "name": "addObattr",
      "outputs": [],
      "stateMutability": "nonpayable",
      "type": "function"
    },
    {
      "inputs": [
        {
          "internalType": "address",
          "name": "_subject",
          "type": "address"
        }
      ],
      "name": "getMA",
      "outputs": [
        {
          "internalType": "string",
          "name": "",
          "type": "string"
        }
      ],
      "stateMutability": "view",
      "type": "function",
      "constant": true
    },
    {
      "inputs": [
        {
          "internalType": "address",
          "name": "_subject",
          "type": "address"
        },
        {
          "internalType": "address",
          "name": "_object",
          "type": "address"
        }
      ],
      "name": "getSOA",
      "outputs": [
        {
          "internalType": "string",
          "name": "",
          "type": "string"
        }
      ],
      "stateMutability": "view",
      "type": "function",
      "constant": true
    },
    {
      "inputs": [
        {
          "internalType": "address",
          "name": "_manufacturer",
          "type": "address"
        }
      ],
      "name": "deleteManufacturer",
      "outputs": [],
      "stateMutability": "nonpayable",
      "type": "function"
    },
    {
      "inputs": [
        {
          "internalType": "address",
          "name": "_subject",
          "type": "address"
        }
      ],
      "name": "deleteObattr",
      "outputs": [],
      "stateMutability": "nonpayable",
      "type": "function"
    }
  ],
  "bytecode": "0x608060405234801561001057600080fd5b5060008054600160a060020a03191633179055610d47806100326000396000f3fe608060405234801561001057600080fd5b50600436106100b0576000357c0100000000000000000000000000000000000000000000000000000000900480638da5cb5b116100835780638da5cb5b146101f35780638e62e9ce14610217578063bd038edb1461023d578063c273319e146102f3578063d13020d314610396576100b0565b80634f6e7f0d146100b55780635f8a5afa1461016d5780636b5eb09c146101935780637f6a8103146101cd575b600080fd5b61016b600480360360408110156100cb57600080fd5b600160a060020a0382351691908101906040810160208201356401000000008111156100f657600080fd5b82018360208201111561010857600080fd5b8035906020019184600183028401116401000000008311171561012a57600080fd5b91908080601f0160208091040260200160405190810160405280939291908181526020018383808284376000920191909152509295506103bc945050505050565b005b61016b6004803603602081101561018357600080fd5b5035600160a060020a03166104ea565b6101b9600480360360208110156101a957600080fd5b5035600160a060020a03166105b8565b604080519115158252519081900360200190f35b61016b600480360360208110156101e357600080fd5b5035600160a060020a03166105cd565b6101fb610674565b60408051600160a060020a039092168252519081900360200190f35b61016b6004803603602081101561022d57600080fd5b5035600160a060020a0316610683565b61016b6004803603604081101561025357600080fd5b600160a060020a03823516919081019060408101602082013564010000000081111561027e57600080fd5b82018360208201111561029057600080fd5b803590602001918460018302840111640100000000831117156102b257600080fd5b91908080601f01602080910402602001604051908101604052809392919081815260200183838082843760009201919091525092955061074a945050505050565b6103216004803603604081101561030957600080fd5b50600160a060020a0381358116916020013516610851565b6040805160208082528351818301528351919283929083019185019080838360005b8381101561035b578181015183820152602001610343565b50505050905090810190601f1680156103885780820380516001836020036101000a031916815260200191505b509250505060405180910390f35b610321600480360360208110156103ac57600080fd5b5035600160a060020a0316610976565b600160a060020a03821660009081526002602052604090205460ff166104165760405160e560020a62461bcd028152600401808060200182810382526022815260200180610bc56022913960400191505060405180910390fd5b600160a060020a0382166000908152600260208181526040808420338552909201905290205460ff161561047e5760405160e560020a62461bcd028152600401808060200182810382526029815260200180610ce96029913960400191505060405180910390fd5b600160a060020a03821660009081526002602081815260408084203385529092018152912082516104b792600190920191840190610a91565b5050600160a060020a0316600090815260026020818152604080842033855290920190529020805460ff19166001179055565b600160a060020a03811660009081526001602052604090205460ff16156105455760405160e560020a62461bcd028152600401808060200182810382526032815260200180610b936032913960400191505060405180910390fd5b600054600160a060020a031633146105915760405160e560020a62461bcd028152600401808060200182810382526030815260200180610cb96030913960400191505060405180910390fd5b600160a060020a03166000908152600160208190526040909120805460ff19169091179055565b60016020526000908152604090205460ff1681565b600160a060020a0381166000908152600260208181526040808420338552909201905290205460ff166106345760405160e560020a62461bcd028152600401808060200182810382526022815260200180610c096022913960400191505060405180910390fd5b600160a060020a038116600090815260026020818152604080842033855290920190528120805460ff191681559061066f6001830182610b0f565b505050565b600054600160a060020a031681565b600160a060020a03811660009081526001602052604090205460ff166106dd5760405160e560020a62461bcd028152600401808060200182810382526031815260200180610c526031913960400191505060405180910390fd5b600054600160a060020a031633146107295760405160e560020a62461bcd028152600401808060200182810382526036815260200180610c836036913960400191505060405180910390fd5b600160a060020a03166000908152600160205260409020805460ff19169055565b3360009081526001602052604090205460ff1661079b5760405160e560020a62461bcd028152600401808060200182810382526027815260200180610c2b6027913960400191505060405180910390fd5b600160a060020a03821660009081526002602052604090205460ff16156107f65760405160e560020a62461bcd028152600401808060200182810382526027815260200180610b6c6027913960400191505060405180910390fd5b600160a060020a03821660009081526002602090815260409091208054600160ff19909116811774ffffffffffffffffffffffffffffffffffffffff0019166101003302178255835161066f93919092019190840190610a91565b600160a060020a0380831660009081526002602081815260408084209486168452939091019052205460609060ff166108be5760405160e560020a62461bcd028152600401808060200182810382526022815260200180610be76022913960400191505060405180910390fd5b600160a060020a03838116600090815260026020818152604080842094871684529382018152918390206001908101805485519281161561010002600019011692909204601f81018490048402820184019094528381529290918301828280156109695780601f1061093e57610100808354040283529160200191610969565b820191906000526020600020905b81548152906001019060200180831161094c57829003601f168201915b5050505050905092915050565b600160a060020a03811660009081526002602052604090205460609060ff166109e9576040805160e560020a62461bcd02815260206004820152601e60248201527f6765744d41206572726f723a20646576696365206e6f74206578697374210000604482015290519081900360640190fd5b600160a060020a0382166000908152600260208181526040928390206001908101805485519281161561010002600019011693909304601f81018390048302820183019094528381529290830182828015610a855780601f10610a5a57610100808354040283529160200191610a85565b820191906000526020600020905b815481529060010190602001808311610a6857829003601f168201915b50505050509050919050565b828054600181600116156101000203166002900490600052602060002090601f016020900481019282601f10610ad257805160ff1916838001178555610aff565b82800160010185558215610aff579182015b82811115610aff578251825591602001919060010190610ae4565b50610b0b929150610b56565b5090565b50805460018160011615610100020316600290046000825580601f10610b355750610b53565b601f016020900490600052602060002090810190610b539190610b56565b50565b5b80821115610b0b5760008155600101610b5756fe6164645375626a656374206572726f723a2064657669636520616c7265616479206578697374216164644d616e756661637475726572206572726f723a204d616e75666163747572657220616c7265616479206578697374736164644f6261747472206572726f723a20646576696365206e6f7420657869737421676574534f41206572726f723a20617474726962757465206e6f742065786973742164656c6574654f6261747472206572726f723a20534f41206e6f74206578697374216164645375626a656374206572726f723a20496c6c6567616c206d616e7566616374757265722164656c6574654d616e756661637475726572206572726f723a204d616e756661637475726572206e6f742065786973747364656c6574654d616e756661637475726572206572726f723a204f6e6c79206f776e6572206f662053432063616e2064656c657465216164644d616e756661637475726572206572726f723a204f6e6c79206f776e6572206f662053432063616e20616464216164644f6261747472206572726f723a2061747472696275746520616c726561647920657869737421a26469706673582212200560f58f50acba954260e973961aab967e88505ce2ef3a4b7f6cdaef3cf4c59b64736f6c63430007000033",
  "immutableReferences": {},
  "source": "// SPDX-License-Identifier:MIT\r\npragma solidity >=0.4.22 <=0.8.0;\r\n\r\n/* @title: manages the accounts of legitimate manufacturers, the accounts of IoT devices and all the subject attribute information of IoT\r\n   @author: shuzang\r\n*/\r\ncontract Subject {\r\n    address public owner;\r\n    \r\n    struct attribute{\r\n        bool isValued;\r\n        string value;\r\n    }\r\n    \r\n    struct device{\r\n        bool isValued;\r\n        address manufacturer;\r\n        string  MA;  // Describe the basic initialization information of the device (such as MAC address, serial number, etc.). and MA is set by the legitimate manufacturer and can only be set once\r\n        mapping(address => attribute) SOA;  // Only used for a pair of specific subject-object. If the object i sets a SOA to the subject j, then the SOA only take effect when j accesses i at the same time not affecting other devices.\r\n   \r\n    }\r\n    \r\n    /*\r\n    Mapping is marked internal, and write own getter function\r\n    */\r\n    mapping(address => bool) public manufacturers; // the list of legitimate manufacturers\r\n    mapping(address => device) internal devices;\r\n    \r\n    /**\r\n     * @dev Set contract deployer as owner\r\n     */\r\n    constructor() {\r\n        owner = msg.sender; // 'msg.sender' is sender of current call, contract deployer for a constructor\r\n    }\r\n    \r\n    /* @dev addManufacturer accepts the address of a manufacturer and adds this address to the list of legitimate manufacturers\r\n    */\r\n    function addManufacturer(address _manufacturer) public\r\n    {\r\n        require (\r\n            !manufacturers[_manufacturer],\r\n            \"addManufacturer error: Manufacturer already exists\"\r\n        );\r\n        \r\n        require(\r\n            msg.sender == owner,\r\n            \"addManufacturer error: Only owner of SC can add!\"\r\n        );\r\n        manufacturers[_manufacturer] = true;\r\n    }\r\n    \r\n    /* @dev addSubject registering new IoT devices\r\n    */\r\n    function addSubject (address _device, string memory _ma) public {\r\n        require(manufacturers[msg.sender], \"addSubject error: Illegal manufacturer!\");\r\n        require(\r\n            !devices[_device].isValued,\r\n            \"addSubject error: device already exist!\"\r\n        );\r\n        \r\n        devices[_device].isValued = true;\r\n        devices[_device].manufacturer = msg.sender;\r\n        devices[_device].MA = _ma;\r\n    }\r\n    \r\n    /* @dev addObattr set SOA for a subject\r\n    */\r\n    function addObattr (address _subject, string memory _soa) public {\r\n        require(\r\n            devices[_subject].isValued,\r\n            \"addObattr error: device not exist!\"\r\n        );\r\n        require(\r\n            !devices[_subject].SOA[msg.sender].isValued,\r\n            \"addObattr error: attribute already exist!\"\r\n        );\r\n        \r\n        devices[_subject].SOA[msg.sender].value = _soa;\r\n        devices[_subject].SOA[msg.sender].isValued = true;\r\n    }\r\n    \r\n    /* @dev getMA get the Manufacturer Attribute\r\n    */\r\n    function getMA(address _subject) public view returns (string memory) {\r\n        require(\r\n            devices[_subject].isValued,\r\n            \"getMA error: device not exist!\"\r\n        );\r\n        return devices[_subject].MA;\r\n    }\r\n    \r\n    /* @dev getSOA get the Attribute Setting by Object\r\n    */\r\n    function getSOA(address _subject, address _object) public view returns (string memory) {\r\n        require(\r\n            devices[_subject].SOA[_object].isValued,\r\n            \"getSOA error: attribute not exist!\"\r\n        );  \r\n        return devices[_subject].SOA[_object].value;\r\n    }\r\n    \r\n    \r\n    /* @dev deleteManufacturer deletes the manufaceurer from the manufaceurer list\r\n    */\r\n    function deleteManufacturer(address _manufacturer) public {\r\n        require (\r\n            manufacturers[_manufacturer],\r\n            \"deleteManufacturer error: Manufacturer not exists\"\r\n        );\r\n        \r\n        require(\r\n            msg.sender == owner,\r\n            \"deleteManufacturer error: Only owner of SC can delete!\"\r\n        );\r\n \r\n        delete manufacturers[_manufacturer];\r\n    }\r\n    \r\n    /* @dev deleteObattr delete the attribute setting by object\r\n    */\r\n    function deleteObattr(address _subject) public {\r\n        require (\r\n            devices[_subject].SOA[msg.sender].isValued,\r\n            \"deleteObattr error: SOA not exist!\"\r\n        );\r\n        delete devices[_subject].SOA[msg.sender];\r\n    }\r\n}    ",
  "sourcePath": "/home/shuzang/BBRAC-dev/contracts/Subject.sol",
  "compiler": {
    "name": "solc",
    "version": "0.7.0+commit.9e61f92b.Emscripten.clang"
  },
  "schemaVersion": "3.3.1",
  "updatedAt": "2020-11-03T07:09:09.610Z",
  "networkType": "ethereum",
  "devdoc": {
    "kind": "dev",
    "methods": {
      "constructor": {
        "details": "Set contract deployer as owner"
      }
    },
    "version": 1
  },
  "userdoc": {
    "kind": "user",
    "methods": {},
    "version": 1
  }
}