{
  "contractName": "Utils",
  "abi": [
    {
      "inputs": [
        {
          "internalType": "string",
          "name": "a",
          "type": "string"
        },
        {
          "internalType": "string",
          "name": "b",
          "type": "string"
        }
      ],
      "name": "stringCompare",
      "outputs": [
        {
          "internalType": "bool",
          "name": "",
          "type": "bool"
        }
      ],
      "stateMutability": "pure",
      "type": "function",
      "constant": true
    },
    {
      "inputs": [
        {
          "internalType": "bytes16",
          "name": "base",
          "type": "bytes16"
        },
        {
          "internalType": "uint256",
          "name": "expo",
          "type": "uint256"
        }
      ],
      "name": "exp",
      "outputs": [
        {
          "internalType": "bytes16",
          "name": "",
          "type": "bytes16"
        }
      ],
      "stateMutability": "pure",
      "type": "function",
      "constant": true
    }
  ],
  "bytecode": "0x610885610026600b82828239805160001a60731461001957fe5b30600052607381538281f3fe730000000000000000000000000000000000000000301460806040526004361061005c577c010000000000000000000000000000000000000000000000000000000060003504634941d66b811461006157806360353db9146100bd575b600080fd5b6100976004803603604081101561007757600080fd5b506fffffffffffffffffffffffffffffffff1981351690602001356101fe565b604080516fffffffffffffffffffffffffffffffff199092168252519081900360200190f35b6101ea600480360360408110156100d357600080fd5b8101906020810181356401000000008111156100ee57600080fd5b82018360208201111561010057600080fd5b8035906020019184600183028401116401000000008311171561012257600080fd5b91908080601f016020809104026020016040519081016040528093929190818152602001838380828437600092019190915250929594936020810193503591505064010000000081111561017557600080fd5b82018360208201111561018757600080fd5b803590602001918460018302840111640100000000831117156101a957600080fd5b91908080601f01602080910402602001604051908101604052809392919081815260200183838082843760009201919091525092955061022a945050505050565b604080519115158252519081900360200190f35b60008060005b838110156102205761021682866103c1565b9150600101610204565b5090505b92915050565b80518251600091849184911461024557600092505050610224565b8151600114156102db578060008151811061025c57fe5b602001015160f860020a900460f860020a027effffffffffffffffffffffffffffffffffffffffffffffffffffffffffffff19168260008151811061029d57fe5b602001015160f860020a900460f860020a027effffffffffffffffffffffffffffffffffffffffffffffffffffffffffffff19161492505050610224565b836040516020018082805190602001908083835b6020831061030e5780518252601f1990920191602091820191016102ef565b6001836020036101000a03801982511681845116808217855250505050505090500191505060405160208183030381529060405280519060200120856040516020018082805190602001908083835b6020831061037c5780518252601f19909201916020918201910161035d565b6001836020036101000a038019825116818451168082178552505050505050905001915050604051602081830303815290604052805190602001201492505050610224565b6000617fff6e0100000000000000000000000000006fffffffffffffffffffffffffffffffff608060020a8087048216839004841693908604909116919091048116908214156104fe5780617fff141561049b576fffffffffffffffffffffffffffffffff1985811690851614156104445750505060ff60020a81168218610224565b60ff60020a6fffffffffffffffffffffffffffffffff1986861816141561047057505050818117610224565b507f7fff80000000000000000000000000000000000000000000000000000000000091506102249050565b7f7fffffffffffffffffffffffffffffff0000000000000000000000000000000084166104ed57507f7fff80000000000000000000000000000000000000000000000000000000000091506102249050565b50505060ff60020a81168218610224565b80617fff141561056b577f7fffffffffffffffffffffffffffffff00000000000000000000000000000000851661055a57507f7fff80000000000000000000000000000000000000000000000000000000000091506102249050565b50505060ff60020a82168118610224565b6dffffffffffffffffffffffffffff608060020a8604168261059057600192506105a2565b6e010000000000000000000000000000175b6dffffffffffffffffffffffffffff608060020a860416826105c757600192506105d9565b6e010000000000000000000000000000175b90810290816106075760ff60020a878718166105f65760006105fc565b60ff60020a5b945050505050610224565b9282019260007c020000000000000000000000000000000000000000000000000000000083101561066d577c0100000000000000000000000000000000000000000000000000000000831015610665576106608361078c565b610668565b60e05b610670565b60e15b9050614070818601101561068b57600094506000925061073b565b6140e081860110156106d4576140708510156106b35761407085900360020a909204916106cb565b6140708511156106cb5761406f19850160020a909202915b6000945061073b565b61c0dd81860111156106ee57617fff94506000925061073b565b607081111561070857606f19810160020a9092049161071e565b607081101561071e5780607003839060020a0292505b6dffffffffffffffffffffffffffff831692506140df8186010394505b826070869060020a02888a186f80000000000000000000000000000000608060020a0216608060020a90046fffffffffffffffffffffffffffffffff161717608060020a0295505050505050610224565b600080821161079a57600080fd5b6000608060020a83106107b457608060020a909204916080015b6801000000000000000083106107d65768010000000000000000909204916040015b64010000000083106107f057640100000000909204916020015b6201000083106108065762010000909204916010015b610100831061081a57610100909204916008015b6010831061082c576010909204916004015b6004831061083e576004909204916002015b60028310610224576001019291505056fea2646970667358221220a22c83cfa0494001deb5f2603a9e2a61c85504a3d60342f50de261e6e02ac97464736f6c63430007000033",
  "immutableReferences": {},
  "source": "// SPDX-License-Identifier:MIT\npragma solidity >0.6.0 <0.8.0;\nimport \"./ABDKMathQuad.sol\";\n\nlibrary Utils {\n    \n    /// @dev stringCompare determine whether the strings are equal, using length + hash comparson to reduce gas consumption\n    function stringCompare(string memory a, string memory b) public pure returns (bool) {\n        bytes memory _a = bytes(a);\n        bytes memory _b = bytes(b);\n        if (_a.length != _b.length) {\n            return false;\n        } else {\n            if (_a.length == 1) {\n                return _a[0] == _b[0];\n            } else {\n                return keccak256(abi.encodePacked(a)) == keccak256(abi.encodePacked(b));\n            }\n        }\n    }\n\n    /// @dev exp calculate base^expo, and return the result as a quadruple precision floating point number.\n    function exp(bytes16 base, uint expo) public pure returns (bytes16) {\n        bytes16 res;\n        for (uint i = 0; i < expo; i++) {\n            res = ABDKMathQuad.mul(res, base);\n        }\n        return res;\n    }\n}",
  "sourcePath": "/home/shuzang/BBRAC-dev/contracts/Utils.sol",
  "compiler": {
    "name": "solc",
    "version": "0.7.0+commit.9e61f92b.Emscripten.clang"
  },
  "schemaVersion": "3.3.1",
  "updatedAt": "2020-11-02T10:07:40.277Z",
  "networkType": "ethereum",
  "devdoc": {
    "kind": "dev",
    "methods": {
      "exp(bytes16,uint256)": {
        "details": "exp calculate base^expo, and return the result as a quadruple precision floating point number."
      },
      "stringCompare(string,string)": {
        "details": "stringCompare determine whether the strings are equal, using length + hash comparson to reduce gas consumption"
      }
    },
    "version": 1
  },
  "userdoc": {
    "kind": "user",
    "methods": {},
    "version": 1
  }
}